:100000000C9490030C94AD030C94AD030C94AD03CD
:100010000C94AD030C94AD030C94AD030C94AD03A0
:100020000C94AD030C94AD030C947F260C943B26EA
:100030000C948A270C94AD030C94AD030C94AD037F
:100040000C94AD030C94AD030C94AD030C94AD0370
:100050000C94AD030C9466270C94AD030C94AD0383
:100060000C94AD030C94AD030C94AD030C94AD0350
:100070000C94AD030C94AD030C94AD030C94AD0340
:100080000C94AD030C94AD030C94AD030C94AD0330
:100090000C94AD030C94AD030C94AD030C94AD0320
:1000A0000C94AD030C94AD030C94AD0328002A000E
:1000B0000000140013001D00380000001C00130095
:1000C000110038000000140017001D00050000009A
:1000D0001100380000001D000500000014381A341B
:1000E000093113320500000000000D000F22182115
:1000F0001C34342804281524162117220A00000075
:1001000000001000113208310C2412381D431B006E
:10011000060007001900000000000E000B0036006A
:100120003700384300000000000029462C442B45CE
:1001300028482A474C4900000000000014381A34AF
:10014000083115321700000000001C0018220C2195
:100150001234132804281624072109220A0000005B
:1001600000000B000D320E310F2434381D431B00EC
:100170000600190005000000000011001000360004
:100180003700384300000000000029462C442B456E
:1001900028482A474C4900000000000014001A00BB
:1001A000080015001700000000001C0018000C00DB
:1001B0001200130004001600070009000A000000E6
:1001C00000000B000D000E000F0034001D001B008E
:1001D00006001900050000000000110010003600A4
:1001E0003700380000000000000029002C002B0020
:1001F00028002A004C000000000000001D011B0127
:10020000060103571C01000000001C0103570601F2
:100210001B011D01E300E200E000E1001D01000000
:1002200000001D01E100E000E200E3001D011B01F0
:10023000060103571C01000000001C0103570601C2
:100240001B011D01000000000000D300D100D200FE
:10025000D200D100D300000000000000B852B45218
:10026000B152B2520000000000001C010357060109
:100270001B011D01A852A452A152A252000000006D
:1002800000004A7E5000510052004F000000000064
:100290000000015700000000000049004A004E0025
:1002A0004B004D00000000000000000000000000B6
:1002B00028002A004C00000000000000B852B45290
:1002C000B152B252DF00000000001C0103570601CA
:1002D0001B011D01A852A452A152A252DE0000002F
:1002E00000003900CF00CE00CD00D000000000009B
:1002F00000000157DD00000000004900447E457EFB
:10030000467E477E00000000000000000000000064
:10031000D200D100D300000000000000B852B45257
:10032000B152B2520457000000004B7E427E407E24
:10033000417E437EA852A452A152A252470000001F
:100340000000487EAC00AA00A900AB00007C025768
:10035000005701574800000000004C7E4E7E507E42
:100360004F7E4D7E000000000000000000000000F5
:10037000AD00AE00A8000000000000002F00240027
:10038000250026003000000000002A00A252A152E1
:10039000B452A85233002100220023002E00000096
:1003A0000000567CB252B152A452B85235001E0021
:1003B0001F0020003100000000002C000157360013
:1003C00037003800000000000000557C27002D0099
:1003D00000000000537C0000000000002F022402F7
:1003E000250226023002000000002A00A252A1527B
:1003F000B452A85233022102220223022E0200002C
:100400000000577CB252B152A452B85235021E02BB
:100410001F0220023102000000002C0001573600AC
:1004200037003800000000000000557C2702497E9C
:1004300000000000547C0000000000004500400067
:10044000410042006A00000000000457A252A1527D
:10045000B452A85244003D003E003F006900000035
:1004600000004700B252B152A452B85243003A00C1
:100470003B003C00680000000000480001570057A6
:100480000257007C00000000000065002C002B00DB
:1004900000000000000000000000000055005F00A8
:1004A000600061005600000000002A00A252A15224
:1004B000B452A85267005C005D005E005700000067
:1004C00000005300B252B152A452B8525400590025
:1004D0005A005B005800000000002C000157360055
:1004E0003700380000000000000085006200630053
:1004F00000000000000000000000000000000000FC
:1005000000000000000000000000000000000000EB
:1005100000000000000000000000000000000000DB
:100520007E0F00D4FFFFFFC700000078000000002E
:10053000000000002A2B280000000000000000003E
:100540000000000000000029000000002C1E3420E4
:10055000212224342627252E362D3738271E1F200A
:100560002122232425263333362E37381F0405064F
:100570000708090A0B0C0D0E0F1011121314151693
:100580001718191A1B1C1D2F3130232D3504050691
:100590000708090A0B0C0D0E0F1011121314151673
:1005A0001718191A1B1C1D2F3130354C0501090273
:1005B000A10185020901A1000509190129081500F9
:1005C0002501950875018102050109300931158160
:1005D000257F95027508810609381581257F9501CB
:1005E00075088106050C0A38021581257F9501756D
:1005F000088106C0C005010980A101850319012AEF
:10060000B700150126B700950175108100C0050CD3
:100610000901A101850419012AA002150126A002E1
:10062000950175108100C005010906A10185060527
:100630000719E029E71500250195087501810205D4
:1006400007190029EF1500250195F07501810205B4
:100650000819012905950575019102950175039108
:1006600001C005010906A101050719E029E71500E8
:10067000250195087501810295017508810105071D
:10068000190029FF150026FF009506750881000551
:100690000819012905150025019505750191029597
:1006A0000175039101C009023B00020100A0FA0993
:1006B000040000010301010009211101000122448D
:1006C000000705810308000109040100010300007F
:1006D0000009211101000122B60007058203200054
:1006E00001120100020000000809120323010001A9
:1006F0000200010E03410074007200650075007372
:1007000000000016034B006500790062006F006175
:10071000007200640069006F000000040309040017
:1007200011241FBECFEFDAE0DEBFCDBF11E0A0E0A5
:10073000B1E0ECE8F8E502C005900D92AE3DB107DE
:10074000D9F728E0AEEDB1E001C01D92A333B207A6
:10075000E1F70E94B1270C94052C0C940000843022
:1007600028E2920731F08231984319F088EC90E04A
:1007700008958AEF90E00895F901A0913108B091B1
:1007800032082581211103C08A179B07C9F089E02F
:100790004802A0011124CD01841B950B681779072D
:1007A00079F089E001900D928A95E1F78091310806
:1007B00090913208480F591F5093320840933108E6
:1007C0000895482F209130089091E70759E02913A8
:1007D00002C080E0089530E0529FF001539FF00D79
:1007E0001124E851F84F8181681306C080814813B5
:1007F00003C085818111EECF2F5F3F4F2770E7CF78
:10080000E8EDF0E080818E7F80831092E20010920C
:10081000DA001092E100A0EEB0E08C9181608C9340
:1008200080818F77808319BCA7EDB0E08C918E7F9B
:100830008C9380818F7E80831092D20708952091BF
:10084000E4003091E50095E6A9012091EC00822FAB
:10085000817020FF06C08091E80080FF06C080E024
:1008600008952091E80022FD1AC08091DD078823B9
:1008700089F0853089F08091EB0085FD0FC02091D3
:10088000E4003091E50042175307F9F29150E1F688
:1008900084E0089582E0089583E0089581E008955A
:1008A0008091DF0787FF13C08091E80082FF06C0B8
:1008B0008091E8008B778093E80004C08091DD0789
:1008C0008111F2CF08958091DD078823D9F38091BB
:1008D000E80080FFF8CF8091E8008E77ECCF982F6A
:1008E0009093E900242F762F50E0891731F0709112
:1008F000EC002091ED005091F00021FD07C09F5FBA
:10090000973071F78093E90081E008953091EB0012
:100910003E7F3093EB003091ED003D7F3093ED0052
:100920003091EB0031603093EB007093EC0020933A
:10093000ED005093F0002091EE0027FDE0CF80E025
:100940000895B0E0A0E0E7EAF4E00C945F2BC8ED76
:10095000D0E088818F7E8883E7EDF0E08081816040
:10096000808384E082BF81E08093D20788818E7F7C
:10097000888302EE10E0F80110821092DA0081EE16
:10098000C82ED12CF601108288818F7788838881C8
:100990008068888388818F7D888319BC1092DD07E9
:1009A0001092DE071092DC071092DB0790EEE92E22
:1009B000F12CF70180818B7F80838881816088831F
:1009C00042E060E080E00E946F04F60180818E7F4B
:1009D0008083F8018081816080838081886080834A
:1009E000F70180818E7F8083888180618883CDB785
:1009F000DEB7E8E00C947B2BFC018091E507909139
:100A0000E60786179707A0F06115710529F4909104
:100A1000E8009E779093E80090E06115710551F42D
:100A2000911108C08091E80082FF34C080E00895F1
:100A3000BC01F2CF8091DD078823C1F18530C1F17F
:100A40008091E80083FD30C08091E80082FDEACF0C
:100A50008091E80080FFE1CF8091F3002091F200C7
:100A6000382F6115710519F02830310558F091E0E3
:100A70002830310509F090E02091E8002E7720938E
:100A8000E800CBCF81918093F100615071092F5F15
:100A90003F4FE7CF8091DD07882341F0853041F05B
:100AA0008091E80083FFBECF81E0089582E0089541
:100AB00083E0089587E797E7909301088093000803
:100AC00088E19AE00FB6F894A895809360000FBE75
:100AD00090936000FFCF2FB7F8948091CE0790914C
:100AE000CF07A091D007B091D1072FBF0895809173
:100AF0008B01089590918C019130D1F49091CB07A6
:100B000097FF16C0E82FE695E695E695EE31E0F4FE
:100B1000F0E0E851FE4F282F277081E090E001C0FF
:100B2000880F2A95EAF78095928189238283089518
:100B3000E2EEF1E09191891303C0DF0111971C925D
:100B400091E0E83EF907B1F7089590918C0191305A
:100B5000C1F49091CB0797FF14C0E82FE695E69576
:100B6000E695EE31F8F4F0E0E851FE4F877021E0B1
:100B700030E001C0220F8A95EAF78281822B8283BE
:100B80000895A2EEB1E0EFEF90E02D91821751F0C1
:100B9000EF3F19F4211101C0E92F9F5F9630A9F7AB
:100BA000EF3F09F408950E2E000CFF0BE052FE4FAC
:100BB000E6CFA3E0B0E0EFEDF5E00C94652B2091DB
:100BC000C9073091CA0728173907A1F09093CA07BF
:100BD0008093C907E091C707F091C807309751F09B
:100BE00024E029839B838A830084F185E02DCE0154
:100BF000019609952396E2E00C94812BA3E0B0E0E6
:100C0000E4E0F6E00C94652B2091C5073091C6070F
:100C100028173907A1F09093C6078093C507E09184
:100C2000C707F091C807309751F023E029839B83D1
:100C30008A830084F185E02DCE01019609952396E3
:100C4000E2E00C94812BE091C707F091C807309740
:100C500029F00190F081E02D0995089580E0089534
:100C60000E94230608954115510511F0FA010995D6
:100C700008950E946B059C019091BB078091BC0771
:100C8000982B21F03093B8072093B7079091BD07B8
:100C90008091BE07982B21F03093B6072093B507BB
:100CA000E091C707F091C807309749F082E0809340
:100CB000B9070680F781E02D89EB97E00995089543
:100CC0008091B40780FD1CC081FD14C082FD14C05A
:100CD0008091B3078823A1F0883280F428E0829FB6
:100CE000C001112468E270E00E943B2B862F672B25
:100CF00039F0089584E008958FE7089588E0089515
:100D000081E008958091B40780FD1EC081FD15C06B
:100D100082FD15C02091B307222399F080E320348F
:100D200090F4289F9001112486E0359527958A95A7
:100D3000E1F7822F232B41F0089588E108958FE792
:100D4000089588E00895089581E00895282F35EBEF
:100D50002303C001112497FF04C080589109892FF3
:100D6000089580589F4FFBCFAC018091AA076091F6
:100D7000AB07982F691301C00895292F30E0F901BE
:100D8000EE0FFF1FEE55F84F0190F081E02DE417B4
:100D9000F507C1F4F0E0E0E04630510540F467E0CB
:100DA000649FF001659FF00D1124E15AFE4F41E070
:100DB00044839813E1CF2F5F3F4F23703327209355
:100DC000AA0708952F5F3F4F922F9370D3CF1092B1
:100DD000360710923507EFE5F1E089E891E02581CB
:100DE000211102C01482168237968E179F07B9F719
:100DF000089580E00895F894E82FE295EF70F0E010
:100E000031A1282F2F7081E090E001C0880F2A9532
:100E1000EAF7982F9095932391A392A1892B82A30F
:100E2000789408959091CB0792FF10C041E0282F4D
:100E30002471243009F040E031E0282F2871283057
:100E400009F030E0431711F02CE0822793FF10C027
:100E500041E0282F2471243109F040E031E0282FAF
:100E60002871283109F030E0431711F02CE0822777
:100E70003091CC0730FF10C051E0282F2171213074
:100E800009F050E041E0282F2871283009F040E0B7
:100E9000541711F029E0822731FF10C041E0282FBC
:100EA0002171213109F040E031E0282F28712831EB
:100EB00009F030E0431711F029E0822794FD877E86
:100EC000089582389105B9F1B0F48133910509F4A0
:100ED0007DC048F48932910509F46DC08A329105CC
:100EE00009F47BC008958533910509F45FC0893307
:100EF000910509F10895833E9105D9F138F4803EBA
:100F0000910529F1823E910579F10895863E91057A
:100F1000D9F1873E910509F43EC0843E910541F523
:100F20002091CC0721FF24C08091CB0784FD19C0FC
:100F300087EE90E008952091CB07237009F05AC006
:100F40002091CC0723FF14C089E290E008952091FE
:100F5000CB0720FD38C03091CC0730FF09C024FFFB
:100F600043C090E080E008952091CB0722FDF7CFA9
:100F700008952091CB0722FD3AC03091CC0730FD77
:100F800039C024FFF5CFEDCF2091CB0723FFF0CF61
:100F900024FDE7CFCDCF2091CB0723FD2EC030918C
:100FA000CC0731FFEECF84EE90E008952091CB077F
:100FB00025FFDECFC9CF2091CB0725FD21C0209191
:100FC000CC0723FFD5CF89E390E0D2CF2091CB0788
:100FD00026FFCECF8AE290E008952091CB0726FF2E
:100FE000C7CF81E390E0089583EE90E0089582EE0C
:100FF00090E0089580EE90E0089586EE90E00895E8
:1010000085E390E00895972F7430B8F46C30A8F41D
:101010008B30B0F470E02CE0929F600D711D1124B4
:10102000FB0190E3899FE00DF11D1124EE0FFF1FDE
:10103000E452FF4F85919491089580E090E00895E7
:1010400081E0FCCF1F93CF93DF930E946107EC01F7
:10105000C11580E5D807F0F5C11580E4D80708F080
:101060009CC0C03ED10520F5CD3CD10508F082C022
:10107000C83AD10578F4C53AD10508F073C0C1303B
:10108000D10519F1209709F1C430D105F0F4D0E071
:10109000C0E01BC0C33CD105D0F7C85AD0E0CC0F8C
:1010A000DD1FC956DE4F0990D881C02DD4640DC014
:1010B000C11580E2D80708F0D1C0C11581E0D8077A
:1010C00008F05AC0C83ED10510F7CE01DF91CF918C
:1010D0001F910895C03682E5D80718F5C03482E51F
:1010E000D80708F06BC0C03282E5D80708F05FC0AF
:1010F000C11582E5D80708F497C02C2F26952695B0
:1011000080E2289F900111248C2F8370C1E0D0E0F1
:1011100002C0CC0FDD1F8A95E2F7C22BD32BDD680E
:10112000D4CFC03A82E5D80760F4C03882E5D8074A
:1011300008F459C0CF71D0E0DC2FCC27C46FD06A3F
:10114000C4CFC03C82E5D80708F462C0C03E82E547
:10115000D80708F09CCFDC2FCC27CC27DF71C06FDD
:10116000D06AB3CFC55AD0E0CC56DE4FC881D0E0AC
:10117000D064ABCFD065A9CF8D2F0E941207182F56
:10118000CE0199270E946107C12FD0E0DC2FCC2728
:10119000CC27DF71C82BD92B98CFCE0199270E947D
:1011A0006107CC27DF70C82BD92BD06A8ECFCF71C7
:1011B000D0E0DC2FCC27C16FD06A87CF2C2F2695AB
:1011C0002695277080E2289F900111248C2F837030
:1011D000C1E0D0E002C0CC0FDD1F8A95E2F7C22B40
:1011E000D32BDC6872CF2C2F26952695277080E2B2
:1011F000289F900111248C2F8370C1E0D0E002C0A1
:10120000CC0FDD1F8A95E2F7C22BD32BDA685DCFB6
:101210008C2F8F710E941207C82FD0E0DC2FCC27B3
:10122000CC27DF71D06251CF8C2F8F710E941207B3
:1012300055E0D695C7955A95E1F7CF70D0E0DC2FF1
:10124000CC27282F30E084FF05C044E0220F331F55
:101250004A95E1F7C22BD32BD06937CF8D2F8F71F1
:101260000E941207182FCE0199270E946107C12FF3
:10127000D0E0DC2FCC27CC27DF71C82BD92BD2CFE5
:101280008091DA0681111092DA060895809137076D
:1012900081110FC0109232070E9440090E946B0515
:1012A00088579C4E909334078093330781E0809356
:1012B000370708959091CC0792FF05C09091DA0608
:1012C00098138093DA06089580959091C207982329
:1012D0009093C20708958095909132079823909338
:1012E0003207089590913207892B80933207089531
:1012F000CF93C09132078091C207C82B8091DA0644
:10130000882391F0C82B80918C01813081F48091E9
:10131000CB0787FF0CC02EE18AEE91E030E0215030
:1013200050F431110E9440098C2FCF91089526E08E
:1013300082EE91E0F3CFFC014191CF01442379F398
:101340003F5FEDCF809130089091E707981301C07F
:1013500008958F5F8770FACFB0E0A0E0E2EBF9E08C
:101360000C945E2B7C010091AE071091AF07809129
:10137000E8069091E906082B192BCFE0D0E0CC24A9
:10138000C394D12CBC2EC6010C2E02C0880F991F0D
:101390000A94E2F780239123892B49F4219790F74F
:1013A000B12C8B2DCDB7DEB7E9E00C947A2BB701C9
:1013B0008C2F0E9403080E942208019779F3F1CF35
:1013C000CF93DF93EC010E94AC09BE010E94030899
:1013D0000E942208DF91CF910895943078F58C30E7
:1013E00068F5E82FF0E08CE0989FE00DF11D1124E6
:1013F0009E2F977083E0F695E7958A95E1F7EE0FBB
:10140000FF1FEE0FFF1FEF56F94F50E040E080E066
:10141000219130E0092E02C0369527950A94E2F713
:1014200021703327042E01C0220F0A94EAF7822B81
:101430004F5F5F4F4430510559F7089580E008959C
:10144000943098F58C3088F5E82FF0E08CE0989F88
:10145000E00DF11D11248E2F877041E001C0440F73
:101460008A95EAF783E0F695E7958A95E1F7EE0F1E
:10147000FF1FEE0FFF1FEF56F94F30E020E070E046
:101480005191DF011197CB01022E02C096958795ED
:101490000A94E2F7817081958527842385278C93B0
:1014A0002F5F3F4F2430310559F708959093AF07D0
:1014B0008093AE07089521E030E002C0220F331F71
:1014C0008A95E2F7209530958091AE079091AF070D
:1014D000822393230E94560A08959091B007809525
:1014E00089238093B007282F277069F4891759F052
:1014F0009091CC0792FF07C08695869586950E94AD
:101500005B0A1092B007089521E030E002C0220F7C
:10151000331F8A95E2F78091AE079091AF07822B37
:10152000932B0E94560A08950F931F93CF93DF9336
:1015300001E010E0082E02C0000F111F0A94E2F72C
:10154000C091B107D091B2079E0120233123232BF4
:10155000B1F49091B007969596959695891302C02F
:101560001092B0070E94840AC027D127D093B207F7
:10157000C093B107DF91CF911F910F9108950E9401
:101580005B0AF2CF90E080E00E94560A08959093A3
:10159000E9068093E8060895FC0184818823F9F028
:1015A00087819085009791F00E94220892959F7004
:1015B0009630B9F080F4925F9F70923080F4803F53
:1015C00019F058F4883E58F481E0089580819181A3
:1015D0000E94E009EBCF9A5FEFCF843FA9F380E050
:1015E0000895883E88F3813FD1F7EECF662309F452
:1015F0005DC08D3C41F40E94820681958093BC07BA
:101600000E94390608958E3C19F40E948206F6CF96
:101610008F3C31F40E94820681958093BB07F0CF06
:10162000803D19F40E948206F8CF893D29F40E947A
:1016300060068093BD07E4CF8A3D21F40E946006D6
:101640008195F7CF8B3D31F40E94600681958093A0
:10165000BE07D6CF8C3D19F40E946006F8CF9FE2FA
:10166000980F983070F4815D990B21E030E001C053
:10167000220F8A95EAF78091BA07822B8093BA07E6
:10168000BFCF8D3D31F48091B40781608093B40762
:10169000B7CF8E3D21F48091B4078260F7CF8F3DA4
:1016A00009F0AECF8091B4078460F0CF4091BB07C2
:1016B0008D3C59F48091BC0787FF0DC01092BC0788
:1016C00041110BC01092B30708C08E3C81F4809189
:1016D000BC0718169CF3442381F08091BD079091BC
:1016E000BE07892B09F08CCF10920B0789CF8F3C56
:1016F00049F447FFF0CF1092BB078091BC078111DE
:10170000ECCFE0CF803D19F41416ACF3E4CF909108
:10171000BD07893D29F41916F4F61092BD07DBCFF9
:101720008A3D19F497FFD7CFF8CF9091BE078B3D34
:1017300029F497FFD0CF1092BE07CDCF8C3D19F47E
:101740001916CCF3C8CF9FE2980F983090F4815DC2
:10175000990B21E030E0B90102C0660F771F8A952E
:10176000E2F7CB0180959091BA0789238093BA075D
:10177000B2CF8D3D31F48091B4078E7F8093B40752
:10178000AACF8E3D21F48091B4078D7FF7CF8F3D96
:1017900009F0A1CF8091B4078B7FF0CF292F332799
:1017A00040E02115310511F0C90148E09C0164E0D9
:1017B000369527956A95E1F72115310511F04C5FB3
:1017C000C9019C0136952795369527952115310538
:1017D00011F04E5FC90196958795892B09F04F5FEF
:1017E000842F0895A6E0B0E0E8EFFBE00C94642BB2
:1017F0009C01FC01878190850097E1F486E0DE0181
:10180000119601900D928A95E1F7F9012581898160
:101810009A81222399F0662389F00E94AC09182F3F
:10182000682F89819A810E94200A69817A81812F9B
:101830000E9403082696E3E00C94802B0E94ED0999
:10184000182FF3CF9C013A9521153F4150F5FC012B
:10185000EE27F170BC0166277270AC01442754700A
:101860009C012227387094FF0EC080E1EF2B09F411
:1018700080E0672B09F08062452B09F08064232B00
:1018800089F08068089581E0EF2B09F480E0672BF0
:1018900009F08260452B09F08460232B19F08860E1
:1018A000089580E00895CF93DF93EC018091AE0717
:1018B0009091AF070E94CE0B9A81913019F40E944B
:1018C000940A1CC09230D1F484508630B8F4E82FCA
:1018D000F0E0E257FE4F80818F3F81F021E030E061
:1018E000082E02C0220F331F0A94E2F74091B1077D
:1018F0005091B20724233523232B09F3DF91CF9195
:1019000008950F931F93CF93DF938B01EA0190917A
:10191000DD07943061F58093E9008FEF9091E80046
:10192000815095FD06C095ED9A95F1F70000811163
:10193000F5CF8091E80085FF1AC00E941F04811135
:1019400011C08091E80085FD06C08091E8008E7787
:101950008093E800F2CFF80181918F018093F1002C
:10196000219779F78091E8008E778093E800DF91E6
:10197000CF911F910F91089543E050E0BC0182E0A8
:101980000E94810C089546E050E0BC0182E00E9474
:10199000810C089540E250E0BC0182E00E94810C7D
:1019A0000895CF93DF93EC0148E050E0BC0181E063
:1019B0000E94810C88E0FE01A3EDB7E001900D923A
:1019C0008A95E1F7DF91CF91089580930D07682FF5
:1019D0008CE090E00E94C42B0895CF93DF93C1E088
:1019E000D0E002C0CC0FDD1F8A95E2F76C2F83E0B8
:1019F00090E00E94C42BCE010E94C70ADF91CF91D4
:101A00000895FC018281813041F482E080930A02D2
:101A100084E090E00E94C70A0895823031F481E0AA
:101A200080930A0282E090E0F5CF833021F4809128
:101A30000A020E94ED0C08959091CC0792FB222798
:101A400020F9281779F080FB92F99093CC076091E8
:101A5000CB077091CC0784E090E00E94E22B82E0FB
:101A60000E946D0A0895FC018281823061F083300A
:101A700081F0813011F58093EA068091CC07836074
:101A80008093CC0708951092EA068091CC078C7F52
:101A9000F7CF8091EB069091EA0690FB80F9809356
:101AA000EB064091EB065091EC066091ED067091CB
:101AB000EE0683E190E00E94D62B0895EBEEF6E06F
:101AC00080818E7F80834091EB065091EC0660917F
:101AD000ED067091EE0683E190E00E94D62B08950A
:101AE00080918C01813059F58091CB0787FF27C009
:101AF0000E9478098093E90140E250E062EB76E0D1
:101B000088EE91E00E94F82B892BC1F080E2E8EE8C
:101B1000F1E0A2EBB6E001900D928A95E1F7E09139
:101B2000C707F091C807309749F086E08093E80135
:101B30000480F581E02D88EE91E0099508950E94DA
:101B400078098093E00148E050E062ED76E080EEB5
:101B500091E00E94F82B892B89F388E0E0EEF1E018
:101B6000A2EDB6E001900D928A95E1F7E091C707EA
:101B7000F091C807309711F30280F381E02D80EED9
:101B800091E0DBCFCF93DF93EC014A855B856E85D7
:101B90007F850E9433068B810E9464098C810E949C
:101BA0006B090E94700D86E0FE0111928A95E9F79B
:101BB000DF91CF910895CF93DF93EC018D8181FD6B
:101BC00014C082608D838091C2079B81892B809392
:101BD000C2078C810E9472090E94700D4885598548
:101BE0006E857F85CE010E9433061092C407109245
:101BF000C3078D8180FD03C0CE010E94C20DDF911D
:101C0000CF91089580915E01877F80935E018091DE
:101C10003707811103C082E00E94640980915E0150
:101C200084FF06C08F7E80935E0182E00E9472096D
:101C300080915E0185FF06C08F7D80935E0180E20A
:101C40000E9472090E94700D0895109232078091CF
:101C50008C01813039F58091CB0787FF23C0EAEEF4
:101C6000F1E08EE1DF011D928A95E9F790E080E0D6
:101C70000E94FE0590E080E00E94D9051092C20704
:101C80000E94700D86E0E9EBF7E0DF011D928A9576
:101C9000E9F71092B30710920B071092B4070E9455
:101CA00039060895E2EEF1E086E0DCCFAAE2B0E08A
:101CB000ECE5FEE00C94642B8FED97E02091F100B1
:101CC000FC012193CF01F7E0873E9F07B9F7809190
:101CD000E007833009F470C0B8F4813009F447C0DC
:101CE000823009F4B5C08091E80083FF89C28091F9
:101CF000DF079091E0079A3008F082C2E92FF0E008
:101D0000E95FF34D0C944F2B8A3009F490C08B306F
:101D100009F46FC0893039F78091DF07813219F7F4
:101D20008091E3079091E4070297E8F68091E8003C
:101D3000877F8093E8008091E80082FF38C090910F
:101D4000F3008091F200029731F48091F10081302C
:101D500011F0863021F48091F10080938B01809105
:101D6000E8008B778093E8000E945004BCCF8091FC
:101D7000DF07813A09F0B7CF8091E800877F809331
:101D8000E8008091E3079091E407892B61F468E013
:101D900083ED97E070E00E94FC048091E8008B776F
:101DA0008093E800A0CF60E090E080E0F3CF8091E6
:101DB000DD078111C0CF97CF8091DF07813A09F00D
:101DC00092CF8091E3079091E407892B09F08BCFA4
:101DD0008091E800877F8093E8008091E80080FF91
:101DE000FCCF80918C018093F1008091E8008E7788
:101DF000B9CF8091DF07813209F075CF8091E30779
:101E00009091E407892B09F06ECF8091E800877FDD
:101E10008093E8000E94500481E09091E1079111C5
:101E200001C080E080938C010E94250E5CCF8091E0
:101E3000DF07813209F057CF8091E800877F8093D8
:101E4000E8000E9450048091E20780938A014BCF02
:101E50008091DF07813A09F046CF8091E800877FC3
:101E60008093E8008091E80080FFFCCF80918A0198
:101E7000BACF803899F0823809F0C2C18091E30767
:101E80008F70873008F0BCC18093E9008091EB002F
:101E900085FB882780F91092E90006C08091DB0756
:101EA0009091DC07911182609091E800977F909368
:101EB000E8008093F1001092F1008091E8008E77A5
:101EC0009BC1882309F489C1823009F099C18091AE
:101ED000E10781118CC18091E3078F702FEF280FEC
:101EE000263008F08DC18093E9002091EB0020FF9F
:101EF0007EC1933031F48091EB0080628093EB00DF
:101F000076C19091EB0090619093EB0021E030E07E
:101F100001C0220F8A95EAF72093EA001092EA00A6
:101F20008091EB008860EACF81116AC11091E107CE
:101F30001F778091E3008078812B8093E30080916C
:101F4000E800877F8093E8000E9450048091E800B9
:101F500080FFFCCF8091E30080688093E30082E003
:101F6000111183E08093DD074BC18058823008F067
:101F700047C18091E1079091E2078C3D23E09207F1
:101F8000A1F583E08A838AE289834FB7F894DE0162
:101F9000139620E03EE051E2E32FF0E0509357002B
:101FA000E49120FF03C0E295EF703F5FEF708E2F4A
:101FB00090E0EA30C0F0C7968D939D932F5F243157
:101FC00059F74FBF8091E800877F8093E8006AE26D
:101FD00070E0CE0101960E94FC048091E8008B77AE
:101FE0008093E8000DC1C096E7CF4091E307509180
:101FF000E407292F33272330310509F444C078F54D
:102000002130310509F46FC08BE390E0E6EAF6E099
:102010002230310509F0F4C02091E800277F209399
:10202000E8002091E5073091E6078217930708F44E
:102030009C0140E02115310509F064C0411162C0E6
:102040008091E80082FDC9CF8091DD07882329F2C5
:10205000853019F28091E80083FFF2CFBECF2132A4
:102060003105A9F12232310509F0CAC041155105E7
:1020700009F443C04130510509F0C2C086EB90E03D
:10208000ECEAF5E0C9CF992781309105C1F00097BE
:1020900059F0029709F0B4C0E3EFF6E0E4918E2F17
:1020A00090E0E3EFF6E007C0EBE1F7E0E4918E2F7C
:1020B00090E0EBE1F7E0009709F4A2C0ADCFE3E0D8
:1020C000F7E0E4918E2F90E0E3E0F7E0F4CF4115E4
:1020D000510571F04130510509F092C089E090E05E
:1020E000E1EDF6E099CF82E190E0E1EEF6E094CF09
:1020F00089E090E0E8EBF6E08FCF84E490E0E2E660
:10210000F6E08ACF8091DD07882309F466CF853019
:1021100009F463CF8091E80083FD5FCF8091E800F0
:1021200082FD8ECF8091E80080FF84CF9091F300F4
:102130008091F2002115310519F08830910550F099
:1021400041E0089709F040E08091E8008E778093A5
:10215000E80070CF44914093F1003196215031094D
:102160000196E8CF803809F04BC08091E800877F66
:102170008093E8008091DE078093F1009ECE81116C
:102180003FC01091E1071230D8F58091E800877FB9
:102190008093E8001093DE070E945004112311F091
:1021A00084E005C08091E30087FDFACF81E0809351
:1021B000DD0742E061EC81E00E946F0442E261ECE5
:1021C00082E00E946F048091DD07843021F081E07D
:1021D00080938D0115C082E0FBCF8091E1078130B3
:1021E00079F481E0933009F080E08093DC0710926D
:1021F000E9008091E800877F8093E8000E94500406
:102200008091E80083FF0AC08091E800877F809377
:10221000E8008091EB0080628093EB00AA96E3E0F7
:102220000C94802B0E94250E2FEF84E39CE021501C
:1022300080409040E1F700C0000088E19AE00FB6CE
:10224000F894A895809360000FBE90936000FFCF34
:10225000CF93DF93C62F8430910558F4029788F00E
:10226000662361F010920A0281E090E00E94C70AA2
:102270000AC08430910551F00597E9F1DF91CF91C3
:1022800008956623D9F30E94C20AF8CF662339F075
:102290000E946B059093090280930802EFCFC091D2
:1022A0000802D09109020E946B058C1B9D0B883C93
:1022B000910510F40E94121110920A0280E00E940F
:1022C000ED0C0E945E0D83E190E00E94A82B6093CC
:1022D000EB067093EC068093ED069093EE0661702A
:1022E0006093EA068091CC0760FB80F960FB81F97E
:1022F0008093CC07DFCF80910A02823009F4BECFF1
:102300008091AE079091AF070E94CE0B823078F09B
:102310008A3009F0B3CFC111B1CF8091B10790914C
:10232000B20792FDABCF8AE00E945B0AA7CFCC2315
:1023300009F4A4CF8AE00E94840AA0CF882321F068
:102340000E9464090E94700D0895809137078823C8
:1023500029F082E20E949E11109237070895882387
:1023600039F09091C207982B9093C2070E94700D8C
:102370000895882321F00E946B090E94700D089532
:10238000882321F00E9472090E94700D089588230D
:1023900009F456C0823879F40E94300681FF50C09B
:1023A00089E30E94A5050E94700D89E30E947A05C9
:1023B0000E94700D0895833859F40E94300680FF02
:1023C0003FC083E50E94A5050E94700D83E5EECF16
:1023D000843859F40E94300682FF32C087E40E949C
:1023E000A5050E94700D87E4E1CF9CEF980F913A0C
:1023F000E8F290E2980F983050F4877091E001C0B5
:10240000990F8A95EAF7892F0E946B09D1CF9BE536
:10241000980F933028F490E080E00E94FE05089524
:1024200098E5980F9B3128F490E080E00E94D90550
:10243000089593E3980F933118F460E00E94F60A30
:102440000895CF93DF93EC010E94C711CE010E9443
:10245000220C9E01205E31092830310510F0CD2B71
:1024600029F40E94B911DF91CF9108950E949E1125
:10247000FACFCF93C82F8823C9F08238C9F40E94BD
:10248000300681FD13C089E30E94A5050E94700DEE
:102490002FEF87EE93E0215080409040E1F700C09D
:1024A000000089E30E947A050E94700DCF91089583
:1024B0008338A1F40E94300680FDF8CF83E50E94A6
:1024C000A5050E94700D2FEF81EE94E02150804011
:1024D0009040E1F700C0000083E5E4CF8438A1F428
:1024E0000E94300682FDE2CF87E40E94A5050E948B
:1024F000700D2FEF81EE94E0215080409040E1F785
:1025000000C0000087E4CECF8CEF8C0F813A88F5B5
:1025100080918C01813001F58091CB0787FF1CC031
:10252000EC2FE695E695E695F0E0E851FE4F8281C6
:1025300090E04C2F477021E030E002C0220F331FA3
:102540004A95E2F782239323892B79F08C2F0E94FE
:102550007A050E94700D09C0E2EEF1E08191C81782
:10256000A9F321E0E83EF207C9F78C2F0E94A505E8
:102570009BCF80E28C0F883048F4C77081E001C0A7
:10258000880FCA95EAF70E9472098ECFEBE5EC0F2F
:10259000E33040F4F0E0EC56FE4F808190E00E9482
:1025A000FE0584CFE8E5EC0FEB3150F4F0E0EE0FE0
:1025B000FF1FE956FE4F808191810E94D90576CF99
:1025C00083E38C0F833108F071CF61E08C2F0E9480
:1025D000F60A6CCF1F93CF93DF93182FEB010E9465
:1025E0003912209739F4812F0E94C711DF91CF91C2
:1025F0001F9108958FE99FE00197F1F700C0000057
:102600002197EFCF70E060E0893311F460E570E06E
:102610000E94EA120895B0E0A0E0E1E1F3E10C9439
:102620005F2B6B01C42FD22FFC0185818823A9F079
:102630004093C1070E946B059093C0078093BF072A
:10264000C77081E001C0880FCA95EAF70E94C011E7
:10265000CDB7DEB7E8E00C947B2B1091C1071413C3
:1026600039C0E090BF07F090C0070E946B058E193B
:102670009F097C01C6010E94AF03E816F90650F5D8
:10268000C0E2CD0F1D17C1F080E2810F883048F401
:10269000177081E0012E01C0880F0A94EAF70E94AA
:1026A000B911C83048F481E09D2F977001C0880FA0
:1026B0009A95EAF70E94C011802F0E940213C83039
:1026C00038F6D77081E001C0880FDA95EAF70E94EA
:1026D000B911BECFC77081E001C0880FCA95EAF773
:1026E000F6CFB0E0A0E0E7E7F3E10C94602BE82F31
:1026F000F0E0E45DFA4FD490282F26952695269594
:1027000030E0F901E45EFA4F0491877010E0082E82
:1027100002C0159507950A94E2F701701127F90197
:10272000E45FFA4FE490F12C082E02C0F594E79490
:102730000A94E2F791E0E922FF24F901E450FB4F0B
:10274000C491D0E002C0D595C7958A95E2F7C170D3
:10275000DD270115110519F081EE0E943912E114EF
:10276000F10419F086EE0E94391270E060E08D2DC0
:102770000E94EA12E114F10419F086EE0E94C711DA
:102780000115110519F081EE0E94C711CD2B19F02A
:102790008CE20E940213CDB7DEB7E7E00C947C2BED
:1027A00090910D07923071F48A3050F490E00996C0
:1027B0006AE070E00E943B2B875A0E940213089542
:1027C0008650FBCF96EF980F963020F0805D0E94E8
:1027D00071130895895AFBCF8F929F92AF92BF9247
:1027E000EF92FF920F931F93CF93DF934B015C0106
:1027F000D0910D078CE1E82EF12C07E010E021E0EC
:10280000D501C4010E2C04C0B695A7959795879560
:102810000A94D2F7C82FCF70222339F0D43051F464
:10282000CA3040F080E00E94D0138C2F0E94D01359
:1028300020E005C0C111F9CF04301105B4F30150F7
:10284000110984E0E81AF1080F3F1007C9F6DF917B
:10285000CF911F910F91FF90EF90BF90AF909F90FD
:102860008F900895CF93DF93EC010E94220C9E017C
:10287000205E31092830310510F0209741F40E9484
:10288000C0118C2F0E943912DF91CF9108950E94C0
:10289000AF11F7CFB0E0A0E0E0E5F4E10C94602BDD
:1028A0008C01EB0180915E0182FF82C0E0903007D5
:1028B000F0903107E016F10621F00115110509F03D
:1028C00077C080915E018B7F80935E0181FD69C03E
:1028D00080912E0790912F079E01281B390B81E0D4
:1028E000283C310508F480E08170D82E80915E018B
:1028F000D0FA81F980935E0187011127F80184E005
:10290000F695E7958A95E1F7EE0FFF1FE25FF84F26
:1029100020813181A7014F70552781E090E002C0EE
:10292000880F991F4A95E2F7DD20E9F1822B932B5E
:10293000918380838091320781FF08C080915E017E
:10294000806180935E0182E00E946B098091320772
:1029500085FF08C080915E01806280935E0180E205
:102960000E946B09DD2029F08091C207826080936C
:10297000C207C70190528115904308F47801C7013E
:102980000E94321480913007909131079C0130529F
:102990002115304308F499270E9421120E94020E4B
:1029A00017C081E0A1CF8095909582239323C0CF5B
:1029B000C801905281159043A0F4C80199270E9444
:1029C000211280913007909131070817190731F3D0
:1029D000D0932F07C0932E07CDB7DEB7E7E00C9456
:1029E0007C2BC801ECCF0F931F93CF93DF938C0107
:1029F000EB010E943214209741F4C8010E94211279
:102A0000DF91CF911F910F9108958FE99FE001977A
:102A1000F1F700C000002197EECFFC0182818130E8
:102A200019F0823019F108958091EA06882371F037
:102A300081EE0E94391283EE0E94391281E20E94D7
:102A4000021383EE0E94C71181EE0DC083EE0E9437
:102A5000391281EE0E94391286E10E94021381EE42
:102A60000E94C71183EE0E94C71108958091EA0663
:102A7000882341F081EE0E94391283EE0E943912C0
:102A800080E2DDCF86E40E9402130895CF93DF93A6
:102A9000EC018091EA068823F1F083EE0E9439125E
:102AA0008A81823031F481EE0E94391282EE0E94D6
:102AB000391289E10E94021383EE0E94C7118A81B4
:102AC000823031F482EE0E94C71181EE0E94C7115C
:102AD000DF91CF91089580EE0E9439128A81823071
:102AE00019F481EE0E94391289E10E9402138A8151
:102AF000823019F481EE0E94C71180EEE7CFA8E082
:102B0000B0E0E5E8F5E10C94592B8E010F5F1F4F03
:102B100088E0F80111928A95E9F79DECE92E91E0A1
:102B2000F92E680121ED622E21E0722E8824839413
:102B3000912CF70181917F018F3F09F446C0F894F1
:102B4000E82FE295EF70F0E021A18F70A40102C0A0
:102B5000440F551F8A95E2F7CA01922F982B91A333
:102B600092A18095892382A3789400C0E1EDF1E0E1
:102B700021E030E0B12CA12C41914F3F09F44CC031
:102B8000A42FA295AF70B0E090968C9190E04F701A
:102B900002C0959587954A95E2F780FD3DC0C90131
:102BA000A82AB92A220F331F51E0ED3DF50721F77E
:102BB000F701319780818F3F11F00E94FB0680EA78
:102BC0008A95F1F7F601B182A082F2E0CF0ED11C16
:102BD0006E147F0409F0ADCF48E050E0B80180EEFC
:102BE00096E00E94F82B892BE1F088E0F801A0EE36
:102BF000B6E001900D928A95E1F781E08093DF06BF
:102C00000E946B059093DE068093DD0610E0812F15
:102C10002896EEE00C94752B90E080E0C1CF10E098
:102C200021C01091DF06112389F3E090DD06F090BA
:102C3000DE060E946B058E199F09059738F348E060
:102C400050E060EE76E08FEE96E00E94F82B892B44
:102C500031F388E0E0EEF6E0AFEEB6E001900D92E1
:102C60008A95E1F71092DF06D2CFB0E0A0E0EBE367
:102C7000F6E10C945E2B7C01DC0114968C91882388
:102C800009F497C061E0C7010E94F20BEC01F70163
:102C90008581882321F1E091C307F091C407309723
:102CA000F1F0CE17DF07D9F0FF27E530F10508F086
:102CB00050C074E0EE0FFF1F7A95E1F7E25FFE4F20
:102CC000858184608583D183C083CF010E94DB0D21
:102CD0001092C20761E0C7010E94F20BEC018091E3
:102CE0008B06811181C0D70115968C9181110AC084
:102CF000C435BCE7DB0709F461C070F5C335FCE7F8
:102D0000DF07D1F1C5343EE7D30709F46CC108F001
:102D1000DCC0C2349EE7D90708F0BDC0C034AEE7BE
:102D2000DA0708F02FC1CC31B1E0DB0709F411C19B
:102D3000C337BCE7DB0709F0F0C1F70185818823C1
:102D400041F180913707882309F4C0C10E94A51181
:102D500020C0F0E0E0E0B4CFC6352CE7D207D1F1D7
:102D6000C7353CE7D30771F660910001709101010E
:102D70004FEF82E896E035C00E94250E0E94C20AFD
:102D80008BE092E0909332088093310881E0809349
:102D90008B068091B007877061F0D70115968C91F2
:102DA000882339F08091CC0782FF03C082E00E9423
:102DB0006D0ACDB7DEB7E9E00C947A2B0E94250EA0
:102DC0000E94C20A82E896E090933208809331080C
:102DD00082E0DDCF609102017091030141E08BE060
:102DE00092E00E94F81FD5CF9E0123553C47233027
:102DF0003105C0F591E0C535DC4709F490E0F701F5
:102E00002581291731F2813029F08230B9F01092F2
:102E10008B06BFCF8091310890913208F2E08B3061
:102E20009F0729F0FC0139972581211105C0909356
:102E3000030180930201EBCFCF01F0CF80913108E5
:102E40009091320826E08238920729F0FC013996E9
:102E50002581211105C09093010180930001D7CFF6
:102E6000CF01F0CF813061F0823009F04BCF60911B
:102E700002017091030197014FEF82E896E008C0CC
:102E80006091000170910101970141E08BE092E0B7
:102E90000E94BC0337CFF7019581C434FEE7DF07FA
:102EA00008F095C0992309F474CF8091EA0688232D
:102EB00009F484C083EE0E94391280E3C234DE47F5
:102EC00009F48FE20E9402135BC0C9342EE7D207D7
:102ED00009F4B7C0B8F4D70115968C91C734BEE792
:102EE000DB0709F49DC008F48DC0882309F451CF95
:102EF0008091EA06882309F49FC083EE0E9439126C
:102F00008CE2E0CFCA34FEE7DF0709F4CFC0C13559
:102F10002EE7D20708F00CCFF7018581882309F44A
:102F200038CF82EE0E940213CE34FEE7DF0709F4A9
:102F3000EAC008F0CEC0CC343EE7D30709F4D6C0CF
:102F4000CD34DE4709F4DAC08AE10E94021381E140
:102F500039C0D70115968C91882309F4F3C080916C
:102F6000EA06882309F4EEC083EE0E94391281EE4E
:102F70000E9439128DE10E94021381EE0E94C71156
:102F800083EE19C0F7018581882309F402CF80EE12
:102F90000E943912C034FEE7DF0719F481EE0E9467
:102FA00039128BE20E940213C034DE4719F481EE1D
:102FB0000E94C71180EE0E94C711EBCEC234DE47DB
:102FC00021F087EB0E940213E4CE86EBFBCF8091C9
:102FD000EA06992321F0811129C08BED1AC08111D5
:102FE00029C08BEDE8CF8091EA06D70115969C9118
:102FF000992321F081110CC08AED0BC081110EC004
:103000008AEDD9CF9091EA06882331F09111F4CF5F
:1030100089ED0E943912BDCE9111F2CF89EDCBCF4F
:103020009091EA06882321F09111D7CF8CEDF1CF52
:103030009111D7CF8CEDBFCF83EE0E94391286E17C
:1030400041CFF7018581882309F4A3CE8091DA0668
:1030500090913207892B827211F18091EA068823C0
:1030600071F082EE0E94391281EE0E9439128DE2D7
:103070000E94021381EE0E94C71182EE9CCF82EE65
:103080000E94391282E60E94021389E50E9402130F
:103090008DE50E94021389E50E940213EECF70E0D5
:1030A00060E08DE292E00E94F31473CED701159692
:1030B0008C91882309F46DCE8091DA0690913207C5
:1030C000892B827209F43DCE89E37CCF0E944609A8
:1030D00060CECF349EE7D907D9F0C035DE4709F07E
:1030E00033CF8BE00E94021386E26CCF8AE10E940C
:1030F000021389E00E94021389E064CF8BE00E94F2
:10310000021383E25FCF8BE00E94021382E25ACF68
:103110008BE00E94021387E255CFC23AF2E5DF0747
:1031200009F48AC008F070C0CE0190528115904217
:1031300008F472C0C13ED10509F47EC0C53ED10578
:1031400009F467C0809137078111A3C0CE0197555C
:103150008F3F910511F008F03FC0FE01FF27E530D9
:10316000F1050CF016CE54E0EE0FFF1F5A95E1F773
:103170008F01025F1E4FD70115968C91ED5EFE4FB9
:10318000908180FB90F99083882309F428C10E94E4
:103190006B059093010780930007F80182818F5F90
:1031A00082838091C20790913207892B838380911B
:1031B000DA0684834681578166857785C8010E9437
:1031C0003306D80115968C9181FF06C190E080E00E
:1031D0009093C3078093C407F7018581882309F47E
:1031E0002BC1C433FCE7DF0709F4A7C108F014C101
:1031F000C2333CE7D30709F41CC1C3338CE7D807BB
:1032000009F01AC181E016C1C23B82E5D80709F076
:1032100091CF25EE30E012C0D70116968C91807FB9
:1032200009F088CF8D2F99278F71992782309105CA
:1032300019F0429771F37ECF21EE30E027703327EB
:1032400081E090E001C0880F2A95EAF720918C0672
:1032500030913707332359F0F7013581332321F0BB
:10326000822B80938C0695CD80958223FACF322FC6
:10327000382309F46BCF982F9095292320938C063F
:103280000E946B09D70115968C91882309F481CD92
:103290005DCF009132071091DA060E946B058857C6
:1032A0009C4E9093340780933307F70185818823E0
:1032B00009F44CCF102B1D7909F066C0C034F2E53B
:1032C000DF07B8F5C11522E5D20708F03FCFC115D9
:1032D00030E4D30758F4C11580E2D80708F048C09D
:1032E000C63ED10509F432CF8E010BC0C11590E561
:1032F000D907D0F7F7018681807F09F427CF8E01A7
:10330000112780915E0180FD49C08FEF0E94640902
:103310000832110508F044C00E31110508F047C00D
:103320000430110588F18091C20782608093C20742
:103330003EC0C03EA2E5DA07A0F4C03CB2E5DB0720
:1033400008F004CFC036E2E5DE0770F2C03AF2E5DD
:10335000DF0708F4FBCEC43B22E5D20709F4F6CE22
:10336000C3CFCE0187579C47029708F0BDCFEECE62
:10337000D70116968C91807F11F68D2F8F71843135
:1033800009F4E4CE863139F00E94A51180918C06B3
:103390000E947209DBCE06EE12E1B3CF8DEFB6CFFD
:1033A0000D32110521F080F40A32110569F7809180
:1033B0008C06882331F08091C20792E089278093A0
:1033C000C2070E94700DC2CE0C34110581F30D327C
:1033D000F2E01F07C9F6EBCF9C2F8D2FF9CEF80135
:1033E0004485558566857785C8010E943306D801D6
:1033F00015968C9181FFF0CEC8010E94C20D80917C
:10340000C3079091C407C817D90709F0E5CE1092F9
:10341000C4071092C307E0CEC6339CE7D90709F46E
:1034200090C008F48CC0C733BCE7DB0729F485E003
:1034300001C080E00E94E50CF7018581882309F432
:1034400041C0D7FF3FC00E94300680938E06909106
:103450000D07913029F481FF03C089E30E94021314
:103460008091320780938D06109232071092C20726
:1034700080910D07823009F487C008F064C088236A
:1034800009F477C0813009F478C0AFE3BCE9119743
:10349000F1F700C00000BE017F7790E080E00E945D
:1034A000EC1380910D07823009F4A2C008F085C0AA
:1034B000882309F48EC0813009F48FC080918D0675
:1034C000809332070E946B058C01F7018581882368
:1034D00009F4A8C080915E0182FF07C042E057E076
:1034E000B80190E080E00E944A14C431FCE7DF0795
:1034F00009F494C0C5312CE7D20709F484C0C33164
:103500003CE7D30729F480915E01816080935E01DE
:10351000CE0190528115904308F092C0109231076D
:1035200010923007FE01E851FC47E730F10508F042
:1035300036C1EF5EF34D0C944F2B82E07BCF83E0DE
:1035400079CF84E077CF843099F1853009F09DCF31
:1035500070E060E08BE191E00E94F31470E060E0C5
:1035600085E290E00E94F31470E060E088E290E071
:1035700008C082EE0E94391288CF70E060E088E1D6
:1035800093E00E94F31481CF80918E0680FD03C0EA
:1035900083E50E94021382EE0E9439128FE39CE9B8
:1035A0000197F1F700C0000087E50E9402136DCF7C
:1035B00086EE0E94021388E1F8CF843011F1853045
:1035C00009F07CCF70E060E088E290E00E94F314A4
:1035D00075CF82EE0E94C71171CF8CE20E94021358
:1035E00080918E0681FF6ACF89E30E94021366CF25
:1035F00082EE0E94C71180918E0680FD5FCF83E529
:10360000F4CF88E2F2CF90915E01892F8E7F90FFF8
:10361000816080935E010E94020E7ACF80915E01EC
:103620008E7FF7CF80915E018F7EC13ED10531F054
:10363000C53ED105C1F480915E018F7D80935E010E
:1036400080915E0180FF6ECFF7018581CB32D1057D
:10365000C9F078F49E012E5131092A30310590F0DD
:1036600081115CCF5FCFCE0190528115904340F71E
:1036700059CFCD32D105A0F3C933D10518F0C436E6
:10368000D10571F7882309F457C08091DA0690912B
:103690003207982B292F2D7F61F11092310710925C
:1036A0003007FE0134E0F695E7953A95E1F7EE0F25
:1036B000FF1FE25FF84F9E012F70332781E090E0FB
:1036C00002C0880F991F2A95E2F780959095208176
:1036D00031818223932391838083CE010E9432140F
:1036E0008091DA068D7F0E945A0982E00E946D0A5D
:1036F00050CB29E0F701A2E0B7E001900D922A95A6
:10370000E1F7109205071092040720915E0191FBEA
:1037100021F920935E018D7F0E945A09D0933107D1
:10372000C093300710932F0700932E0780915E01FE
:10373000846080935E01D9CFA701B801CE010E94B9
:103740004A1427CB06E221EE41EE6AE17CE7C7018D
:103750000E940B131ECB07E225EE45EE6BE17CE7E2
:10376000F6CF06E221EE40EE68E17CE7F0CF07E21B
:1037700025EE44EE69E17CE7EACF06E221EE42EE77
:103780006CE17CE7E4CF07E225EE46EE6DE17CE7F5
:10379000DECF08E221E045EE6EE17CE7D8CFD7012D
:1037A00015964C91442309F416C41092C107CE011A
:1037B0009057839708F0F9C384E090E00E94AE2B05
:1037C0009093CC078093CB07FE01E150F047E232A3
:1037D000F10520F4E85EF34D0C944F2B8091CB075C
:1037E00081608093CB0795C08091CC0788608093DF
:1037F000CC078FC08091CB078260F3CF8091CB073D
:103800008460EFCF8091CB078860EBCF8091CC07AD
:103810008160EDCF8091CC078260E9CF8091CB07AA
:103820008061DFCF8091CB078062DBCF8091CB07B7
:103830008064D7CF0E94250E8091CB078068D1CFBE
:103840008091CB078C60CDCF8091CC078360CFCFA8
:103850008091CB078E7FC5CF8091CC07877FC7CF64
:103860008091CB078D7FBDCF8091CB078B7FB9CF68
:103870008091CB07877FB5CF8091CC078E7FB7CF64
:103880008091CC078D7FB3CF8091CB078F7EA9CF5E
:103890008091CB078F7DA5CF8091CB078F7BA1CF68
:1038A0000E94250E8091CB078F779BCF8091CB070D
:1038B000837F97CF8091CC078C7F99CF8091CB0766
:1038C00082FB992790F921E0922790FB82F990FBE7
:1038D00083F987CF8091CC07982F909591708E7F38
:1038E000892B90FB81F983CF9091CB07892F8F7B18
:1038F00096FF806476CF0E94250E9091CB07892F8A
:1039000097FB87F980586DCF61E08EE090E00E94D0
:10391000C42B6091CB077091CC0784E090E00E94AB
:10392000E22B0E94250E35CA60E0EFCF9091CB07C5
:10393000892F8F7E94FF806154CF9091CB07892F80
:103940008E7F90FF81604DCF9091CC07892F877F2C
:1039500093FF88604CCF85E338C385E346C3CE012F
:10396000805E9245809738F4411105C08C2F8F718D
:103970000E94ED0C0ECA8091AE079091AF07209186
:10398000B1073091B207BC01609570956223732333
:10399000672B31F0282339233093B2072093B107E6
:1039A000CB37BCE7DB0741F4442309F4F2C90E949A
:1039B000CE0B0E94940AEDC9C115E2E5DE07F0F4D2
:1039C000C115F0E5DF07E8F5C11520E4D20708F0DE
:1039D00055C0442309F46CC0C330BCE7DB0709F4CD
:1039E000C4C008F0A7C0C115FCE7DF0709F4B0C0E8
:1039F000C130DC4709F05CC00E941211C03232E5D0
:103A0000D30738F3C03482E5D80728F0CE01805CB4
:103A100092458097F0F68C2F8F7121E030E0082ED0
:103A200002C0220F331F0A94E2F76091B107709130
:103A3000B20726233723232B61F2442309F4A9C9B3
:103A4000B8CFCE0125E0969587952A95E1F78F703E
:103A500021E030E0082E02C0220F331F0A94E2F763
:103A60006091B1077091B20726233723232B09F405
:103A7000B0CF41119ECF10923207A9C2D70116963E
:103A80008C91807F09F0A5CF4111A6CF2D2F2F70EB
:103A900081E090E002C0880F991F2A95E2F72091FB
:103AA000B1073091B20782239323892B09F071C9A2
:103AB000F70187819085009709F46AC00E94220867
:103AC000D82FC92FF701C580B680B2949FE0B922E4
:103AD0008091B0078770F9F00C2DCC20E9F08C2F85
:103AE000807F803461F080E28D0F8830A0F08C2FD1
:103AF000807E803221F4D23070F0BB2061F0809162
:103B0000CC0782FF08C082E00E946D0A8091B00756
:103B1000877001E009F000E0DC2ED2948FE0D8221B
:103B2000FBE0FD1508F49FC0ED2DF0E0E65CF34DE1
:103B30000C944F2BCB353CE7D30741F1CC358CE7C8
:103B4000D807D1F0CA35DC4709F0B2CF81E01BC0FD
:103B50000E94250EAFEFB4E3ECE0A150B040E0408E
:103B6000E1F700C000000E945A056FEF7FEF90E080
:103B700080E00E94E22B40CF8091CC0782FB882717
:103B800080F991E089270E941C0D92CF80E0FBCF45
:103B90008581C081D181882369F0CE010E94AC0962
:103BA000182F682FCE010E94200ABE01812F0E948B
:103BB000030884CFCE010E94ED09182FF6CF1C2FE9
:103BC0001F70C07F11F01295107FCC20A9F0112337
:103BD00059F080E28D0F883010F0D11107C0812F8D
:103BE0000E9472090E94700D8D2F3BC08091C20708
:103BF000182B1093C207F6CF8D2F0E94C7111123E7
:103C000091F180E28D0F883010F0D11104C0812F26
:103C10000E946B0903C0812F0E9464090E94700DED
:103C200022C01C2F1F70C07FC03211F01295107F70
:103C3000DD2349F0D13009F458C0CC2009F464C028
:103C4000BB2049F1D1CF8091CC0782FD20C0CC2090
:103C5000C1F0112329F0812F0E9472090E94700D7A
:103C600080E00E9439122D2D2850330B243031056D
:103C700008F081C10E94230660E0C7010E94F20B98
:103C800098C880E00E94C711112369F3C0CFCC20EF
:103C900099F0B11004C0812F0E94C011E4CF21E03F
:103CA000B212E1CF8091DA06912F98231917D9F239
:103CB000182B1093DA06D7CFB110D5CF812F0E94E1
:103CC000B9119091DA06812F892329F0812F8095EF
:103CD00089238093DA0680919006912F982319F218
:103CE0001095182310939006BECFCC2029F035E014
:103CF0003B1508F4B8CFCFCF84E08B1508F4B3CFD1
:103D0000812F0E94B911AFCFBB20D1F3D93349F431
:103D10009FEFA7EEB3E09150A040B040E1F700C0A4
:103D200000008D2F0E94C7119ECF8C2F86958695FF
:103D3000837069F0813009F096CF8D2F9C2F93709E
:103D4000C11002C080E090E00E94D9058CCF8D2F79
:103D50009C2F9370C11002C080E090E00E94FE058D
:103D600082CF6C2D8D2F0E94F60A7DCF8C2F837011
:103D700009F03FC0C11077CF4D2F4295469547704F
:103D8000440F440F2D2F2F7030E0042E02C0220F5D
:103D9000331F0A94E2F790E080E0D4FF09C08FE07F
:103DA00090E002C0880F991F4A95E2F780959095A0
:103DB000C695C695C370C23099F078F44091E80674
:103DC0005091E906C13039F0822B932B842395233F
:103DD0000E94C70A48CF242B352B822B932BF8CF78
:103DE000822B932B2091E8063091E90682279327B6
:103DF000EFCF8695CC2011F08C2F8170882309F4A9
:103E000032CF4D2F429546954770440F440F2D2FCA
:103E10002F7030E0042E02C0220F331F0A94E2F705
:103E200090E080E0D4FF09C08FE090E002C0880FEE
:103E3000991F4A95E2F780959095C695C695C370EF
:103E4000C23099F078F44091AE075091AF07C1307D
:103E500039F0822B932B842395230E94560A03CF9B
:103E6000242B352B822B932BF8CF822B932B209155
:103E7000AE073091AF0782279327EFCFCF70CC20CA
:103E800029F08C2F0E94840A8D2F06CF8D2F0E943F
:103E9000B9118C2F0E945B0AE6CED23F71F160F41B
:103EA000D03FB9F0D13F81F0CC2009F454C0B1101B
:103EB0009BCE8C2F8F7125C0D33F31F1D43FA1F71A
:103EC0009091CC0792FD2EC08C2F8F71CC2011F3D6
:103ED00018C0CC2069F0E4E0EB1508F4C4CECF7133
:103EE00081E090E002C0880F991FCA95E2F7BFCF2A
:103EF000F5E0FB1508F4B7CEF2CF8C2F8F71C1100F
:103F0000C9CF0E94840AAFCECC2049F0CF7181E0A6
:103F100090E002C0880F991FCA95E2F79ECF0E94D9
:103F2000C20AA1CECC2061F08C2F8F7192FFE9CF15
:103F300098E0899F9001112423602093B007E1CF7E
:103F400081E00E946D0AA1E0AB1508F08CCE82E002
:103F50000E946D0A88CEBB2059F0D93309F0E1CE1A
:103F6000BFEFE7EEF3E0B150E040F040E1F7D7CE2D
:103F70008C2F8F718FCF002309F47ECE8091B007F4
:103F800080FD7ACED70115961C92869586958695EA
:103F90000E94840AC7010E9435168091B007869559
:103FA000869586950E945B0A67CEC631BCE7DB0723
:103FB00009F0D5CC809132078A7A91E009F490E03B
:103FC00090938F068111C7CC89E20E94A5050E94BB
:103FD000700D0C94C916C631ECE7DE0709F0BFCCB2
:103FE00080918F068111B9CC89E20E947A05EFCFCA
:103FF000B0E0A0E0EEEFFFE10C945F2BEC016B0171
:10400000042FE090AE07F090AF070E94250E0E94AB
:10401000C20A89E0080280011124CC15DD0551F4A3
:104020000E94250EC7010E94560ACDB7DEB7E8E010
:104030000C947B2BCE010E943516C00FD11FEDCF03
:10404000B0E0A0E0E6E2F0E20C94602B8091AF06D5
:10405000807F09F051C08091AE06882309F44CC0DE
:10406000E091300889E0D82E8091E7078E1709F497
:1040700043C00E2F10E0ED9DF0011124E851F84FE0
:1040800084818823F1F1D09EE001D19ED00D1124CE
:10409000FE01E851F84F91818091AA06981331C032
:1040A00090818091A90698132CC08581811129C027
:1040B000E280F3808091AB069091AC06E81AF90A91
:1040C00060E089EA96E00E94F20B0E94AF03E816D6
:1040D000F906B8F48091AF068F7080618093AF06C7
:1040E000C251D84F88818F708061888389EA96E0B9
:1040F0000E9435160E94A209CDB7DEB7E7E00C9406
:104100007C2BF8013196E770AFCFA8E1B0E0EBE887
:10411000F0E20C94562B8C0186E0F801DE015396F8
:1041200001900D928A95E1F7D80114963C9014976E
:1041300015966C9089EAA82E86E0B82E8091AD067F
:1041400081112AC0311003C0FF24F3941CC06620E3
:10415000F9F0C8010E94CC0AF82E8823C9F089E042
:10416000F801A9EAB6E001900D928A95E1F78091F5
:10417000AD06813031F48091A9069091AA060E9483
:10418000E0090E9420208F2D6896E1E10C94722BAB
:10419000C8010E943516D8CFF80140805180E280D6
:1041A000F38060E089EA96E00E94F20B6C01709067
:1041B000AE068091AB069091AC06772009F47BC1E6
:1041C0004701881A990A60E089EA96E00E94F20B9A
:1041D0000E94AF038816990608F012C1332009F433
:1041E000B3CF8091AF06382F307F2091AA06D80137
:1041F00011969C9111973111B1C0F62C29131EC054
:104200002091A9069C91291319C04091B0065091A4
:10421000B10617962D913C914217530779F461101E
:1042200096C08F7080618093AF0689EA96E00E9405
:1042300035168091AF06F8018683A5CF611087C03F
:10424000652D842D0E94E103E82E882309F452C0D5
:10425000F8E3CF16F3E4DF0691F048F5ADE0CA16B7
:10426000A2E3DA0661F0B8F4E9E0CE16E2E2DE0697
:1042700031F0F7E1CF16F2E2DF0609F084CF89EAE8
:1042800096E00E94351689E0E9EAF6E0DF011D922A
:104290008A95E9F778CF81E1C81682E3D80679F3E9
:1042A000ADE1CA16A3E4DA0609F06DCFE8CFB9E2B2
:1042B000CB16B6E4DB0619F360F4FCE2CF16F4E4A7
:1042C000DF06E9F28BE2C81685E4D80609F05BCF79
:1042D000D6CFA8E2CA16A8E4DA0689F2BCE4CB1667
:1042E000B9E4DB0661F2EAE2CE16E7E4DE0609F0A5
:1042F0004ACFC5CF4B8A5C8A8B899C890E94E00992
:10430000292F22952F70243058F49F70223088F086
:10431000992399F0F8019681907F79F4FE2C33CFA0
:104320002A5F2F70223068F0C8010E943516E72CF2
:10433000F5CF992311F0882389F3805E883070F3DC
:10434000F3CF803F58F3815F833070F7E7CF8091E0
:10435000AF0681608093AF06F12C15CF291321C0E1
:104360002091A9069C9129131CC04091B006509140
:10437000B10617962D913C9118974217530789F46F
:1043800061100FC016968C93C8010E94351689E003
:10439000F801A9EAB6E001900D928A95E1F7F72CB1
:1043A000F2CEC8010E94CC0A882309F4F1CE66201F
:1043B00009F4EECE8091AF068032B8F02091A906C4
:1043C0003091AA063B872A87FD86EC869091AD0640
:1043D0009E871F86888B8091B0069091B1069A8B3C
:1043E000898BCE010A960E94351689E0F801A9EA68
:1043F000B6E001900D928A95E1F70E942020A4CEAC
:104400008091AF06982F907F51F489EA96E00E9440
:10441000351689E0F50111928A95E9F79DCF332091
:1044200009F492CE2091AA06D80111969C91119779
:1044300029131DC02091A9069C91291318C04091F1
:10444000B0065091B10617962D913C9118974217DE
:10445000530769F461100BC016968C93C8010E9433
:10446000351689E0F50111928A95E9F798CFC801D0
:104470000E94CC0A882309F48BCE662009F488CEEA
:104480008091AF06803208F4B0CF2091A906309118
:10449000AA063A832983FC82EB829091AD069D8324
:1044A0001E828F838091B0069091B106998788878C
:1044B000CE01019698CFE81AF90A60E089EA96E001
:1044C0000E94F20B0E94AF03E816F90608F0A1CF94
:1044D000332009F439CEF62C662009F459CE909198
:1044E000AA06D80111968C911197981318C0909133
:1044F000A9068C91981313C02091B0063091B10693
:1045000017968D919C912817390749F489E0F80195
:10451000A9EAB6E001900D928A95E1F734CEC80180
:104520000E94CC0A811161CF8091AF068160809397
:10453000AF06C8010E94351626CEA2E1B0E0E3EA3C
:10454000F2E20C94632B0A871B872C873D874E87EA
:104550005F87688B798B8A8BCE010A960E948520B3
:1045600081110CC089E0FE013A96DE01119601909E
:104570000D928A95E1F78E8581110BC019E080912B
:1045800030089091E707891331C06296E4E00C94FB
:104590007F2B2091E70730E0C901019687709927AA
:1045A000409130084817190699F099E0929FD00180
:1045B000939FB00D1124A851B84FFE013196019080
:1045C0000D929A95E1F78093E7070E94A209D6CF52
:1045D0000E94250E1092E7071092300889E0E9EA60
:1045E000F6E0DF011D928A95E9F7C8CF819FC001EF
:1045F00011248851984F0E948520882331F28091A0
:10460000300890E001968770992780933008B7CFE3
:10461000EF92FF920F931F93CF93DF93809139070F
:10462000882361F0E09138078DE0F82E80913907FA
:10463000E81748F01092390710923807CDB7DEB767
:10464000E6E00C947D2BEE24E394EE0EE092380726
:10465000CE2FD0E0EF9DF0011124E65CF84F84816D
:104660008823F9F087819085892BE9F481859285EB
:104670008F3F9807C1F061E00E942811FC9EF00175
:10468000FD9EF00D1124E65CF84F148280913707EF
:104690008823A9F080915E0180FF11C08DEF0E94F8
:1046A0006409EE2DC3CF00811181228133814481C1
:1046B00055816681778180850E949D22DFCF8FEFB3
:1046C000EECF1092AD071092AC0710928901809145
:1046D000AB078093AA070E94E7060E94082308956B
:1046E000B0E0A0E0E6E7F3E20C94552BC091AA07F6
:1046F00097E0892E01E010E02DE0922E34E0232E89
:104700008091AB078C1309C00E9408230E94E70622
:10471000CDB7DEB7E2E10C94712BD0E0FE01EE0FD5
:10472000FF1FEE55F84F80819181B0E0A0E0863008
:10473000910538F4889ED001899EB00D1124A15AAC
:10474000BE4F14962C911497211152C03090390706
:104750004AE357E030E020E0412C231508F046C042
:10476000FA01C384D4846D907C9011976FEF7FEF32
:10477000512CA52CB12CF501EE0FFF1FE60DF71DF6
:10478000E590F490CE14DF0409F4B501E114F104CE
:1047900011F05394EECF6F3F760779F1F80102C024
:1047A000EE0FFF1F6A95E2F74E2AB801052C02C0F2
:1047B000660F771F0A94E2F76150710946161706D3
:1047C000D1F412964D915C911397929EF001939EB5
:1047D000F00D1124E65CF84F508747832482108245
:1047E000118292878187F1E01596FC930E94B406AE
:1047F0002196C37085CFFA0114822F5F3F4F435F2C
:104800005F4FABCFAEE1B0E0E8E0F4E20C94552BA3
:104810004B8B5C8B6D8B7E8B8F8B988F9111109255
:10482000C207188A198A1A8A86E0FE017396DE0189
:104830001A9601900D928A95E1F78E858823C9F02A
:1048400061E0CE010A960E94F20B61E0CE010A9669
:104850000E94F20B61E0CE010A960E94F20B8035B5
:104860002CE7920791F48F85882321F181E08093D2
:1048700089010A851B852C853D854E855F85688964
:1048800079898A890E949D22D1C081353CE79307AE
:1048900031F48F85882371F00E946123EACF82353D
:1048A0009C4741F48F85882329F0809189018111EB
:1048B000F3CFDCCF6A857B8582E00E9403083C0150
:1048C000FFE5EF2EF1E0FF2E512CD12CC12C8824D6
:1048D0008394912CB7E02B2ECE0101969A8F898F6D
:1048E00044244394F70140815181AA24AA94BA2C0C
:1048F00060E0262F30E0F901EE0FFF1FE40FF51FF7
:10490000859194916816790609F45901892B11F063
:104910006F5FEFCF10E0FFEFAF16BF0609F447C09F
:10492000F701448110918901812F411180E0182FF6
:104930001170F701358086819F85992309F4FDC0A8
:10494000112309F4FAC0311014C094010A2C01C0DB
:10495000220F0A94EAF7822B868380913507909183
:104960003607C29730F422E330E0309336072093C5
:104970003507C40102C0880F991F6A95E2F70197B5
:10498000F70126812817190691F4A090AC07B09082
:10499000AD07A114B10409F44DC00E946B058A193A
:1049A0009B09C39708F446C0F701448211E0512ADD
:1049B000FFEFCF1ADF0A27E0E20EF11C36E0C31644
:1049C000D10409F08FCF8F85882309F41AC15520AF
:1049D00009F417C10E946B059093AD078093AC0753
:1049E00080913907883010F591E0980F909339073E
:1049F00099E0FE013A96DE01119601900D929A958A
:104A0000E1F74DE0849FC0011124865C984F29E0B6
:104A1000FE013196DC0101900D922A95E1F72FEF0E
:104A20003FEFFC0132872187748663866E96E2E150
:104A30000C94712B8091AA076091AB07982FF0E03E
:104A4000E0E0861314C09093AA07EE15FF0509F461
:104A5000AECF90E0FC01EE0FFF1FEE55F84FD18274
:104A6000C0820196837099278093AB07A0CFA82EB0
:104A7000B12CF501EE0FFF1FEE55F84F208131816B
:104A8000B0E0A0E02630310538F4229ED001239E0C
:104A9000B00D1124A15ABE4F2D913C9111973E8F1C
:104AA0002D8F00E070E0312CE32DF0E0EE0FFF1FC2
:104AB0002D8D3E8DE20FF31F259134912115310587
:104AC000E1F0F7010190F081E02DFC8FEB8F70E0B9
:104AD00005C02417350709F4012F7F5FE72FF0E0A9
:104AE000EE0FFF1F4B8D5C8DE40FF51F4591549128
:104AF0004115510571F73394D7CF002329F0731571
:104B000030F0FD01109721F4F0E0E0E010C0F70173
:104B10004482EE16FF0621F49093AA07102F47CF88
:104B2000891305C0AE17BF0711F49F5F93709501FD
:104B30002F5F3F4F822F837084CF90E031101FC0D2
:104B4000940102C0220F331F6A95E2F72150310908
:104B50002817390731F4442309F451C0C6010E94D3
:104B6000B406C4010A2C01C0880F0A94EAF7982FF2
:104B70009095F701868189238683132D18CFAC0188
:104B80000A2C02C0559547950A94E2F7BA01617064
:104B900077279C012150310982239323892B59F5D2
:104BA000672B49F1F70182819381892BF9F0E98D17
:104BB000FA8D222D11922A95E9F70E946B05282F74
:104BC0008B839C8334E03D83F70182819381782F2E
:104BD0008887998709811A813C8144E05E816F81D1
:104BE000892F0E949D22F7011582BBCF60E0C6018C
:104BF0000E942811F8CFF42FF1703F2EB2CF312E42
:104C0000B0CF9091AA078091AB07981739F00E9416
:104C10007023F1E05F1609F409CF2BCE0E94082320
:104C20001092AD071092AC070E94E706F2CFA6E003
:104C3000B0E0EDE1F6E20C94632B0E946B058C0171
:104C40008091DB069091DC068017910781F0198234
:104C50001A820E946B05682F49815A81792F80E062
:104C600090E00E9402241093DC060093DB06269657
:104C7000E4E00C947F2B1F920F920FB60F92112439
:104C80002F933F934F935F936F937F938F939F9354
:104C9000AF93BF93CF93DF93EF93FF93D091E9004E
:104CA000DF708091EC00C82FC17080FDC0E81092C9
:104CB000E9008091F000877F8093F00078940E9453
:104CC000560E1092E9008091F00088608093F00009
:104CD000CD2BCF70C093E900FF91EF91DF91CF9181
:104CE000BF91AF919F918F917F916F915F914F9104
:104CF0003F912F910F900FBE0F901F9018951F920C
:104D00000F920FB60F9211242F933F934F935F93FF
:104D10006F937F938F939F93AF93BF93EF93FF9383
:104D20008091E10082FF09C08091E20082FF05C00E
:104D30008091E1008B7F8093E1008091DA0080FF19
:104D400024C08091D80080FF20C08091DA008E7F3F
:104D50008093DA008091D90080FFAAC080E189BDEC
:104D600082E189BD09B400FEFDCF81E08093DD07BB
:104D70008091D207811109C00E9400040E94A10401
:104D80008091E20084608093E2008091E10080FFE6
:104D90001AC08091E20080FF16C08091E2008E7FF1
:104DA0008093E2008091E20080618093E200809134
:104DB000D80080628093D80019BC85E08093DD071D
:104DC00083E080938D018091E10084FF30C0809169
:104DD000E20084FF2CC080E189BD82E189BD99B5E4
:104DE000892F817090FFFBCF9091D8009F7D909389
:104DF000D8009091E1009F7E9093E1009091E200B5
:104E00009F7E9093E2009091E20091609093E20087
:104E10009091DE07992309F451C094E09093DD0747
:104E20009091DD07943009F482E080938D018091A8
:104E3000E10083FF2CC08091E20083FF28C08091B5
:104E4000E100877F8093E10082E08093DD0710928C
:104E5000DE078091E1008E7F8093E1008091E20087
:104E60008E7F8093E2008091E20080618093E20077
:104E700042E060E080E00E946F048091F000886072
:104E80008093F00081E080938D0180938C01FF91ED
:104E9000EF91BF91AF919F918F917F916F915F91B2
:104EA0004F913F912F910F900FBE0F901F9018952B
:104EB00019BC1092DD071092D20767CF9091E300E2
:104EC00097FD02C0982FAACF93E0A8CF78941F92A5
:104ED0001FB61F9211248F939F93AF93BF9380911E
:104EE000CE079091CF07A091D007B091D10701963E
:104EF000A11DB11D8093CE079093CF07A093D0073B
:104F0000B093D107BF91AF919F918F911F901FBE1A
:104F10001F9018951F921FB61F9211248F939F9375
:104F2000AF93BF938091CD07811113C08091CE07BD
:104F30009091CF07A091D007B091D1074196A11DC4
:104F4000B11D8093CE079093CF07A093D007B09365
:104F5000D107BF91AF919F918F911F901FBE1F905E
:104F60001895CDB7DEB72E970FB6F894DEBF0FBEFB
:104F7000CDBF85B7806885BF85B7806885BF84B79A
:104F8000877F84BF0FB6F894A895809160008861F0
:104F900080936000109260000FBE80E890E00FB632
:104FA000F89480936100909361000FBE81E080933C
:104FB0008D0189EF96E09093DF018093DE010E94DE
:104FC00000040E94A1048091E20084608093E200CA
:104FD00078948091DD078823A1F01091E9001F707B
:104FE0009091EC00892F817090FD80E8182B109231
:104FF000E9008091E80083FD0E94560E1F70109317
:10500000E90082E084BD93E095BD9AEF97BD80935F
:105010006E0086EF0E94FB0685EF0E94FB0684EF80
:105020000E94FB0681EF0E94FB0601ED11E06DED91
:10503000E62E61E0F62ED8018D918D018F3F11F0A3
:105040000E94FB06E016F106B1F788E0EFEEF6E00D
:10505000DF01282F1D922A95E9F7E0EEF6E0DF0147
:105060001D928A95E9F790E080E00E94AE2B853E84
:105070009E4F09F45CC065EE7EEF90E080E00E94F8
:10508000E22B60E082E090E00E94C42B81E090E09F
:105090009093E9068093E80661E083E090E00E9447
:1050A000C42B60E074E184E090E00E94E22B60E0B9
:1050B00086E090E00E94C42B60E087E090E00E94D0
:1050C000C42B40E050E0BA0188E090E00E94D62B6B
:1050D00060E083E290E00E94C42B60E08CE090E00E
:1050E0000E94C42B60E08DE090E00E94C42B1982E6
:1050F0001A821B821C821D821E821F82188648E033
:1051000050E067E170E0CE0101960E94B42B40E0D0
:1051100050E0BA018FE190E00E94D62B40E050E0D1
:10512000BA018FE090E00E94D62B0E945E0D82E0D3
:1051300090E00E94A02B8093F70684E090E00E940C
:10514000AE2B9093CC078093CB070E947F15EFEF97
:10515000F6E721E0E150F0402040E1F700C0000018
:105160000E947F158091EF0680FF08C06FEF7FEFF0
:1051700090E080E00E94E22B0E945A0583E090E0DC
:105180000E94A02B90E00E94C70A8CE090E00E9451
:10519000A02B80930D0783E190E00E94A82B6093E1
:1051A000EB067093EC068093ED069093EE0661702B
:1051B0006093EA068091CC0760FB80F960FB81F97F
:1051C0008093CC0784E091E09093C8078093C70751
:1051D00058E1652E712C4424439422242394809119
:1051E000DD07853049F48091DD07853009F463C01F
:1051F0000E94250E0E9423060E947F1538EFA32EE1
:1052000036E0B32E4FEE842E46E0942ED401F50105
:10521000219131918D919D9147E0E030F40709F49F
:105220007EC028173907A1F3512CD4010D911D918F
:105230004D01F501C190D1905F01C016D10659F121
:10524000C026D126312CEE24E394F12CC6018E2108
:105250009F21892BB1F039865A860E946B059C8765
:105260008B872D8691E098012E213F21232B09F475
:1052700090E09E8749855A856B857C858D850E9447
:1052800002243394EE0CFF1CFCE03F12DFCFF5014B
:10529000329711830083539424E05212C6CF8FB704
:1052A000F8944091CE075091CF076091D00770914C
:1052B000D1078FBF3AC08091DD07843011F1109281
:1052C000CD0740E40FB6F894A895609260000FBE39
:1052D0004093600083B7817F846083BF83B7816020
:1052E00083BF7894889583B78E7F83BF0FB6F89479
:1052F000A8958091600088618093600010926000A2
:105300000FBE0E947F15EFEEF6E081919191892BFF
:1053100009F087C156E0E73FF507B9F764CF2817D2
:10532000390709F081CF0E9417260091C307109119
:10533000C4070115110519F1E0900007F09001076D
:105340000E946B058E199F097C01C8010E94AF0362
:105350008E159F05A0F4112790E080E0053011051F
:1053600040F484E0000F111F8A95E1F7C801825FC5
:105370009E4FDC0115962C9122FF0E94DB0D80913F
:105380008901882319F10091AC071091AD0701152F
:105390001105E1F00E946B05801B910B20913507F0
:1053A000309136072817390788F49091AA07809121
:1053B000AB07981709F420C10E947023109236079A
:1053C000109235071092AD071092AC0780915E01E4
:1053D00082FF15C00E946B0520912E0730912F0788
:1053E000FC01E21BF30BE83CF10548F042E057E01A
:1053F000BC0180913007909131070E944A1480913E
:105400003707882369F00E946B052091330730919C
:105410003407821B930B8F3F9F4710F40E94A51106
:1054200086E0E9EBF7E0DE01119601900D928A9596
:10543000E1F7B090BA07E090BB07D090BC07C090EE
:10544000BD07F090BE071092BB071092BC071092E8
:10545000BD071092BE078E2D8D2909F447C000911B
:10546000B7071091B8070E946B059C01201B310BF8
:105470009091B307992309F4FAC021313105B0F1B5
:105480009F3F19F09F5F9093B307EE2059F00E9461
:1054900082069FEF1E140CF491E0899F802D112449
:1054A0008093BB07DD2059F00E94820691E01D1415
:1054B0000CF09FEF899F802D11248093BC07809171
:1054C000BB07882399F01091BC07112379F00E9443
:1054D000A606882309F499C08093BB07812F0E94F8
:1054E000A606882309F494C08093BC078C2D8F29CD
:1054F00009F447C00091B5071091B6070E946B05EB
:105500009C01201B310B90910B07992309F4ABC030
:1055100021353105B0F19F3F19F09F5F90930B0744
:10552000CC2059F00E9460069FEF1C140CF491E00F
:10553000899F802D11248093BD07FF2059F00E9480
:10554000600691E01F140CF09FEF899F802D1124BD
:105550008093BE078091BD07882399F01091BE0704
:10556000112379F00E94A606882309F454C0809381
:10557000BD07812F0E94A606882309F44FC080939F
:10558000BE078091BA078B1117C08091BB07882393
:1055900011F08E1111C02091BC07222311F02D11A2
:1055A0000BC09091BE07992311F09F1105C0309157
:1055B000BD07332309F452C00E94390686E0FE017C
:1055C0003196A9EBB7E001900D928A95E1F70E9420
:1055D000230690910C07891709F401CE80930C07DC
:1055E0008FB7F8944091CE075091CF076091D007C4
:1055F0007091D1078FBFF3CD0E9408231092AD07A1
:105600001092AC070E94E706E1CE4092BB0766CF3E
:105610004092BC076BCF4092BD07ABCF4092BE0714
:10562000B0CF8091DC07882309F4DDCD80E189BD0E
:1056300092E199BD09B400FEFDCF8091D8008F7D25
:105640008093D8008091E00082608093E000809198
:10565000E00081FDFCCF0E94250EC5CD822B892B59
:1056600009F4ACCFA9CF232B09F057CF8ACF232B36
:1056700009F008CF3BCF97FB072E16F4009407D014
:1056800077FD09D00E948C2B07FC05D03EF4909545
:1056900081959F4F0895709561957F4F0895EE0F06
:1056A000FF1F0590F491E02D09942F923F924F92A5
:1056B0005F926F927F928F929F92AF92BF92CF92A2
:1056C000DF92EF92FF920F931F93CF93DF93CDB7AB
:1056D000DEB7CA1BDB0B0FB6F894DEBF0FBECDBF23
:1056E00009942A88398848885F846E847D848C84F4
:1056F0009B84AA84B984C884DF80EE80FD800C81FD
:105700001B81AA81B981CE0FD11D0FB6F894DEBFDF
:105710000FBECDBFED010895AA1BBB1B51E107C011
:10572000AA1FBB1FA617B70710F0A61BB70B881F31
:10573000991F5A95A9F780959095BC01CD010895C0
:10574000F999FECF92BD81BDF89A992780B5089549
:10575000A6E1B0E044E050E00C94EA2BA8E1B0E010
:1057600042E050E00C94EA2BDC01A40FB51F41503D
:10577000504048F0CB01840F951F2E910E94C52BFD
:1057800041505040D0F70895262FF999FECF92BD91
:1057900081BDF89A019700B4021639F01FBA20BDF6
:1057A0000FB6F894FA9AF99A0FBE08950396272F28
:1057B0000E94C52B0E94C42B252F0E94C52B242F8D
:1057C0000C94C52B0196272F0E94C52B0C94C42B3B
:1057D000DC01CB01FC01F999FECF06C0F2BDE1BDB1
:1057E000F89A319600B40D9241505040B8F70895A0
:1057F000FB01DC0104C08D910190801921F441501E
:105800005040C8F7881B990B0895F894FFCF390FC3
:10581000610F0011610F0011940FB50F0011B2104C
:10582000BF10B11BB71BA21BAB1BBD1BC31BC91BEE
:10583000281C9D1C301CFA1BFE1B341C021C381C2F
:10584000441C0E1C961C121C481C161C4C1C741C60
:105850001A1C501C7B1C201C561C5E1C061C3C1C6D
:105860000A1C401C241C5A1C6A1C841C941CF41B1B
:105870002C1CA41CDF1DDF1D111E111E951EB11E48
:0C588000331E331EB61E3E1F4D1F4D1F71
:10588C0082060B027705D10CCA0CC30CBC0C0000B1
:10589C00000000000000010D0000000000000000EE
:1058AC00000000000000530C00000000000000008D
:1058BC00000000000000330D00000000000000009C
:1058CC000000000000004615000000000000000071
:1058DC000000000000000D1500000000000001D6C3
:1058EC00000000000000D0000000000000C6000016
:1058FC0000000000BC000000000000B2000000002E
:10590C000000AC00000000000001000001000708CE
:10591C0009040506818283E200E900EA00B500B6BD
:10592C0000B700CD008301CC008A019201940121C3
:10593C0002230224022502260227022A02B300B403
:10594C00006F0070009F01CB019F02A002F6F5F4DE
:0E595C00F1F7C26766363597969495939200E0
:00000001FF
