:100000000C9472030C948F030C948F030C948F0345
:100010000C948F030C948F030C948F030C948F0318
:100020000C948F030C948F030C9469230C94252358
:100030000C9466240C948F030C948F030C948F0300
:100040000C948F030C948F030C948F030C948F03E8
:100050000C948F030C9442240C948F030C948F0304
:100060000C948F030C948F030C948F030C948F03C8
:100070000C948F030C948F030C948F030C948F03B8
:100080000C948F030C948F030C948F030C948F03A8
:100090000C948F030C948F030C948F030C948F0398
:1000A0000C948F030C948F030C948F033B003C0043
:1000B000680000001F022002310200001F00200023
:1000C000310000004B7E4D7E4F7E00004900447E93
:1000D000457E000049004A004E0000003C006800D8
:1000E00000002002310200002000310000004B7EA1
:1000F0004D7E00004900447E000049004A00000097
:1001000014381A34093113320500000000000D00C4
:100110000F2218211C3434280428152416211722F4
:100120000A00000000001000113208310C241238BF
:100130001D421B00060007001900000000000E0011
:100140000B0036003700384200000000000029454F
:100150002C432B4428472A464C480000000000004E
:1001600014001A00080015001700000000001C0011
:1001700018000C001200130004001600070009000C
:100180000A00000000000B000D000E000F003400FC
:100190001D001B00060019000500000000001100F2
:1001A000100036003700380000000000000029452C
:1001B0002C432B4428472A464C48000000000000EE
:1001C0001D011B01060108571C01000000001C0155
:1001D000085706011B011D01E300E200E000E100F9
:1001E0001D01000000001D01E100E000E200E3004D
:1001F0001D011B01060108571C01000000001C0125
:10020000085706011B011D01000000000000D3007B
:10021000D100D200D200D100D300000000000000C5
:10022000B852B452B152B2520000000000001C019A
:10023000085706011B011D01A852A452A152A25247
:10024000000000000000737C5000510052004F007D
:100250005300507E00570657000000000000490080
:100260004A004E004B004D0000000000000000005E
:100270000000000028002A004C00000000000000E0
:10028000B852B452B152B252DF00000000001C015B
:10029000085706011B011D01A852A452A152A252E7
:1002A000DE00000000003900CF00CE00CD00D000FD
:1002B0000000000001570657DD0000000000490063
:1002C000447E457E467E477E000000000000000020
:1002D00000000000D200D100D300000000000000A8
:1002E000B852B452B152B2520957000000004A7ECF
:1002F000427E407E417E437EA852A452A152A25229
:10030000470000000000487EAC00AA00A900AB0036
:10031000007C0757025706574800000000004B7E3C
:100320004D7E4F7E4E7E4C7E00000000000000009F
:1003300000000000AD00AE00A800000000000000BA
:100340002F002400250026003000000000000000DF
:10035000A252A152B452A85233002100220023001D
:100360002E00000000002C00B252B152A452B8522C
:1003700035001E001F0020003100000000000000BA
:100380000657035737003800000000000000370010
:1003900027002D0000000000000000000000000009
:1003A0002F02240225022602300200000000000075
:1003B000A252A152B452A8523302210222022302B5
:1003C0002E02000000002C00B252B152A452B852CA
:1003D00035021E021F022002310200000000000050
:1003E00006570457370038000000000000002602BE
:1003F0002702497E0000000000000000000000000D
:1004000045004000410042006A000000000009571A
:10041000A252A152B452A85244003D003E003F00F7
:100420006900000000004700B252B152A452B85215
:1004300043003A003B003C00680000000000480018
:10044000065705570757007C0000000000006500B4
:100450002C002B0000000000000000000000000045
:10046000B852B452B152B252000000000000550020
:100470005F00600061005600A852A452A152A2522F
:100480002A000000000067005C005D005E0057006D
:10049000530069520000695200000000000054003F
:1004A00059005A005B0058000000000000002900BD
:1004B0002C002B008500620063000000000000009B
:1004C000000000000000000000000000000000002C
:1004D000000000000000000000000000000000001C
:1004E000000000007E0F00D4FFFFFFC7000000786F
:1004F00000000000000000002A2B2800000000007F
:1005000000000000000000000000002900000000C2
:100510002C1E3420212224342627252E362D373830
:10052000271E1F202122232425263333362E373839
:100530001F0405060708090A0B0C0D0E0F101112F7
:10054000131415161718191A1B1C1D2F3130232DC3
:10055000350405060708090A0B0C0D0E0F101112C1
:10056000131415161718191A1B1C1D2F3130354C72
:1005700005010902A10185020901A100050919016E
:10058000290815002501950875018102050109302A
:1005900009311581257F9502750881060938158175
:1005A000257F950175088106050C0A3802158125FD
:1005B0007F950175088106C0C005010980A10185EC
:1005C0000319012AB700150126B70095017510819E
:1005D00000C0050C0901A101850419012AA002151A
:1005E0000126A002950175108100C005010906A130
:1005F000018506050719E029E7150025019508750D
:100600000181020507190029EF1500250195F075F4
:1006100001810205081901290595057501910295C9
:100620000175039101C005010906A101050719E043
:1006300029E71500250195087501810295017508C6
:1006400081010507190029FF150026FF0095067591
:100650000881000508190129051500250195057572
:10066000019102950175039101C009023B0002014D
:1006700000A0FA0904000001030101000921110191
:10068000000122440007058103080001090401005C
:10069000010300000009211101000122B600070535
:1006A0008203200001120100020000000809120369
:1006B000230100010200010E034100740072006575
:1006C0000075007300000016034B0065007900629E
:1006D000006F0061007200640069006F0000000498
:1006E0000309040011241FBECFEFDAE0DEBFCDBF47
:1006F00012E0A0E0B1E0E2EFF1E502C005900D925A
:10070000AA34B107D9F724E0AAE4B2E001C01D92EF
:10071000A531B207E1F70E948D240C94B8280C94FF
:100720000000482F209111049091C80359E029132B
:1007300002C080E0089530E0529FF001539FF00D19
:100740001124E753FC4F8181681306C08081481350
:1007500003C085818111EECF2F5F3F4F2770E7CF18
:10076000E8EDF0E080818E7F80831092E2001092AD
:10077000DA001092E100A0EEB0E08C9181608C93E1
:1007800080818F77808319BCA7EDB0E08C918E7F3C
:100790008C9380818F7E80831092B1030895209185
:1007A000E4003091E50095E6A9012091EC00822F4C
:1007B000817020FF06C08091E80080FF06C080E0C5
:1007C00008952091E80022FD1AC08091BE0388237D
:1007D00089F0853089F08091EB0085FD0FC0209174
:1007E000E4003091E50042175307F9F29150E1F629
:1007F00084E0089582E0089583E0089581E00895FB
:100800008091C00387FF13C08091E80082FF06C07B
:100810008091E8008B778093E80004C08091BE034C
:100820008111F2CF08958091BE038823D9F380917E
:10083000E80080FFF8CF8091E8008E77ECCF982F0A
:100840009093E900242F762F50E0891731F07091B2
:10085000EC002091ED005091F00021FD07C09F5F5A
:10086000973071F78093E90081E008953091EB00B3
:100870003E7F3093EB003091ED003D7F3093ED00F3
:100880003091EB0031603093EB007093EC002093DB
:10089000ED005093F0002091EE0027FDE0CF80E0C6
:1008A0000895B0E0A0E0E7E5F4E00C941828C8ED66
:1008B000D0E088818F7E8883E7EDF0E080818160E1
:1008C000808384E082BF81E08093B10388818E7F42
:1008D000888302EE10E0F80110821092DA0081EEB7
:1008E000C82ED12CF601108288818F778883888169
:1008F0008068888388818F7D888319BC1092BE03AD
:100900001092BF031092BD031092BC0390EEE92E2B
:10091000F12CF70180818B7F8083888181608883BF
:1009200042E060E080E00E941F04F60180818E7F3B
:100930008083F801808181608083808188608083EA
:10094000F70180818E7F8083888180618883CDB725
:10095000DEB7E8E00C943428FC018091C603909146
:10096000C70386179707A0F06115710529F49091C8
:10097000E8009E779093E80090E06115710551F4CE
:10098000911108C08091E80082FF34C080E0089592
:10099000BC01F2CF8091BE038823C1F18530C1F143
:1009A0008091E80083FD30C08091E80082FDEACFAD
:1009B0008091E80080FFE1CF8091F3002091F20068
:1009C000382F6115710519F02830310558F091E084
:1009D0002830310509F090E02091E8002E7720932F
:1009E000E800CBCF81918093F100615071092F5FB6
:1009F0003F4FE7CF8091BE03882341F0853041F01F
:100A00008091E80083FFBECF81E0089582E00895E1
:100A100083E008958091B303089587E797E7909363
:100A200001088093000888E19AE00FB6F894A89531
:100A3000809360000FBE90936000FFCF9C014FB782
:100A4000F8948091AD039091AE03A091AF03B09163
:100A5000B0034FBF821B930B08952FB7F89480917A
:100A6000AD039091AE03A091AF03B091B0032FBF3F
:100A70000895909100029923D1F09091AA0397FFD5
:100A800016C0E82FE695E695E695EE31E0F4F0E045
:100A9000EC5AFD4F282F277081E090E001C0880FAD
:100AA0002A95EAF780959281892382830895EEE45E
:100AB000F2E09191891303C0DF0111971C9292E03B
:100AC000E435F907B1F70895909100029923C1F038
:100AD0009091AA0397FF14C0E82FE695E695E69556
:100AE000EE31F8F4F0E0EC5AFD4F877021E030E091
:100AF00001C0220F8A95EAF78281822B82830895B2
:100B0000AEE4B2E0EFEF90E02D91821751F0EF3FAD
:100B100019F4211101C0E92F9F5F9630A9F7EF3F2B
:100B200009F408950E2E000CFF0BE45BFD4FE6CF99
:100B3000A3E0B0E0EEE9F5E00C941E282091A803B4
:100B40003091A90328173907A1F09093A903809346
:100B5000A803E091A603F091A703309751F024E099
:100B600029839B838A830084F185E02DCE01019641
:100B700009952396E2E00C943A28A3E0B0E0E3EC78
:100B8000F5E00C941E282091A4033091A5032817AA
:100B90003907A1F09093A5038093A403E091A603E5
:100BA000F091A703309751F023E029839B838A8338
:100BB0000084F185E02DCE01019609952396E2E0AF
:100BC0000C943A28E091A603F091A703309729F0FE
:100BD0000190F081E02D0995089580E008950E942C
:100BE000E20508954115510511F0FA01099508959E
:100BF0000E942D059C0190919D0380919E03982B4E
:100C000021F030939A032093990390919F03809150
:100C1000A003982B21F03093980320939703E09141
:100C2000A603F091A703309749F082E080939B03DD
:100C30000680F781E02D8BE993E009950895809176
:100C4000960380FD1CC081FD14C082FD14C08091FC
:100C500095038823A1F0883280F428E0829FC001A8
:100C6000112468E270E00E94F427862F672B39F088
:100C7000089584E008958FE7089588E0089581E05D
:100C800008958091960380FD1EC081FD15C082FDF0
:100C900015C020919503222399F080E3203490F42D
:100CA000289F9001112486E0359527958A95E1F7D4
:100CB000822F232B41F0089588E108958FE708954E
:100CC00088E00895089581E00895282F35EB2303E7
:100CD000C001112497FF04C080589109892F0895FD
:100CE00080589F4FFBCFAC0180919103609192039C
:100CF000982F691301C00895292F30E0F901EE0FF4
:100D0000FF1FE757FC4F0190F081E02DE417F50736
:100D1000C1F4F0E0E0E04C30510540F467E0649F3E
:100D2000F001659FF00D1124E555FE4F41E044832D
:100D30009813E1CF2F5F3F4F237033272093910308
:100D400008952F5F3F4F922F9370D3CF10921D03C2
:100D500010921C03EBEAF1E08FEF91E02581211165
:100D600002C01482168237968E179F07B9F708952E
:100D700080E00895F894E82FE295EF70F0E031A15B
:100D8000282F2F7081E090E001C0880F2A95EAF7A4
:100D9000982F9095932391A392A1892B82A3789465
:100DA00008959091AA0392FF10C041E0282F24716A
:100DB000243009F040E031E0282F2871283009F074
:100DC00030E0431711F02CE0822793FF10C041E080
:100DD000282F2471243109F040E031E0282F2871B8
:100DE000283109F030E0431711F02CE082273091D0
:100DF000AB0330FF10C051E0282F2171213009F0E2
:100E000050E041E0282F2871283009F040E05417C5
:100E100011F029E0822731FF10C041E0282F217115
:100E2000213109F040E031E0282F2871283109F004
:100E300030E0431711F029E0822794FD877E089562
:100E400082389105B9F1B0F48133910509F47DC080
:100E500048F48932910509F46DC08A32910509F48C
:100E60007BC008958533910509F45FC089339105EE
:100E700009F10895833E9105D9F138F4803E91053A
:100E800029F1823E910579F10895863E9105D9F1C7
:100E9000873E910509F43EC0843E910541F52091BD
:100EA000AB0321FF24C08091AA0384FD19C087EE03
:100EB00090E008952091AA03237009F05AC0209170
:100EC000AB0323FF14C089E290E008952091AA03A8
:100ED00020FD38C03091AB0330FF09C024FF43C070
:100EE00090E080E008952091AA0322FDF7CF0895B5
:100EF0002091AA0322FD3AC03091AB0330FD39C0E6
:100F000024FFF5CFEDCF2091AA0323FFF0CF24FDDE
:100F1000E7CFCDCF2091AA0323FD2EC03091AB03A4
:100F200031FFEECF84EE90E008952091AA0325FFD3
:100F3000DECFC9CF2091AA0325FD21C02091AB03AC
:100F400023FFD5CF89E390E0D2CF2091AA0326FFDB
:100F5000CECF8AE290E008952091AA0326FFC7CF62
:100F600081E390E0089583EE90E0089582EE90E0B2
:100F7000089580EE90E0089586EE90E0089585E370
:100F800090E00895972F7430B8F46C30A8F48A304C
:100F9000B0F470E02CE0929F600D711D1124FB01F4
:100FA00090E3899FE00DF11D1124EE0FFF1FE0502B
:100FB000FF4F85919491089580E090E0089581E03D
:100FC000FCCF1F93CF93DF930E942007EC01C11544
:100FD00080E5D807F0F5C11580E4D80708F09CC07B
:100FE000C03ED10520F5CD3CD10508F082C0C83AFD
:100FF000D10578F4C53AD10508F073C0C130D105E8
:1010000019F1209709F1C430D105F0F4D0E0C0E027
:101010001BC0C33CD105D0F7C85AD0E0CC0FDD1FB0
:10102000CC5FDD4F0990D881C02DD4640DC0C115AF
:1010300080E2D80708F0D1C0C11581E0D80708F0D8
:101040005AC0C83ED10510F7CE01DF91CF911F9154
:101050000895C03682E5D80718F5C03482E5D80770
:1010600008F06BC0C03282E5D80708F05FC0C11538
:1010700082E5D80708F497C02C2F2695269580E2A4
:10108000289F900111248C2F8370C1E0D0E002C012
:10109000CC0FDD1F8A95E2F7C22BD32BDD68D4CFAE
:1010A000C03A82E5D80760F4C03882E5D80708F472
:1010B00059C0CF71D0E0DC2FCC27C46FD06AC4CF29
:1010C000C03C82E5D80708F462C0C03E82E5D8077C
:1010D00008F09CCFDC2FCC27CC27DF71C06FD06A03
:1010E000B3CFC55AD0E0CF5FDD4FC881D0E0D06428
:1010F000ABCFD065A9CF8D2F0E94D106182FCE017E
:1011000099270E942007C12FD0E0DC2FCC27CC27C5
:10111000DF71C82BD92B98CFCE0199270E942007C9
:10112000CC27DF70C82BD92BD06A8ECFCF71D0E0FF
:10113000DC2FCC27C16FD06A87CF2C2F2695269520
:10114000277080E2289F900111248C2F8370C1E0CA
:10115000D0E002C0CC0FDD1F8A95E2F7C22BD32B63
:10116000DC6872CF2C2F26952695277080E2289F69
:10117000900111248C2F8370C1E0D0E002C0CC0F0D
:10118000DD1F8A95E2F7C22BD32BDA685DCF8C2F57
:101190008F710E94D106C82FD0E0DC2FCC27CC273E
:1011A000DF71D06251CF8C2F8F710E94D10655E034
:1011B000D695C7955A95E1F7CF70D0E0DC2FCC27B4
:1011C000282F30E084FF05C044E0220F331F4A95EA
:1011D000E1F7C22BD32BD06937CF8D2F8F710E94AF
:1011E000D106182FCE0199270E942007C12FD0E0E9
:1011F000DC2FCC27CC27DF71C82BD92BD2CF809105
:10120000C40281111092C40208959091AB0392FF21
:1012100005C09091C40298138093C40208958095EC
:101220009091A10398239093A103089580959091A4
:10123000F70298239093F70208959091F702892B73
:101240008093F7020895CF93C091F7028091A10394
:10125000C82B8091C402882391F0C82B8091000292
:10126000882381F08091AA0387FF0CC02EE186E5D8
:1012700092E030E0215050F431110E94FF088C2F91
:10128000CF91089526E08EE492E0F3CFFC014191E6
:10129000CF01442379F33F5FEDCF8091110490910A
:1012A000C803981301C008958F5F8770FACFB0E02C
:1012B000A0E0EDE5F9E00C9417287C010091D40240
:1012C0001091D5028091D2029091D302082B192B54
:1012D000CFE0D0E0CC24C394D12CBC2EC6010C2E80
:1012E00002C0880F991F0A94E2F780239123892B6B
:1012F00049F4219790F7B12C8B2DCDB7DEB7E9E0FB
:101300000C943328B7018C2F0E94C2070E94E1077A
:10131000019779F3F1CFCF93DF93EC010E94570946
:10132000BE010E94C2070E94E107DF91CF9108959C
:10133000943078F58C3068F5E82FF0E08CE0989FD9
:10134000E00DF11D11249E2F977083E0F695E7952F
:101350008A95E1F7EE0FFF1FEE0FFF1FE658FD4FD6
:1013600050E040E080E0219130E0092E02C0369547
:1013700027950A94E2F721703327042E01C0220F2B
:101380000A94EAF7822B4F5F5F4F4430510559F7BB
:10139000089580E00895943098F58C3088F5E82F12
:1013A000F0E08CE0989FE00DF11D11248E2F8770E6
:1013B00041E001C0440F8A95EAF783E0F695E7958E
:1013C0008A95E1F7EE0FFF1FEE0FFF1FE658FD4F66
:1013D00030E020E070E05191DF011197CB01022E47
:1013E00002C0969587950A94E2F7817081958527CA
:1013F000842385278C932F5F3F4F2430310559F785
:1014000008959093D5028093D402089521E030E0AE
:1014100002C0220F331F8A95E2F720953095809104
:10142000D4029091D502822393230E94010A089549
:1014300090919B028095892380939B02282F27708F
:1014400069F4891759F09091AB0392FF07C0869514
:10145000869586950E94060A10929B02089521E0C7
:1014600030E002C0220F331F8A95E2F78091D40248
:101470009091D502822B932B0E94010A089590939C
:10148000D3028093D2020895FC0184818823F9F06D
:1014900087819085009791F00E94E10792959F7057
:1014A0009630B9F080F4925F9F70923080F4803F64
:1014B00019F058F4883E58F481E0089580819181B4
:1014C0000E948B09EBCF9A5FEFCF843FA9F380E0B6
:1014D0000895883E88F3813FD1F7EECF662309F463
:1014E0005DC08D3C41F40E944106819580939E032E
:1014F0000E94F80508958E3C19F40E944106F6CF2B
:101500008F3C31F40E944106819580939D03F0CF7A
:10151000803D19F40E944106F8CF893D29F40E94CC
:101520001F0680939F03E4CF8A3D21F40E941F068B
:101530008195F7CF8B3D31F40E941F0681958093F2
:10154000A003D6CF8C3D19F40E941F06F8CF9FE26E
:10155000980F983070F4815D990B21E030E001C064
:10156000220F8A95EAF780919C03822B80939C033B
:10157000BFCF8D3D31F480919603816080939603B7
:10158000B7CF8E3D21F4809196038260F7CF8F3DD7
:1015900009F0AECF809196038460F0CF40919D0317
:1015A0008D3C59F480919E0387FF0DC010929E03DD
:1015B00041110BC01092950308C08E3C81F48091BC
:1015C0009E0318169CF3442381F080919F03909111
:1015D000A003892B09F08CCF1092F40289CF8F3CA5
:1015E00049F447FFF0CF10929D0380919E03811133
:1015F000ECCFE0CF803D19F41416ACF3E4CF90911A
:101600009F03893D29F41916F4F610929F03DBCF4E
:101610008A3D19F497FFD7CFF8CF9091A0038B3D67
:1016200029F497FFD0CF1092A003CDCF8C3D19F4B1
:101630001916CCF3C8CF9FE2980F983090F4815DD3
:10164000990B21E030E0B90102C0660F771F8A953F
:10165000E2F7CB01809590919C03892380939C03B2
:10166000B2CF8D3D31F4809196038E7F80939603A7
:10167000AACF8E3D21F4809196038D7FF7CF8F3DC9
:1016800009F0A1CF809196038B7FF0CFA6E0B0E068
:10169000ECE4FBE00C941D289C01FC018781908503
:1016A0000097E1F486E0DE01119601900D928A9593
:1016B000E1F7F901258189819A81222399F0662336
:1016C00089F00E945709182F682F89819A810E94FA
:1016D000CB0969817A81812F0E94C2072696E3E0B7
:1016E0000C9439280E949809182FF3CF9C013A9541
:1016F00021153F4150F5FC01EE27F170BC01662732
:101700007270AC01442754709C012227387094FFFA
:101710000EC080E1EF2B09F480E0672B09F08062B6
:10172000452B09F08064232B89F08068089581E0BF
:10173000EF2B09F480E0672B09F08260452B09F05C
:101740008460232B19F08860089580E00895FC01DF
:101750008281813019F0823049F0089580937402BB
:101760008091AB0383608093AB0308951092740261
:101770008091AB038C7FF7CFFC018281813029F40B
:1017800081E090E00E943F0A08958230E9F782E00C
:1017900090E0F8CFFC018281813029F480E091E073
:1017A0000E943F0A08958230E9F780E290E0F8CF86
:1017B000FC018281813029F480E890E00E943F0A98
:1017C00008958230E9F780E190E0F8CFFC01828152
:1017D000813029F480E490E00E943F0A089582302D
:1017E000E9F788E090E0F8CFFC018281813029F4AC
:1017F00080E290E00E943F0A08958230E9F780E09D
:1018000091E0F8CFFC018281813029F480E190E001
:101810000E943F0A08958230E9F780E890E0F8CF0F
:10182000FC018281813029F488E090E00E943F0A27
:1018300008958230E9F780E490E0F8CF0F931F938A
:10184000CF93DF938B01EA019091BE03943061F551
:101850008093E9008FEF9091E800815095FD06C0DC
:1018600095ED9A95F1F700008111F5CF8091E80090
:1018700085FF1AC00E94CF03811111C08091E8003A
:1018800085FD06C08091E8008E778093E800F2CF56
:10189000F80181918F018093F100219779F7809170
:1018A000E8008E778093E800DF91CF911F910F9130
:1018B000089543E050E0BC0182E00E941E0C0895B0
:1018C00046E050E0BC0182E00E941E0C089540E218
:1018D00050E0BC0182E00E941E0C0895CF93DF937C
:1018E000EC0148E050E0BC0181E00E941E0C88E061
:1018F000FE01A4EBB3E001900D928A95E1F7DF9130
:10190000CF9108958093F602682F8CE090E00E94BA
:10191000772808959091AB0392FB222720F928178E
:1019200079F080FB92F99093AB036091AA037091D8
:10193000AB0384E090E00E94952882E00E94180AA0
:10194000089580910002882359F18091AA0387FFAE
:1019500027C00E9423098093550240E250E06CE9C1
:1019600072E084E592E00E94AB28892BC1F080E20E
:10197000E4E5F2E0ACE9B2E001900D928A95E1F77E
:10198000E091A603F091A703309749F086E0809399
:1019900054020480F581E02D84E592E009950895D4
:1019A0000E94230980934C0248E050E06CEB72E007
:1019B0008CE492E00E94AB28892B89F388E0ECE468
:1019C000F2E0ACEBB2E001900D928A95E1F7E09184
:1019D000A603F091A703309711F30280F381E02D65
:1019E0008CE492E0DBCFCF93DF93EC014A855B85FB
:1019F0006E857F850E94F2058B810E940F098C8184
:101A00000E9416090E94A10C86E0FE0111928A959F
:101A1000E9F7DF91CF910895CF93DF93EC018D81AA
:101A200081FD14C082608D838091A1039B81892BED
:101A30008093A1038C810E941D090E94A10C4885FE
:101A400059856E857F85CE010E94F2051092A30311
:101A50001092A2038D8180FD03C0CE010E94F30C81
:101A6000DF91CF9108958091AA01877F8093AA0189
:101A700080911E03811103C082E00E940F098091B2
:101A8000AA0184FF06C08F7E8093AA0182E00E9493
:101A90001D098091AA0185FF06C08F7D8093AA0150
:101AA00080E20E941D090E94A10C08951092F70285
:101AB00080910002882339F18091AA0387FF23C017
:101AC000E6E5F2E08EE1DF011D928A95E9F790E00C
:101AD00080E00E94BD0590E080E00E949805109291
:101AE000A1030E94A10C86E0EBE9F3E0DF011D9267
:101AF0008A95E9F7109295031092F40210929603DA
:101B00000E94F8050895EEE4F2E086E0DCCFAAE258
:101B1000B0E0EDE8FDE00C941D2880EC93E020910E
:101B2000F100FC012193CF01F3E0883C9F07B9F756
:101B30008091C103833009F470C0B8F4813009F496
:101B400047C0823009F4B1C08091E80083FF7EC2B3
:101B50008091C0039091C1039A3008F077C2E92FB9
:101B6000F0E0E654F74D0C9408288A3009F48CC054
:101B70008B3009F46FC0893039F78091C00381320E
:101B800019F78091C4039091C5030297E8F68091FC
:101B9000E800877F8093E8008091E80082FF38C0EA
:101BA0009091F3008091F200029731F48091F1005E
:101BB000813011F0863021F48091F1008093B303DD
:101BC0008091E8008B778093E8000E940004BCCFEE
:101BD0008091C003813A09F0B7CF8091E800877FF8
:101BE0008093E8008091C4039091C503892B61F430
:101BF00068E084EB93E070E00E94AC048091E80020
:101C00008B778093E800A0CF60E090E080E0F3CF96
:101C10008091BE038111C0CF97CF8091C003813ADC
:101C200009F092CF8091C4039091C503892B09F0EC
:101C30008BCF8091E800877F8093E8008091E80057
:101C400080FFFCCF809100028093F1008091E8003A
:101C50008E77B9CF8091C003813209F075CF809122
:101C6000C4039091C503892B09F06ECF8091E800E1
:101C7000877F8093E8000E9400048091C2038093D4
:101C800000020E94560D60CF8091C003813209F09E
:101C90005BCF8091E800877F8093E8000E9400047A
:101CA0008091C3038093B2034FCF8091C003813AE8
:101CB00009F04ACF8091E800877F8093E800809107
:101CC000E80080FFFCCF8091B203BECF803899F04E
:101CD000823809F0BBC18091C4038F70873008F04F
:101CE000B5C18093E9008091EB0085FB882780F9DE
:101CF0001092E90006C08091BC039091BD03911140
:101D000082609091E800977F9093E8008093F100C3
:101D10001092F1008091E8008E7794C1882309F435
:101D200082C1823009F092C18091C203811185C1C4
:101D30008091C4038F702FEF280F263008F086C1E2
:101D40008093E9002091EB0020FF77C1933031F4BC
:101D50008091EB0080628093EB006FC19091EB006B
:101D600090619093EB0021E030E001C0220F8A9552
:101D7000EAF72093EA001092EA008091EB00886075
:101D8000EACF811163C11091C2031F778091E300F4
:101D90008078812B8093E3008091E800877F809397
:101DA000E8000E9400048091E80080FFFCCF809151
:101DB000E30080688093E30082E0111183E0809368
:101DC000BE0344C18058823008F040C18091C203F4
:101DD0009091C3038C3D23E09207A1F583E08A83B1
:101DE0008AE289834FB7F894DE01139620E03EE043
:101DF00051E2E32FF0E050935700E49120FF03C03D
:101E0000E295EF703F5FEF708E2F90E0EA30C0F008
:101E1000C7968D939D932F5F243159F74FBF8091C3
:101E2000E800877F8093E8006AE270E0CE010196C7
:101E30000E94AC048091E8008B778093E80006C193
:101E4000C096E7CF4091C4035091C503292F332793
:101E50002330310509F444C078F52130310509F407
:101E60006FC08BE390E0EAE6F6E02230310509F03E
:101E7000EDC02091E800277F2093E8002091C60361
:101E80003091C7038217930708F49C0140E02115A5
:101E9000310509F064C0411162C08091E80082FD03
:101EA000C9CF8091BE03882329F2853019F2809131
:101EB000E80083FFF2CFBECF21323105A9F12232F3
:101EC000310509F0C3C04115510509F443C0413043
:101ED000510509F0BBC086EB90E0E0E7F5E0C9CF23
:101EE000992781309105C1F0009759F0029709F0C8
:101EF000ADC0E7EBF6E0E4918E2F90E0E7EBF6E083
:101F000007C0EFEDF6E0E4918E2F90E0EFEDF6E004
:101F1000009709F49BC0ADCFE7ECF6E0E4918E2F7B
:101F200090E0E7ECF6E0F4CF4115510571F0413057
:101F3000510509F08BC089E090E0E5E9F6E099CF22
:101F400082E190E0E5EAF6E094CF89E090E0ECE70A
:101F5000F6E08FCF84E490E0E6E2F6E08ACF80916D
:101F6000BE03882309F466CF853009F463CF8091DE
:101F7000E80083FD5FCF8091E80082FD8ECF8091E5
:101F8000E80080FF84CF9091F3008091F20021154A
:101F9000310519F08830910550F041E0089709F0BB
:101FA00040E08091E8008E778093E80070CF449104
:101FB0004093F1003196215031090196E8CF8038E5
:101FC00009F044C08091E800877F8093E800809109
:101FD000BF038093F1009ECE811138C01091C203DF
:101FE0001230A0F58091E800877F8093E80010937D
:101FF000BF030E940004112311F084E005C080910A
:10200000E30087FDFACF81E08093BE0342E061ECFC
:1020100081E00E941F0442E261EC82E00E941F0402
:102020008091BE0313C08091C203813079F481E0B6
:10203000933009F080E08093BD031092E900809115
:10204000E800877F8093E8000E9400048091E80008
:1020500083FF0AC08091E800877F8093E800809129
:10206000EB0080628093EB00AA96E3E00C943928A1
:102070000E94560D2FEF84E39CE021508040904059
:10208000E1F700C0000088E19AE00FB6F894A89547
:10209000809360000FBE90936000FFCF882321F0F3
:1020A0000E940F090E94A10C089580911E038823AD
:1020B00029F082E20E944E1010921E030895882398
:1020C00039F09091A103982B9093A1030E94A10C49
:1020D0000895882321F00E9416090E94A10C0895FA
:1020E000882321F00E941D090E94A10C08958823D5
:1020F00009F456C0823879F40E94EF0581FF50C080
:1021000089E30E9464050E94A10C89E30E943905BD
:102110000E94A10C0895833859F40E94EF0580FFB6
:102120003FC083E50E9464050E94A10C83E5EECFC9
:10213000843859F40E94EF0582FF32C087E40E9480
:1021400064050E94A10C87E4E1CF9CEF980F913ABF
:10215000E8F290E2980F983050F4877091E001C057
:10216000990F8A95EAF7892F0E941609D1CF9BE52E
:10217000980F933028F490E080E00E94BD05089508
:1021800098E5980F9B3128F490E080E00E94980534
:10219000089593E3980F933118F460E00E946E0A5B
:1021A0000895CF93DF93EC010E947710CE010E9437
:1021B000760B9E01205E31092830310510F0CD2BC1
:1021C00029F40E946910DF91CF9108950E944E106A
:1021D000FACFCF93C82F8823C9F08238C9F40E9460
:1021E000EF0581FD13C089E30E9464050E94A10CE4
:1021F0002FEF87EE93E0215080409040E1F700C040
:10220000000089E30E9439050E94A10CCF91089536
:102210008338A1F40E94EF0580FDF8CF83E50E948A
:1022200064050E94A10C2FEF81EE94E021508040C4
:102230009040E1F700C0000083E5E4CF8438A1F4CA
:102240000E94EF0582FDE2CF87E40E9464050E94B0
:10225000A10C2FEF81EE94E0215080409040E1F7F7
:1022600000C0000087E4CECF8CEF8C0F813A88F558
:1022700080910002882301F18091AA0387FF1CC08E
:10228000EC2FE695E695E695F0E0EC5AFD4F82815D
:1022900090E04C2F477021E030E002C0220F331F46
:1022A0004A95E2F782239323892B79F08C2F0E94A1
:1022B00039050E94A10C09C0EEE4F2E08191C81733
:1022C000A9F322E0E435F207C9F78C2F0E946405D8
:1022D0009BCF80E28C0F883048F4C77081E001C04A
:1022E000880FCA95EAF70E941D098ECFEBE5EC0F27
:1022F000E33040F4F0E0EF5FFD4F808190E00E941A
:10230000BD0584CFE8E5EC0FEB3150F4F0E0EE0FC3
:10231000FF1FEC5FFD4F808191810E94980576CF71
:1023200083E38C0F833108F071CF61E08C2F0E9422
:102330006E0A6CCF1F93CF93DF93182FEB010E948F
:10234000E910209739F4812F0E947710DF91CF9107
:102350001F9108958FE99FE00197F1F700C00000F9
:102360002197EFCF70E060E0893311F460E570E011
:102370000E949A1108950F931F93CF93DF93C62F56
:10238000D42F022FFC0185818823A9F060931404C7
:102390000E942D059093130480931204C77081E06E
:1023A00001C0880FCA95EAF70E947010DF91CF91A3
:1023B0001F910F91089580911404681332C0809189
:1023C0001204909113040E941E05883C910548F563
:1023D00010E21D0FCD17B9F080E28C0F883040F469
:1023E000C77081E001C0880FCA95EAF70E946910A2
:1023F000183048F481E09D2F977001C0880F9A959E
:10240000EAF70E947010802F0E94B211183070F607
:10241000D77081E001C0880FDA95EAF70E94691051
:10242000C5CFC77081E001C0880FCA95EAF7F6CF23
:10243000B0E0A0E0EEE1F2E10C941928E82FF0E022
:10244000E051FB4FD490282F26952695269530E015
:10245000F901E052FB4F0491877010E0082E02C092
:10246000159507950A94E2F701701127F901E053D9
:10247000FB4FE490F12C082E02C0F594E7940A94E7
:10248000E2F791E0E922FF24F901E054FB4FC49107
:10249000D0E002C0D595C7958A95E2F7C170DD27D7
:1024A0000115110519F081EE0E94E910E114F10403
:1024B00019F086EE0E94E91070E060E08D2D0E9418
:1024C0009A11E114F10419F086EE0E9477100115BB
:1024D000110519F081EE0E947710CD2B19F08CE2D6
:1024E0000E94B211CDB7DEB7E7E00C943528909189
:1024F000F602923071F48A3050F490E009966AE066
:1025000070E00E94F427875A0E94B2110895865005
:10251000FBCF96EF980F963020F0805D0E94181246
:102520000895895AFBCF8F929F92AF92BF92EF92FC
:10253000FF920F931F93CF93DF934B015C01D091D8
:10254000F6028CE1E82EF12C07E010E021E0D50145
:10255000C4010E2C04C0B695A795979587950A944B
:10256000D2F7C82FCF70222339F0D43051F4CA30BB
:1025700040F080E00E9477128C2F0E94771220E0BA
:1025800005C0C111F9CF04301105B4F30150110990
:1025900084E0E81AF1080F3F1007C9F6DF91CF91E8
:1025A0001F910F91FF90EF90BF90AF909F908F90F1
:1025B0000895CF93DF93EC010E94760B9E01205E7D
:1025C00031092830310510F0209741F40E94701035
:1025D0008C2F0E94E910DF91CF9108950E945F1027
:1025E000F7CFB0E0A0E0E7EFF2E10C9419288C01FE
:1025F000EB018091AA0182FF82C0E0901A03F09063
:102600001B03E016F10621F00115110509F077C052
:102610008091AA018B7F8093AA0181FD69C080917E
:102620001803909119039E01281B390B81E0283C67
:10263000310508F480E08170D82E8091AA01D0FA8B
:1026400081F98093AA0187011127F80184E0F695AA
:10265000E7958A95E1F7EE0FFF1FE850FD4F2081C7
:102660003181A7014F70552781E090E002C0880FAB
:10267000991F4A95E2F7DD20E9F1822B932B918394
:1026800080838091F70281FF08C08091AA01806158
:102690008093AA0182E00E9416098091F70285FFCB
:1026A00008C08091AA0180628093AA0180E20E9402
:1026B0001609DD2029F08091A10382608093A10397
:1026C000C70190528115904308F47801C7010E9418
:1026D000D91280911A0390911B039C01305221154D
:1026E000304308F499270E94D1100E94330D17C07F
:1026F00081E0A1CF8095909582239323C0CFC8011C
:10270000905281159043A0F4C80199270E94D110DE
:1027100080911A0390911B030817190731F3D09386
:102720001903C0931803CDB7DEB7E7E00C94352842
:10273000C801ECCF0F931F93CF93DF938C01EB0174
:102740000E94D912209741F4C8010E94D110DF9154
:10275000CF911F910F9108958FE99FE00197F1F7B5
:1027600000C000002197EECFFC018281813019F07A
:10277000823019F1089580917402882371F081EEFE
:102780000E94E91083EE0E94E91081E20E94B211DA
:1027900083EE0E94771081EE0DC083EE0E94E91057
:1027A00081EE0E94E91086E10E94B21181EE0E9442
:1027B000771083EE0E947710089580917402882329
:1027C00041F081EE0E94E91083EE0E94E91080E260
:1027D000DDCF86E40E94B2110895CF93DF93EC0120
:1027E000809174028823F1F083EE0E94E9108A81BF
:1027F000823031F481EE0E94E91082EE0E94E910ED
:1028000089E10E94B21183EE0E9477108A818230A2
:1028100031F482EE0E94771081EE0E947710DF91F2
:10282000CF91089580EE0E94E9108A81823019F4D8
:1028300081EE0E94E91089E10E94B2118A81823002
:1028400019F481EE0E94771080EEE7CFA8E0B0E0A7
:10285000ECE2F4E10C9414288E010F5F1F4F88E026
:10286000F80111928A95E9F79AE3E92E92E0F92EA0
:102870006801AA24A394B12CF70181917F018F3FB5
:1028800009F446C0F894E82FE295EF70F0E021A13A
:102890008F70A50102C0440F551F8A95E2F7CA0147
:1028A000922F982B91A392A18095892382A378944B
:1028B00000C0EEE3F2E021E030E0912C812C419168
:1028C0004F3F09F44EC0A42FA295AF70B0E0909690
:1028D0008C9190E04F7002C0959587954A95E2F7EC
:1028E00080FD3FC0C901882A992A220F331F52E078
:1028F000EA34F50721F7F701319780818F3F11F016
:102900000E94BA0680EA8A95F1F7F60191828082E8
:10291000F2E0CF0ED11C4EE3E41642E0F40609F0DB
:10292000ABCF48E050E0B8018AEC92E00E94AB28BF
:10293000892BE1F088E0F801AAECB2E001900D9259
:102940008A95E1F781E08093C9020E942D0590935A
:10295000C8028093C70210E0812F2896ECE00C9407
:10296000302890E080E0BFCF10E01FC01091C90276
:10297000112389F38091C7029091C8020E941E051D
:10298000059748F348E050E06AEC72E086ED92E08B
:102990000E94AB28892B41F388E0EAECF2E0A6ED37
:1029A000B2E001900D928A95E1F71092C902D4CF5E
:1029B000B0E0A0E0EEEDF4E10C9417288C01DC010E
:1029C00014968C91882309F41AC161E0C8010E9411
:1029D000460BEC01F8018581882319F1E091A203EF
:1029E000F091A3033097E9F0CE17DF07D1F0FF276E
:1029F000EA30F105E0F5A4E0EE0FFF1FAA95E1F73C
:102A0000E65FFE4F858184608583D183C083CF01DB
:102A10000E940C0D1092A10361E0C8010E94460BB8
:102A2000EC01C534FEE7DF0709F4C1C0F0F5C2349C
:102A30003EE7D307F8F4C0348EE7D80708F086C025
:102A4000CC3191E0D90709F468C0C337BCE7DB0794
:102A500009F062C1F8018581882309F4C0C0809122
:102A60001E03882309F448C10E945510B8C0F0E045
:102A7000E0E0C8CFD80115969C91C434BEE7DB07CF
:102A800008F089C0992309F4AAC0809174028823B0
:102A900009F478C083EE0E94E91080E3C234DE4777
:102AA00009F48FE20E94B2114FC0C934EEE7DE078D
:102AB00009F4BFC0B8F4D80115968C91C734BEE7AD
:102AC000DB0709F4A5C008F481C0882309F487C096
:102AD00080917402882309F4A7C083EE0E94E91054
:102AE0008CE2E0CFC035FEE7DF0708F4C8C0C03590
:102AF0002EE7D20709F0A9CFD80115968C9188232B
:102B000009F46DC00E94EF0580FD03C083E50E94BB
:102B1000B21189E00E942F0A62C0D80115968C91EB
:102B2000882309F40EC180917402882309F409C135
:102B300083EE0E94E91081EE0E94E9108DE10E946F
:102B4000B21181EE0E94771083EE19C0F8018581E1
:102B5000882309F444C080EE0E94E910C034FEE7E7
:102B6000DF0719F481EE0E94E9108BE20E94B21196
:102B7000C034DE4719F481EE0E94771080EE0E9487
:102B800077102DC0C234DE4721F087EB0E94B211CE
:102B900026C086EBFBCF80917402992321F081112E
:102BA0003DC08BED1AC081113DC08BEDE8CF809107
:102BB0007402D80115969C91992321F081110CC0C3
:102BC0008AED0BC0811122C08AEDD9CF9091740299
:102BD0008823D1F09111F4CF89ED0E94E910809102
:102BE0009B02877061F0D80115968C91882339F08B
:102BF0008091AB0382FF03C082E00E94180ACDB728
:102C0000DEB7E9E00C9433289111DECF89EDB7CF20
:102C100090917402882321F09111C3CF8CEDDDCF08
:102C20009111C3CF8CEDABCF83EE0E94E91086E10A
:102C300039CFF8018581882391F28091740288232D
:102C400071F082EE0E94E91081EE0E94E9108DE29F
:102C50000E94B21181EE0E94771082EE90CF82EE38
:102C60000E94E91082E60E94B21189E50E94B21129
:102C70008DE50E94B21189E50E94B211EECFD80114
:102C800015968C91882309F4AACF82EE0E94B21186
:102C9000CD34BEE7DB0731F160F4CB34FEE7DF076C
:102CA000A1F0CC34DE47C9F08AE10E94B21181E183
:102CB0006DCFCE343EE7D307D1F0CF34DE47A1F756
:102CC0008BE00E94B21186E261CF8AE10E94B211CC
:102CD00089E00E94B21189E059CF8BE00E94B211C5
:102CE00083E254CF8BE00E94B21182E24FCF8BE09F
:102CF0000E94B21187E24ACF1092F7020E94FF08A9
:102D00000E942D0588579C4E9093F3028093F20207
:102D100081E080931E0363CFC23AF2E5DF0709F436
:102D20008BC008F071C0CE0190528115904208F41A
:102D300073C0C13ED10509F47FC0C53ED10509F479
:102D400068C080911E038111A4C0CE0197558F3FAA
:102D5000910511F008F040C0FE01FF27EA30F105AF
:102D60000CF03DCF64E0EE0FFF1F6A95E1F7DF0145
:102D7000A65FBE4F7D01D80115968C91E15FFE4F95
:102D8000908180FB90F99083882309F428C10E94E8
:102D90002D059093E8028093E702F70182818F5F0F
:102DA00082838091A1039091F702892B8383809184
:102DB000C40284834681578166857785C7010E9456
:102DC000F205D70115968C9181FF06C190E080E055
:102DD0009093A2038093A303F8018581882309F4CB
:102DE0002BC1C433FCE7DF0709F4A7C108F014C105
:102DF000C2333CE7D30709F41CC1C3338CE7D807BF
:102E000009F01AC181E016C1C23B82E5D80709F07A
:102E100090CF25EE30E012C0D80116968C91807FBD
:102E200009F087CF8D2F99278F71992782309105CF
:102E300019F0429771F37DCF21EE30E027703327F0
:102E400081E090E001C0880F2A95EAF72091750291
:102E500030911E03332359F0F8013581332321F0DB
:102E6000822B80937502BBCE80958223FACF322FBE
:102E7000382309F46ACF982F90952923209375025F
:102E80000E941609D80115968C91882309F4A7CEC3
:102E90005CCFE090F702F090C4020E942D058857A5
:102EA0009C4E9093F3028093F202F801858188236F
:102EB00009F44BCF8F2D8E298D7909F07FC0C03456
:102EC000F2E5DF0708F04DC0C11522E5D20708F092
:102ED0003CCFC11530E4D30758F4C11580E2D807C0
:102EE00008F05FC0C63ED10509F42FCF7E010BC0AC
:102EF000C11590E5D907D0F7F8018681807F09F4E4
:102F000024CF7E01FF248091AA0180FD63C08FEF52
:102F10000E940F09F8E2EF16F10450F02AE2E216DF
:102F2000F10408F44BC0C7018B97029708F446C020
:102F300034E0E31AF1088AE1E816F10428F48091FC
:102F4000A10382608093A10380917502882331F0F0
:102F50008091A10392E089278093A1030E94A10C94
:102F6000F4CEC03EA2E5DA07A8F4C03CB2E5DB0728
:102F700008F0EBCEC036E2E5DE0708F4B7CFC03A82
:102F8000F2E5DF0708F4E1CEC43B22E5D20709F4FD
:102F9000DCCEACCFCE0187579C47029708F0A6CF76
:102FA000D4CED80116968C91807F09F0AACF8D2FB0
:102FB0008F71843109F4C9CE863139F00E945510E1
:102FC000809175020E941D09C0CE76EEE72E72E157
:102FD000F72E99CF8DEF9CCF9C2F8D2FF9CEF70137
:102FE0004485558566857785C7010E94F205D7011E
:102FF00015968C9181FFF0CEC7010E94F30C809151
:10300000A2039091A303C817D90709F0E5CE109247
:10301000A3031092A203E0CEC6339CE7D90709F4BC
:1030200090C008F48CC0C733BCE7DB0729F485E007
:1030300001C080E00E94820CF8018581882309F498
:1030400041C0D7FF3FC00E94EF0580937702909167
:10305000F602913029F481FF03C089E30E94B21186
:103060008091F702809376021092F7021092A103EA
:103070008091F602823009F487C008F064C088238A
:1030800009F477C0813009F478C0AFE3BCE9119747
:10309000F1F700C00000BE017F7790E080E00E9461
:1030A00093128091F602823009F4A2C008F085C024
:1030B000882309F48EC0813009F48FC08091760294
:1030C0008093F7020E942D057C01F80185818823F9
:1030D00009F4A8C08091AA0182FF07C049EE52E01E
:1030E000B70190E080E00E94F112C431FCE7DF07F5
:1030F00009F494C0C5312CE7D20709F484C0C33168
:103100003CE7D30729F48091AA0181608093AA014A
:10311000CE0190528115904308F092C010921B038B
:1031200010921A03FE01E851FC47E730F10508F060
:1031300027C1EC53F74D0C94082882E07BCF83E045
:1031400079CF84E077CF843099F1853009F09DCF35
:1031500070E060E08BE191E00E949A1370E060E023
:1031600085E290E00E949A1370E060E088E290E0CF
:1031700008C082EE0E94E91088CF70E060E088E12C
:1031800093E00E949A1381CF8091770280FD03C063
:1031900083E50E94B21182EE0E94E9108FE39CE960
:1031A0000197F1F700C0000087E50E94B2116DCFD2
:1031B00086EE0E94B21188E1F8CF843011F185309B
:1031C00009F07CCF70E060E088E290E00E949A1302
:1031D00075CF82EE0E94771071CF8CE20E94B211FF
:1031E0008091770281FF6ACF89E30E94B21166CF96
:1031F00082EE0E9477108091770280FD5FCF83E599
:10320000F4CF88E2F2CF9091AA01892F8E7F90FFB0
:1032100081608093AA010E94330D7ACF8091AA0128
:103220008E7FF7CF8091AA018F7EC13ED10531F00C
:10323000C53ED105C1F48091AA018F7D8093AA017A
:103240008091AA0180FF6ECFF8018581CB32D10534
:10325000C9F078F49E012E5131092A30310590F0E1
:1032600081115CCF5FCFCE0190528115904340F722
:1032700059CFCD32D105A0F3C933D10518F0C436EA
:10328000D10571F7882309F457C08091C402909149
:10329000F702982B292F2D7F61F110921B031092BA
:1032A0001A03FE0144E0F695E7954A95E1F7EE0F23
:1032B000FF1FE850FD4F9E012F70332781E090E003
:1032C00002C0880F991F2A95E2F78095909520817A
:1032D00031818223932391838083CE010E94D9126E
:1032E0008091C4028D7F0E94050982E00E94180A25
:1032F00076CC29E0F801A9EEB2E001900D922A9572
:10330000E1F71092EC021092EB022091AA0191FBDE
:1033100021F92093AA018D7F0E940509D0931B03F8
:10332000C0931A03F0921903E09218038091AA0146
:1033300084608093AA01D9CFA801B701CE010E9471
:10334000F1124DCC26E241EE61EEC8010E94BB11A4
:1033500046CC27E245EE65EEF8CF26E241EE60EE80
:10336000F4CF27E245EE64EEF0CF26E241EE62EEC6
:10337000ECCF27E245EE66EEE8CF28E241E0EBCF66
:10338000D80115968C91882309F456C31092140421
:10339000CE019057839708F03BC384E090E00E94F1
:1033A00061289093AB038093AA03FE01E150F0479C
:1033B000E232F10520F4E553F74D0C940828809192
:1033C000AA0381608093AA0395C08091AB038860B3
:1033D0008093AB038FC08091AA038260F3CF80916A
:1033E000AA038460EFCF8091AA038860EBCF80911D
:1033F000AB038160EDCF8091AB038260E9CF809118
:10340000AA038061DFCF8091AA038062DBCF809125
:10341000AA038064D7CF0E94560D8091AA038068CA
:10342000D1CF8091AA038C60CDCF8091AB03836014
:10343000CFCF8091AA038E7FC5CF8091AB03877FCA
:10344000C7CF8091AA038D7FBDCF8091AA038B7FC8
:10345000B9CF8091AA03877FB5CF8091AB038E7FD0
:10346000B7CF8091AB038D7FB3CF8091AA038F7EBE
:10347000A9CF8091AA038F7DA5CF8091AA038F7BCE
:10348000A1CF0E94560D8091AA038F779BCF809188
:10349000AA03837F97CF8091AB038C7F99CF8091D4
:1034A000AA0382FB992790F921E0922790FB82F9E9
:1034B00090FB83F987CF8091AB03982F9095917003
:1034C0008E7F892B90FB81F983CF9091AA03892F5E
:1034D0008F7B96FF806476CF0E94560D9091AA0351
:1034E000892F97FB87F980586DCF61E08EE090E0DF
:1034F0000E9477286091AA037091AB0384E090E06A
:103500000E9495280E94560D6ACB60E0EFCF909103
:10351000AA03892F8F7E94FF806154CF9091AA03D4
:10352000892F8E7F90FF81604DCF9091AB03892FC3
:10353000877F93FF88604CCF85E379C285E385C29E
:103540000E94560DBFEFE4E3FCE0B150E040F040D4
:10355000E1F700C000000E940D056FEF7FEF90E0E3
:1035600080E00E9495280E9438108091AB0382FB76
:10357000882780F991E089270E948A0CF8018781C9
:103580009085009709F43FC00E94E107D82FC92F0A
:10359000F801C580B680B2943FE0B32280919B02CF
:1035A000877001F1EC2CCC20F1F0892F807F8034E2
:1035B00061F080E28D0F8830A8F0892F807E803204
:1035C00021F4D23078F0BB2069F08091AB0382FF08
:1035D00009C082E00E94180A80919B028770EE2445
:1035E000E3948111E12CDC2ED2942FE0D222FBE077
:1035F000FD1508F478C0ED2DF0E0E351F74D0C9483
:10360000082880E0B9CF8581C081D181882369F005
:10361000CE010E945709F82E682FCE010E94CB09D7
:10362000BE018F2D0E94C207AFCFCE010E94980924
:10363000F82EF6CF2C2F2F70F22EC07F19F0F294B7
:1036400090EFF922CC20A9F0FF2059F080E28D0FF5
:10365000883010F0D11107C08F2D0E941D090E94E3
:10366000A10C8D2F3EC08091A103F82AF092A103F6
:10367000F6CF8D2F0E947710FF20A9F180E28D0FE9
:10368000883010F0D11104C08F2D0E94160903C09C
:103690008F2D0E940F090E94A10C25C03C2F3F7066
:1036A000F32EC07FC03219F0F29480EFF822DD23B0
:1036B00051F0D13009F471C0CC2009F47DC0BB2099
:1036C00009F440C0CECF8091AB0382FD37C0CC203F
:1036D00079F1FF2029F08F2D0E941D090E94A10C75
:1036E00080E00E94E9102D2D2850330B2430310545
:1036F00010F40E94E205EE20B1F080919B0280FD63
:1037000012C0D80115961C928695869586950E94C2
:103710002F0AC8010E94D81480919B028695869535
:1037200086950E94060A60E0C8010E94460B67CA9F
:1037300080E00E947710FF20B1F2A6CFCC2099F054
:10374000B11004C08F2D0E947010CDCF81E0B8124F
:10375000CACF8091C4029F2D9823F91621F2F82A2E
:10376000F092C402C0CFB110BECF8F2D0E9469105D
:103770009091C4028F2D892329F08F2D8095892364
:103780008093C402809179029F2D982309F4ABCFD6
:10379000F094F822F0927902A6CFCC2029F095E09F
:1037A0009B1508F4A0CFCECFA4E0AB1508F49BCFB7
:1037B0008F2D0E94691097CFBB20D1F3D93349F4E4
:1037C000BFEFE7EEF3E0B150E040F040E1F700C0BA
:1037D00000008D2F0E94771086CF8C2F86958695BE
:1037E000837069F0813009F07ECF8D2F9C2F93700C
:1037F000C11002C080E090E00E94980574CF8D2F28
:103800009C2F9370C11002C080E090E00E94BD0523
:103810006ACF6C2D8D2F0E946E0A65CF8C2F83701E
:1038200009F03FC0C1105FCF4D2F429546954770BC
:10383000440F440F2D2F2F7030E0042E02C0220FB2
:10384000331F0A94E2F790E080E0D4FF09C08FE0D4
:1038500090E002C0880F991F4A95E2F780959095F5
:10386000C695C695C370C23099F078F44091D202E3
:103870005091D302C13039F0822B932B84239523AE
:103880000E943F0A30CF242B352B822B932BF8CF6D
:10389000822B932B2091D2023091D302822793273F
:1038A000EFCF8695CC2011F08C2F8170882309F4FE
:1038B0001ACF4D2F429546954770440F440F2D2F38
:1038C0002F7030E0042E02C0220F331F0A94E2F75B
:1038D00090E080E0D4FF09C08FE090E002C0880F44
:1038E000991F4A95E2F780959095C695C695C37045
:1038F000C23099F078F44091D4025091D502C13091
:1039000039F0822B932B842395230E94010AEBCE5E
:10391000242B352B822B932BF8CF822B932B2091AA
:10392000D4023091D50282279327EFCFCF70CC20DD
:1039300029F08C2F0E942F0A8D2F05CF8D2F0E94EA
:1039400069108C2F0E94060ACECED23F71F160F42E
:10395000D03FB9F0D13F81F0CC2009F454C0B11070
:1039600080CE8C2F8F7125C0D33F31F1D43FA1F78A
:103970009091AB0392FD2EC08C2F8F71CC2011F350
:1039800018C0CC2069F024E02B1508F4ACCECF7120
:1039900081E090E002C0880F991FCA95E2F7BFCF7F
:1039A00035E03B1508F49FCEF2CF8C2F8F71C110FC
:1039B000C9CF0E942F0A97CE90E080E0CC2009F476
:1039C000A4CFCF7181E090E002C0880F991FCA9503
:1039D000E2F79BCFCC2061F08C2F8F7192FFE9CF63
:1039E00098E0899F90011124236020939B02E1CFEE
:1039F00081E00E94180AA1E0AB1508F074CE82E0C5
:103A00000E94180A70CEB110D9CE8C2F8F719ACF28
:103A1000C631BCE7DB07E1F48091F7028A7A91E0D6
:103A200009F490E090937802811186CD89E20E949A
:103A300064050E94A10CD3C8C631DC4709F09ECDB5
:103A40008091780281117ACD89E20E943905F1CF07
:103A5000C330FCE7DF0709F480CD50F4C1153CE723
:103A6000D30709F46DCDC130DC4709F47CCD86CD98
:103A7000CB359CE7D90709F4C4CDCC35ACE7DA07E0
:103A800009F473CDCA35DC4709F078CD81E074CDF7
:103A9000CF93DF9380919802807F09F04DC0809191
:103AA0009702882309F448C0E09111045091C8039B
:103AB000C0919302D091920260919402709195020C
:103AC00049E05E17C9F18E2F90E0E49FF0011124C8
:103AD000E753FC4F2481222391F1489FF001499F35
:103AE000F00D1124DF01A753BC4F11962C911197B3
:103AF0002C1325C02C912D1322C015962C911597AF
:103B000021111DC012962D913C91261B370B283C8C
:103B10003105A8F4809198028F708061809398029B
:103B2000E153FC4F80818F708061808382E992E055
:103B30000E94D8140E944D09DF91CF910895FC0195
:103B40003196E770BECFA8E1B0E0E9EAFDE10C9460
:103B500011288C0186E0F801DE01539601900D9248
:103B60008A95E1F7D8011496FC9014971596EC907D
:103B700082E9682E82E0782E8091960281112AC017
:103B8000F11003C0FF24F3941CC0EE20F9F0C8012B
:103B90000E94440AF82E8823C9F089E0F801A2E9BE
:103BA000B2E001900D928A95E1F780919602813002
:103BB00031F480919202909193020E948B090E94AD
:103BC000481D8F2D6896EFE00C942D28C8010E94A7
:103BD000D814D8CFF8015080A1808280938060E013
:103BE00082E992E00E94460B6C01B09097028091AE
:103BF000940290919502BB2009F46AC19401281B9C
:103C0000390B283C310508F008C1FF2009F4BACF70
:103C100020919302D80111969C911197809198025E
:103C2000382F307F09F0A7C0FE2C29131EC0209129
:103C300092029C91291319C04091990250919A02C5
:103C400017962D913C914217530779F4E1108CC0DF
:103C50008F7080618093980282E992E00E94D8146C
:103C600080919802F8018683ACCFE1107DC06A2D67
:103C7000852D0E949103E82E882309F448C0FCE2B8
:103C8000CF16F3E4DF0669F020F531E1C31632E325
:103C9000D30639F090F4A7E1CA16A2E2DA0609F0D9
:103CA00090CF82E992E00E94D81489E0E2E9F2E044
:103CB000DF011D928A95E9F784CFBDE1CB16B2E40E
:103CC000DB0679F3E8E3CE16E2E4DE0609F079CF0D
:103CD000E8CFFAE2CF16F6E4DF0619F360F43BE230
:103CE000C31634E4D306E9F289E2C81685E4D8069F
:103CF00009F067CFD6CFA8E2CA16A7E4DA0689F2A0
:103D0000BCE4CB16B8E4DB0609F05BCFCACF5B8A14
:103D1000AC8A8B899C890E948B09292F22952F7050
:103D2000243058F49F70223088F0992399F0F801DC
:103D30009681907F79F4FE2C44CF2A5F2F70223039
:103D400068F0C8010E94D814EB2CF5CF992311F02C
:103D5000882389F3805E883070F3F3CF803F58F377
:103D6000815F833070F7E7CF809198028160809304
:103D70009802F12C26CF291321C0209192029C9108
:103D800029131CC04091990250919A0217962D91C7
:103D90003C9118974217530789F4E1100FC016960B
:103DA0008C93C8010E94D81489E0F801A2E9B2E01E
:103DB00001900D928A95E1F7FB2C03CFC8010E9478
:103DC000440A882309F402CFEE2009F4FFCE809143
:103DD00098028032B8F020919202309193023B8792
:103DE0002A879D868C86909196029E871F86888B57
:103DF0008091990290919A029A8B898BCE010A96B2
:103E00000E94D81489E0F801A2E9B2E001900D9275
:103E10008A95E1F70E94481DB5CE80919802982FAF
:103E2000907F51F482E992E00E94D81489E0F30176
:103E300011928A95E9F79DCFFF2009F4A3CE209136
:103E40009302D80111969C91119729131DC02091BE
:103E500092029C91291318C04091990250919A02A4
:103E600017962D913C9118974217530769F4E1106A
:103E70000BC016968C93C8010E94D81489E0F301F8
:103E800011928A95E9F798CFC8010E94440A8823C5
:103E900009F49CCEEE2009F499CE809198028032EC
:103EA00008F4B0CF20919202309193023A83298393
:103EB0009C828B82909196029D831E828F8380913B
:103EC000990290919A0299878887CE01019698CF9E
:103ED000881A990AF8EC8F16910408F0A7CFFF20F2
:103EE00009F450CEFE2CEE2009F470CE909193028E
:103EF000D80111968C911197981318C09091920245
:103F00008C91981313C02091990230919A021796C0
:103F10008D919C912817390749F489E0F801A2E9AD
:103F2000B2E001900D928A95E1F74BCEC8010E9454
:103F3000440A811167CF8091980281608093980232
:103F4000C8010E94D8143DCEA2E1B0E0EAEAFFE148
:103F50000C941C280A871B872C873D874E875F8718
:103F6000688B798B8A8BCE010A960E94A31D8111E2
:103F70000CC089E0FE013A96DE01119601900D9287
:103F80008A95E1F78E8581110BC019E080911104AB
:103F90009091C803891331C06296E4E00C943828EC
:103FA0002091C80330E0C90101968770992740919C
:103FB00011044817190699F099E0929FD001939F38
:103FC000B00D1124A753BC4FFE01319601900D9204
:103FD0009A95E1F78093C8030E944D09D6CF0E94BD
:103FE000560D1092C8031092110489E0E2E9F2E044
:103FF000DF011D928A95E9F7C8CF819FC001112486
:1040000087539C4F0E94A31D882331F28091110495
:1040100090E001968770992780931104B7CFEF92B3
:10402000FF920F931F93CF93DF93809120038823F8
:1040300061F0E0911F038DE0F82E80912003E817D6
:1040400048F01092200310921F03CDB7DEB7E6E0D0
:104050000C943628EE24E394EE0EE0921F03CE2F4C
:10406000D0E0EF9DF0011124EF5DFC4F84818823A7
:1040700031F187819085892B21F481859285019684
:1040800059F40081118122813381448155816681F7
:10409000778180850E94A41FFC9EF001FD9EF00D9B
:1040A0001124EF5DFC4F148280911E03882349F098
:1040B0008091AA0180FF05C08DEF0E940F09EE2DAF
:1040C000BCCF8FEFFACF109294031092930310920B
:1040D000FF0180919203809391030E94A6060E94A3
:1040E0000F200895B0E0A0E0E8E7F0E20C940E287D
:1040F000C091910397E0892E01E010E02DE0922E0F
:1041000034E0232E809192038C1309C00E940F206B
:104110000E94A606CDB7DEB7E2E10C942A28D0E0D3
:10412000FE01EE0FFF1FE757FC4F80819181B0E049
:10413000A0E08C30910538F4889ED001899EB00DA6
:104140001124A555BE4F14962C911497211152C0DD
:104150003090200341E253E030E020E0412C231571
:1041600008F046C0FA01C384D4846D907C90119706
:104170006FEF7FEF512CA52CB12CF501EE0FFF1F37
:10418000E60DF71DE590F490CE14DF0409F4B501B7
:10419000E114F10411F05394EECF6F3F760779F1FB
:1041A000F80102C0EE0FFF1F6A95E2F74E2AB80130
:1041B000052C02C0660F771F0A94E2F7615071095F
:1041C00046161706D1F412964D915C911397929E64
:1041D000F001939EF00D1124EF5DFC4F5087478353
:1041E00024821082118292878187F1E01596FC93D8
:1041F0000E9473062196C37085CFFA0114822F5F47
:104200003F4F435F5F4FABCFAEE1B0E0EAE0F1E29A
:104210000C940E284B8B5C8B6D8B7E8B8F8B988FC9
:1042200091111092A103188A198A1A8A86E0FE0158
:104230007396DE011A9601900D928A95E1F78E85AC
:10424000882389F061E0CE010A960E94460B6C013A
:104250008F8520E5C2162CE7D20689F4882329F140
:1042600081E08093FF010A851B852C853D854E8565
:104270005F85688979898A890E94A41FC8C031E551
:10428000C3163CE7D30629F4882379F00E94632003
:10429000EACF42E5C4164CE7D40639F4882329F066
:1042A0008091FF018111F2CFDBCFFBEAEF2EF1E02D
:1042B000FF2E512CB12CA12C88248394912CB7E093
:1042C0004B2ECE0101969A8F898F33243394F701B8
:1042D0004081518166246A94762C60E0262F30E07C
:1042E000F901EE0FFF1FE40FF51F85919491C81699
:1042F000D90609F43901892B11F06F5FEFCF10E077
:10430000FFEF6F167F0609F443C0F7014481109157
:10431000FF01812F411180E0182F1170F7012580D6
:1043200086819F85992309F4F9C0112309F4F6C009
:10433000211014C09401062C01C0220F0A94EAF740
:10434000822B868380911C0390911D03C29730F4C9
:1043500022E330E030931D0320931C03C40102C00C
:10436000880F991F6A95E2F70197F70126812817B0
:10437000190671F48091930390919403009709F4C6
:104380004AC00E941E05C39708F445C0F701348255
:10439000512AFFEFAF1ABF0A27E0E20EF11C3CE002
:1043A000A316B10409F093CF8F85882309F415C1B2
:1043B000552009F412C10E942D0590939403809317
:1043C000930380912003883010F591E0980F90932B
:1043D000200399E0FE013A96DE01119601900D92BC
:1043E0009A95E1F74DE0849FC00111248F5D9C4FA9
:1043F00029E0FE013196DC0101900D922A95E1F74A
:104400002FEF3FEFFC0132872187D486C3866E965B
:10441000E2E10C942A288091910360919203982FF5
:10442000F0E0E0E0861314C090939103EE15FF05D1
:1044300009F4AECF90E0FC01EE0FFF1FE757FC4FF1
:10444000B182A08201968370992780939203A0CFB6
:10445000682E712CF301EE0FFF1FE757FC4F2081F0
:104460003181B0E0A0E02C30310538F4429ED0011B
:10447000439EB00D1124A555BE4F2D913C9111972F
:104480003E8F2D8F00E070E0212CE22DF0E0EE0F4A
:10449000FF1F2D8D3E8DE20FF31F259134912115C5
:1044A0003105E1F0F7010190F081E02DFC8FEB8FF9
:1044B00070E005C02417350709F4012F7F5FE72F4F
:1044C000F0E0EE0FFF1F4B8D5C8DE40FF51F459163
:1044D00054914115510571F72394D7CF002329F04A
:1044E000721530F0FD01109721F4F0E0E0E010C00B
:1044F000F7013482EE16FF0621F490939103102FFA
:1045000047CF981305C0AE17BF0711F49F5F937094
:1045100093012F5F3F4F822F837084CF90E0211053
:104520001FC0940102C0220F331F6A95E2F7215089
:1045300031092817390731F4442309F44CC0C50167
:104540000E947306C401062C01C0880F0A94EAF782
:10455000982F9095F701868189238683122D18CF95
:10456000AC01062C02C0559547950A94E2F7BA01B2
:10457000617077279C012150310982239323892B75
:1045800031F5672B21F1F70182819381892BE1F0CD
:10459000E98DFA8D242D11922A95E9F70E942D05B7
:1045A000282F8B839C8334E03D83F70182819381A4
:1045B000782F8887998709811A813C8144E05E8140
:1045C0006F81892F0E94A41FF7011582BBCFF42FA2
:1045D000F1702F2EB7CF212EB5CF909191038091FE
:1045E0009203981729F00E947220511010CF3BCEF1
:1045F0000E940F2010929403109293030E94A6062B
:10460000F4CFA6E0B0E0E7E0F3E20C941C280E94AF
:104610002D058C018091C5029091C60280179107EB
:1046200081F019821A820E942D05682F49815A81D2
:10463000792F80E090E00E9404211093C60200933D
:10464000C5022696E4E00C9438281F920F920FB60C
:104650000F9211242F933F934F935F936F937F9308
:104660008F939F93AF93BF93CF93DF93EF93FF937A
:10467000D091E900DF708091EC00C82FC17080FDFF
:10468000C0E81092E9008091F000877F8093F000ED
:1046900078940E94870D1092E9008091F000886064
:1046A0008093F000CD2BCF70C093E900FF91EF9184
:1046B000DF91CF91BF91AF919F918F917F916F913A
:1046C0005F914F913F912F910F900FBE0F901F90D0
:1046D00018951F920F920FB60F9211242F933F93AC
:1046E0004F935F936F937F938F939F93AF93BF93FA
:1046F000EF93FF938091E10082FF09C08091E20077
:1047000082FF05C08091E1008B7F8093E100809162
:10471000DA0080FF24C08091D80080FF20C0809103
:10472000DA008E7F8093DA008091D90080FF9DC0EF
:1047300080E189BD82E189BD09B400FEFDCF81E041
:104740008093BE038091B103811109C00E94B00320
:104750000E9451048091E20084608093E200809185
:10476000E10080FF17C08091E20080FF13C08091BC
:10477000E2008E7F8093E2008091E200806180936E
:10478000E2008091D80080628093D80019BC85E057
:104790008093BE038091E10084FF2BC08091E200F2
:1047A00084FF27C080E189BD82E189BD89B5982F4A
:1047B000917080FFFBCF8091D8008F7D8093D800CF
:1047C0008091E1008F7E8093E1008091E2008F7EF6
:1047D0008093E2008091E20081608093E20080910A
:1047E000BF03882309F447C084E08093BE0380910F
:1047F000BE038091E10083FF27C08091E20083FF28
:1048000023C08091E100877F8093E10082E0809364
:10481000BE031092BF038091E1008E7F8093E10080
:104820008091E2008E7F8093E2008091E2008061BF
:104830008093E20042E060E080E00E941F048091EB
:10484000F00088608093F000FF91EF91BF91AF91ED
:104850009F918F917F916F915F914F913F912F9198
:104860000F900FBE0F901F90189519BC1092BE03A9
:104870001092B10374CF8091E30087FD93E0909391
:10488000BE03B5CF78941F921FB61F9211248F9349
:104890009F93AF93BF938091AD039091AE03A0918E
:1048A000AF03B091B0030196A11DB11D8093AD037C
:1048B0009093AE03A093AF03B093B003BF91AF91B9
:1048C0009F918F911F901FBE1F9018951F921FB62A
:1048D0001F9211248F939F93AF93BF938091AC034A
:1048E000811113C08091AD039091AE03A091AF03ED
:1048F000B091B0034196A11DB11D8093AD0390937B
:10490000AE03A093AF03B093B003BF91AF919F915B
:104910008F911F901FBE1F901895CDB7DEB72E97B1
:104920000FB6F894DEBF0FBECDBF85B7806885BFD8
:1049300085B7806885BF84B7877F84BF0FB6F8943A
:10494000A89580916000886180936000109260005B
:104950000FBE80E890E00FB6F894809361009093CA
:1049600061000FBE88EB96E090934B0280934A0261
:104970000E94B0030E9451048091E2008460809301
:10498000E20078948091BE038823A1F01091E900A1
:104990001F709091EC00892F817090FD80E8182B9A
:1049A0001092E9008091E80083FD0E94870D1F703E
:1049B0001093E90082E084BD93E095BD9AEF97BD26
:1049C00080936E0086EF0E94BA0685EF0E94BA06B9
:1049D00084EF0E94BA0681EF0E94BA060EE312E04D
:1049E000D8018D918D018F3F11F00E94BA06B2E07F
:1049F0000A341B07A9F788E0E6EDF2E0DF01282F73
:104A00001D922A95E9F7EAECF2E0DF011D928A9502
:104A1000E9F790E080E00E946128853E9E4F09F40E
:104A200061C065EE7EEF90E080E00E94952860E036
:104A300082E090E00E94772881E090E09093D3029A
:104A40008093D20261E083E090E00E94772860E0EA
:104A500074E184E090E00E94952860E086E090E0B8
:104A60000E94772860E087E090E00E94772840E08D
:104A700050E0BA0188E090E00E94892860E083E27B
:104A800090E00E94772860E08CE090E00E94772818
:104A900060E08DE090E00E94772819821A821B82E4
:104AA0001C821D821E821F82188648E050E067E14A
:104AB00070E0CE0101960E94672840E050E0BA0104
:104AC0008FE190E00E94892840E050E0BA018FE039
:104AD00090E00E94892840E050E0BA0183E190E034
:104AE0000E94892882E090E00E9459288093DE028B
:104AF00084E090E00E9461289093AB038093AA0326
:104B00000E942614EFEFF6E721E0E150F04020404C
:104B1000E1F700C000000E9426148091D60280FFB9
:104B200008C06FEF7FEF90E080E00E9495280E9420
:104B30000D0583E090E00E94592890E00E943F0A12
:104B40008CE090E00E9459288093F60280E091E08A
:104B50009093A7038093A60357EE652E52E0752E1F
:104B600044244394222423948091BE03853049F445
:104B70008091BE03853009F462C00E94560D0E94E8
:104B8000E2050E9426143FEDA32E32E0B32E46ED3F
:104B9000842E42E0942ED401F501219131918D9122
:104BA0009D916E167F0609F480C028173907A9F376
:104BB000512CF401019111914F01D501CD90DD905F
:104BC0005D01C016D10659F1C026D126312CEE2444
:104BD000E394F12CC6018E219F21892BB1F03986F7
:104BE0005A860E942D059C878B872D8691E098011F
:104BF0002E213F21232B09F490E09E8749855A8579
:104C00006B857C858D850E9404213394EE0CFF1CFE
:104C1000BCE03B12DFCFF501329711830083539440
:104C2000E4E05E12C6CF8FB7F8944091AD03509187
:104C3000AE036091AF037091B0038FBF3CC0809111
:104C4000BE03843021F11092AC0348E150E080E4CF
:104C50000FB6F894A895409360000FBE8093600053
:104C600083B7817F846083BF83B7816083BF78947B
:104C7000889583B78E7F83BF0FB6F894A8958091EF
:104C80006000886180936000109260000FBE0E94F7
:104C90002614E6EDF2E081919191892B09F07AC119
:104CA00092E0EE3DF907B9F763CF2817390709F00D
:104CB0007FCF0E9401230091A2031091A30301154D
:104CC0001105E9F08091E7029091E8020E941E052B
:104CD000893C9105A0F0112790E080E00A30110591
:104CE00040F484E0000F111F8A95E1F7C801865F48
:104CF0009E4FDC0115962C9122FF0E940C0D809195
:104D0000FF01882301F18091930390919403009710
:104D1000D1F00E941E0520911C0330911D0328171D
:104D2000390788F49091910380919203981709F4C0
:104D30001CC10E94722010921D0310921C0310923D
:104D40009403109293038091AA0182FF15C00E94E0
:104D50002D052091180330911903FC01E21BF30B80
:104D6000E83CF10548F049EE52E0BC0180911A039D
:104D700090911B030E94F11280911E03882369F019
:104D80000E942D052091F2023091F302821B930BB9
:104D90008F3F9F4710F40E94551086E0EBE9F3E047
:104DA000DE01119601900D928A95E1F7D0909C0357
:104DB00000919D03F0909E03E0909F031091A0034B
:104DC00010929D0310929E0310929F031092A003D5
:104DD000802F8F2909F445C08091990390919A03FF
:104DE0000E941E059C0190919503992309F4F8C037
:104DF00021313105B0F19F3F19F09F5F90939503EA
:104E0000002359F00E9441069FEF10160CF491E028
:104E1000899F802D112480939D03FF2059F00E94CB
:104E2000410691E01F140CF09FEF899F802D112403
:104E300080939E0380919D03882399F0C0909E03E8
:104E4000CC2079F00E946506882309F497C08093EE
:104E50009D038C2D0E946506882309F492C08093DF
:104E60009E038E2D812B09F445C08091970390916C
:104E700098030E941E059C019091F402992309F465
:104E8000ABC021353105B0F19F3F19F09F5F909382
:104E9000F402EE2059F00E941F069FEF1E140CF43E
:104EA00091E0899F802D112480939F03112359F055
:104EB0000E941F0691E011160CF09FEF899F802D34
:104EC00011248093A00380919F03882399F0E090A0
:104ED000A003EE2079F00E946506882309F454C0EF
:104EE00080939F038E2D0E946506882309F44FC08E
:104EF0008093A00380919C038D1117C080919D0326
:104F0000882311F0801311C020919E03222311F0F9
:104F10002F110BC09091A003992311F0911305C09C
:104F200030919F03332309F452C00E94F80586E0B4
:104F3000FE013196ABE9B3E001900D928A95E1F75D
:104F40000E94E2059091F502891709F40DCE809335
:104F5000F5028FB7F8944091AD035091AE03609184
:104F6000AF037091B0038FBFFFCD0E940F2010924E
:104F70009403109293030E94A606E5CE40929D03EF
:104F800068CF40929E036DCF40929F03ABCF40927B
:104F9000A003B0CF8091BD03882309F4E9CDA0E13F
:104FA000A9BDB2E1B9BD09B400FEFDCF8091D80022
:104FB0008F7D8093D8008091E00082608093E00034
:104FC0008091E00081FDFCCF0E94560DD1CD822B57
:104FD000892B09F4ACCFA9CF232B09F057CF8ACF67
:104FE000232B09F00ACF3DCF97FB072E16F4009430
:104FF00007D077FD09D00E94452807FC05D03EF474
:10500000909581959F4F0895709561957F4F089574
:10501000EE0FFF1F0590F491E02D09942F923F921F
:105020004F925F926F927F928F929F92AF92BF92B8
:10503000CF92DF92EF92FF920F931F93CF93DF9364
:10504000CDB7DEB7CA1BDB0B0FB6F894DEBF0FBEC1
:10505000CDBF09942A88398848885F846E847D840E
:105060008C849B84AA84B984C884DF80EE80FD8010
:105070000C811B81AA81B981CE0FD11D0FB6F89486
:10508000DEBF0FBECDBFED010895AA1BBB1B51E1D2
:1050900007C0AA1FBB1FA617B70710F0A61BB70BA8
:1050A000881F991F5A95A9F780959095BC01CD014D
:1050B0000895F999FECF92BD81BDF89A992780B5E0
:1050C0000895A8E1B0E042E050E00C949D28DC0196
:1050D000A40FB51F4150504048F0CB01840F951FDD
:1050E0002E910E94782841505040D0F70895262FE5
:1050F000F999FECF92BD81BDF89A019700B40216CE
:1051000039F01FBA20BD0FB6F894FA9AF99A0FBE7B
:1051100008950396272F0E9478280E947728252F2C
:105120000E947828242F0C9478280196272F0E941B
:1051300078280C947728DC01CB01FC01F999FECF8B
:1051400006C0F2BDE1BDF89A319600B40D9241500F
:105150005040B8F70895FB01DC0104C08D91019027
:10516000801921F441505040C8F7881B990B0895CD
:10517000F894FFCF660E8E0E26108E0E2610C10EEE
:10518000E20E2610DF0FEC0FAD19B119A219A91903
:10519000B519B919BD19191A8E1A211AEB19EF1977
:1051A000251AF319291A351AFF19871A031A391AF9
:1051B000071A3D1A651A0B1A411A6C1A111A471A66
:1051C0004F1AF7192D1AFB19311A151A4B1A5B1AB7
:1051D000751A851AE5191D1A951A1A1B1A1B4E1BEA
:1051E0004E1BED1B091C731B731B0E1C961CA51C70
:0251F000A51CFC
:1051F2000A056E0C670C600C590C000000000000E0
:105202000000100C00000000000000000000000080
:105212000000020C0000000000000000000000007E
:105222000000F40B0000000000000000000000007D
:105232000000E60B0000000000000000000000007B
:105242000000D80B00000000000000000000000079
:105252000000CA0B00000000000000000000000077
:105262000000BC0B00000000000000000000000075
:105272000000A70B0000000000000000000000007A
:105282000000ED130000000000000000000000001C
:105292000000B41300000000000001FA00405200B8
:1052A2000000F4004052000000EE004052000000F6
:1052B200E8004052000000E2004052000000DC0022
:1052C2004052000000D4004152000000CC00415284
:1052D200000000C4004152000000BC004152000026
:1052E20000B4004152000000AC0041520000000135
:1052F20001818283E200E900EA00B500B600B7004E
:10530200CD008301CC008A01920194012102230283
:1053120024022502260227022A02B300B4006F00EB
:1053220070009F01CB019F02A002F6F5F4F1F7C2D3
:0A53320067663635979694959392BE
:00000001FF
