:100000000C9448030C9465030C9465030C946503ED
:100010000C9465030C9465030C9465030C946503C0
:100020000C9465030C9465030C94F41F0C94B01F9E
:100030000C94F1200C9465030C9465030C946503F7
:100040000C9465030C9465030C9465030C94650390
:100050000C9465030C94CD200C9465030C946503FB
:100060000C9465030C9465030C9465030C94650370
:100070000C9465030C9465030C9465030C94650360
:100080000C9465030C9465030C9465030C94650350
:100090000C9465030C9465030C9465030C94650340
:1000A0000C9465030C9465030C94650314381A349E
:1000B000093113320500000000000D000F22182145
:1000C0001C34342804281524162117220A000000A5
:1000D00000001000113208310C2412381D421B00A0
:1000E000060007001900000000000E000B0036009B
:1000F0003700384200000000000029452C432B4403
:1001000028472A464C4800000000000014001A004E
:10011000080015001700000000001C0018000C006B
:100120001200130004001600070009000A00000076
:1001300000000B000D000E000F0034001D001B001E
:100140000600190005000000000011001000360034
:100150003700380000000000000029452C432B44E4
:1001600028472A464C480000000000001D011B01E2
:10017000060108571C01000000001C010857060179
:100180001B011D01E300E200E000E1001D01000091
:1001900000001D01E100E000E200E3001D011B0181
:1001A000060108571C01000000001C010857060149
:1001B0001B011D01000000000000D300D100D2008F
:1001C000D200D100D300000000000000B852B452A9
:1001D000B152B2520000000000001C010857060195
:1001E0001B011D01A852A452A152A25200000000FE
:1001F0000000737C5000510052004F005300507EAD
:100200000057065700000000000049004A004E0059
:100210004B004D0000000000000000000000000046
:1002200028002A004C00000000000000B852B45220
:10023000B152B252DF00000000001C010857060155
:100240001B011D01A852A452A152A252DE000000BF
:1002500000003900CF00CE00CD00D000000000002B
:1002600001570657DD00000000000000447E457E77
:10027000467E477E000000000000000000000000F5
:10028000D200D100D300000000000000B852B452E8
:10029000B152B2520957000000004A7E427E407EB1
:1002A000417E437EA852A452A152A25247000000B0
:1002B0000000487EAC00AA00A900AB00007C0757F4
:1002C000025706574800000000004B7E4D7E4F7ECF
:1002D0004E7E4C7E00000000000000000000000088
:1002E000AD00AE00A8000000000000002F002400B8
:1002F000250026003000000000000000A252A1529C
:10030000B452A85233002100220023002E00000026
:1003100000002C00B252B152A452B85235001E0057
:100320001F002000310000000000000006570357A6
:1003300037003800000000000000370027002D00C3
:100340000000000000000000000000002F02240256
:10035000250226023002000000000000A252A15235
:10036000B452A85233022102220223022E020000BC
:1003700000002C00B252B152A452B85235021E02F3
:100380001F0220023102000000000000065704573F
:100390003700380000000000000026022702497ED6
:1003A00000000000000000000000000045004000C8
:1003B000410042006A00000000000957A252A15209
:1003C000B452A85244003D003E003F0069000000C6
:1003D00000004700B252B152A452B85243003A0052
:1003E0003B003C006800000000004800065705572D
:1003F0000757007C00000000000065002C002B0067
:10040000000000000000000000000000B852B452DC
:10041000B152B25200000000000055005F006000C1
:1004200061005600A852A452A152A2522A00000014
:10043000000067005C005D005E00570053006952D9
:1004400000006952000000000000540059005A00EA
:100450005B00580000000000000029002C002B0069
:100460008500620063000000000000000000000042
:10047000000000000000000000000000000000007C
:10048000000000000000000000000000000000006C
:100490007E0F00D4FFFFFFC70000007800000000BF
:1004A000000000002A2B28000000000000000000CF
:1004B0000000000000000029000000002C1E342075
:1004C000212224342627252E362D3738271E1F209B
:1004D0002122232425263333362E37381F040506E0
:1004E0000708090A0B0C0D0E0F1011121314151624
:1004F0001718191A1B1C1D2F3130232D3504050622
:100500000708090A0B0C0D0E0F1011121314151603
:100510001718191A1B1C1D2F3130354C0501090203
:10052000A10185020901A100050919012908150089
:1005300025019508750181020501093009311581F0
:10054000257F95027508810609381581257F95015B
:1005500075088106050C0A38021581257F950175FD
:10056000088106C0C005010980A101850319012A7F
:10057000B700150126B700950175108100C0050C64
:100580000901A101850419012AA002150126A00272
:10059000950175108100C005010906A101850605B8
:1005A0000719E029E7150025019508750181020565
:1005B00007190029EF1500250195F0750181020545
:1005C0000819012905950575019102950175039199
:1005D00001C005010906A101050719E029E7150079
:1005E00025019508750181029501750881010507AE
:1005F000190029FF150026FF0095067508810005E2
:100600000819012905150025019505750191029527
:100610000175039101C009023B00020100A0FA0923
:10062000040000010301010009211101000122441D
:10063000000705810308000109040100010300000F
:100640000009211101000122B600070582032000E4
:100650000112010002000000080912032301000139
:100660000200010E03410074007200650075007302
:1006700000000016034B006500790062006F006106
:10068000007200640069006F0000000403090400A8
:1006900011241FBECFEFDAE0DEBFCDBF11E0A0E036
:1006A000B1E0E4EBFAE402C005900D92A63FB10779
:1006B000D9F723E0A6EFB1E001C01D92A533B20740
:1006C000E1F70E9418210C9419250C940000482F82
:1006D000209131039091F80257E0291302C080E085
:1006E000089530E0529FF001539FF00D1124E75020
:1006F000FD4F8181681306C08081481303C0858146
:100700008111EECF2F5F3F4F2770E7CFE8EDF0E08C
:1007100080818E7F80831092E2001092DA00109226
:10072000E100A0EEB0E08C9181608C9380818F77A6
:10073000808319BCA7EDB0E08C918E7F8C93808173
:100740008F7E80831092E10208952091E400309121
:10075000E50095E6A9012091EC00822F817020FF31
:1007600006C08091E80080FF06C080E008952091D7
:10077000E80022FD1AC08091EE02882389F08530BE
:1007800089F08091EB0085FD0FC02091E40030914D
:10079000E50042175307F9F29150E1F684E008951D
:1007A00082E0089583E0089581E008958091F00249
:1007B00087FF13C08091E80082FF06C08091E800A7
:1007C0008B778093E80004C08091EE028111F2CF14
:1007D00008958091EE028823D9F38091E80080FF8C
:1007E000F8CF8091E8008E77ECCF982F9093E900B6
:1007F000242F762F50E0891731F07091EC00209172
:10080000ED005091F00021FD07C09F5F973071F718
:100810008093E90081E008953091EB003E7F3093B2
:10082000EB003091ED003D7F3093ED003091EB0017
:1008300031603093EB007093EC002093ED00509307
:10084000F0002091EE0027FDE0CF80E00895B0E0B9
:10085000A0E0EDE2F4E00C947924C8EDD0E08881CA
:100860008F7E8883E7EDF0E080818160808384E083
:1008700082BF81E08093E10288818E7F888302EECF
:1008800010E0F80110821092DA0081EEC82ED12C0F
:10089000F601108288818F778883888180688883B9
:1008A00088818F7D888319BC1092EE021092EF022E
:1008B0001092ED021092EC0290EEE92EF12CF7016D
:1008C00080818B7F808388818160888342E060E0C3
:1008D00080E00E94F503F60180818E7F8083F8011D
:1008E000808181608083808188608083F70180813E
:1008F0008E7F8083888180618883CDB7DEB7E8E012
:100900000C949524FC018091F6029091F7028617D1
:100910009707A0F06115710529F49091E8009E7782
:100920009093E80090E06115710551F4911108C0B1
:100930008091E80082FF34C080E00895BC01F2CFCE
:100940008091EE028823C1F18530C1F18091E800E9
:1009500083FD30C08091E80082FDEACF8091E800FD
:1009600080FFE1CF8091F3002091F200382F6115D4
:10097000710519F02830310558F091E02830310523
:1009800009F090E02091E8002E772093E800CBCF8B
:1009900081918093F100615071092F5F3F4FE7CF44
:1009A0008091EE02882341F0853041F08091E8008B
:1009B00083FFBECF81E0089582E0089583E008952B
:1009C0008091E302089587E797E790930108809369
:1009D000000888E19AE00FB6F894A895809360002B
:1009E0000FBE90936000FFCF9C014FB7F8948091A9
:1009F000DD029091DE02A091DF02B091E0024FBFD4
:100A0000821B930B08952FB7F8948091DD0290918B
:100A1000DE02A091DF02B091E0022FBF0895909115
:100A2000AB019923D1F09091DA0297FF16C0E82F1D
:100A3000E695E695E695EE31E0F4F0E0E050FE4F05
:100A4000282F277081E090E001C0880F2A95EAF7EF
:100A500080959281892382830895EAEFF1E0919154
:100A6000891303C0DF0111971C9292E0E030F9076F
:100A7000B1F708959091AB019923C1F09091DA02FA
:100A800097FF14C0E82FE695E695E695EE31F8F469
:100A9000F0E0E050FE4F877021E030E001C0220F0F
:100AA0008A95EAF78281822B82830895AAEFB1E0CA
:100AB000EFEF90E02D91821751F0EF3F19F42111E3
:100AC00001C0E92F9F5F9630A9F7EF3F09F4089521
:100AD0000E2E000CFF0BE850FE4FE6CFA3E0B0E077
:100AE000E4E7F5E00C947F242091D8023091D902FC
:100AF00028173907A1F09093D9028093D802E0918A
:100B0000D602F091D702309751F024E029839B83DD
:100B10008A830084F185E02DCE0101960995239604
:100B2000E2E00C949B24A3E0B0E0E9E9F5E00C944A
:100B30007F242091D4023091D50228173907A1F0E3
:100B40009093D5028093D402E091D602F091D7021F
:100B5000309751F023E029839B838A830084F185B9
:100B6000E02DCE01019609952396E2E00C949B249A
:100B7000E091D602F091D702309729F00190F081F0
:100B8000E02D0995089580E008950E94B805089524
:100B90004115510511F0FA01099508950E940305C8
:100BA0009C019091CD028091CE02982B21F0309340
:100BB000CA022093C9029091CF028091D002982B53
:100BC00021F03093C8022093C702E091D602F09141
:100BD000D702309749F082E08093CB020680F781FC
:100BE000E02D8BEC92E0099508958091C60280FD7E
:100BF0001CC081FD14C082FD14C08091C5028823F1
:100C0000A1F0883280F428E0829FC001112468E2BC
:100C100070E00E945524862F672B39F0089584E0F8
:100C200008958FE7089588E0089581E00895809100
:100C3000C60280FD1EC081FD15C082FD15C0209139
:100C4000C502222399F080E3203490F4289F90017C
:100C5000112486E0359527958A95E1F7822F232B7D
:100C600041F0089588E108958FE7089588E0089598
:100C7000089581E00895282F35EB2303C001112446
:100C800097FF04C080589109892F089580589F4F7D
:100C9000FBCF80E00895F894E82FE295EF70F0E044
:100CA00031A1282F2F7081E090E001C0880F2A9594
:100CB000EAF7982F9095932391A392A1892B82A371
:100CC000789408959091DA0292FF10C041E0282FA5
:100CD0002471243009F040E031E0282F28712830B9
:100CE00009F030E0431711F02CE0822793FF10C089
:100CF00041E0282F2471243109F040E031E0282F11
:100D00002871283109F030E0431711F02CE08227D8
:100D10003091DB0230FF10C051E0282F21712130CB
:100D200009F050E041E0282F2871283009F040E018
:100D3000541711F029E0822731FF10C041E0282F1D
:100D40002171213109F040E031E0282F287128314C
:100D500009F030E0431711F029E0822794FD877EE7
:100D6000089582389105B9F1B0F48133910509F401
:100D70007DC048F48932910509F46DC08A3291052D
:100D800009F47BC008958533910509F45FC0893368
:100D9000910509F10895833E9105D9F138F4803E1B
:100DA000910529F1823E910579F10895863E9105DC
:100DB000D9F1873E910509F43EC0843E910541F585
:100DC0002091DB0221FF24C08091DA0284FD19C04A
:100DD00087EE90E008952091DA02237009F05AC05E
:100DE0002091DB0223FF14C089E290E00895209156
:100DF000DA0220FD38C03091DB0230FF09C024FF49
:100E000043C090E080E008952091DA0222FDF7CF00
:100E100008952091DA0222FD3AC03091DB0230FDC4
:100E200039C024FFF5CFEDCF2091DA0223FFF0CFB8
:100E300024FDE7CFCDCF2091DA0223FD2EC03091E3
:100E4000DB0231FFEECF84EE90E008952091DA02CC
:100E500025FFDECFC9CF2091DA0225FD21C02091E8
:100E6000DB0223FFD5CF89E390E0D2CF2091DA02D5
:100E700026FFCECF8AE290E008952091DA0226FF85
:100E8000C7CF81E390E0089583EE90E0089582EE6D
:100E900090E0089580EE90E0089586EE90E0089549
:100EA00085E390E00895972F7430B8F46C30A8F47F
:100EB0008A30B0F470E02CE0929F600D711D112417
:100EC000FB0190E3899FE00DF11D1124EE0FFF1F40
:100ED000E455FF4F85919491089580E090E0089546
:100EE00081E0FCCF1F93CF93DF930E94B106EC010A
:100EF000C11580E5D807F0F5C11580E4D80708F0E2
:100F00009CC0C03ED10520F5CD3CD10508F082C083
:100F1000C83AD10578F4C53AD10508F073C0C1309C
:100F2000D10519F1209709F1C430D105F0F4D0E0D2
:100F3000C0E01BC0C33CD105D0F7C85AD0E0CC0FED
:100F4000DD1FC155DE4F0990D881C02DD4640DC07E
:100F5000C11580E2D80708F0D1C0C11581E0D807DB
:100F600008F05AC0C83ED10510F7CE01DF91CF91ED
:100F70001F910895C03682E5D80718F5C03482E580
:100F8000D80708F06BC0C03282E5D80708F05FC010
:100F9000C11582E5D80708F497C02C2F2695269511
:100FA00080E2289F900111248C2F8370C1E0D0E053
:100FB00002C0CC0FDD1F8A95E2F7C22BD32BDD6870
:100FC000D4CFC03A82E5D80760F4C03882E5D807AC
:100FD00008F459C0CF71D0E0DC2FCC27C46FD06AA1
:100FE000C4CFC03C82E5D80708F462C0C03E82E5A9
:100FF000D80708F09CCFDC2FCC27CC27DF71C06F3F
:10100000D06AB3CFC55AD0E0C455DE4FC881D0E016
:10101000D064ABCFD065A9CF8D2F0E946206182F68
:10102000CE0199270E94B106C12FD0E0DC2FCC273A
:10103000CC27DF71C82BD92B98CFCE0199270E94DE
:10104000B106CC27DF70C82BD92BD06A8ECFCF71D9
:10105000D0E0DC2FCC27C16FD06A87CF2C2F26950C
:101060002695277080E2289F900111248C2F837091
:10107000C1E0D0E002C0CC0FDD1F8A95E2F7C22BA1
:10108000D32BDC6872CF2C2F26952695277080E213
:10109000289F900111248C2F8370C1E0D0E002C002
:1010A000CC0FDD1F8A95E2F7C22BD32BDA685DCF18
:1010B0008C2F8F710E946206C82FD0E0DC2FCC27C6
:1010C000CC27DF71D06251CF8C2F8F710E946206C6
:1010D00055E0D695C7955A95E1F7CF70D0E0DC2F53
:1010E000CC27282F30E084FF05C044E0220F331FB7
:1010F0004A95E1F7C22BD32BD06937CF8D2F8F7153
:101100000E946206182FCE0199270E94B106C12FB6
:10111000D0E0DC2FCC27CC27DF71C82BD92BD2CF46
:1011200080916E02811110926E0208959091DB02FF
:1011300092FF05C090916E02981380936E020895FD
:1011400080959091D10298239093D1020895809533
:1011500090919F02982390939F02089590919F02EF
:10116000892B80939F020895CF93C0919F02809115
:10117000D102C82B80916E02882391F0C82B8091F8
:10118000AB01882381F08091DA0287FF0CC02EE149
:1011900082E092E030E0215050F431110E9490083A
:1011A0008C2FCF91089526E08AEF91E0F3CFFC01D8
:1011B0004191CF01442379F33F5FEDCF809131031B
:1011C0009091F802981301C008958F5F8770FACF4D
:1011D000B0E0A0E0EEEEF8E00C9478247C01009101
:1011E0007E0210917F0280917C0290917D02082BFB
:1011F000192BCFE0D0E0CC24C394D12CBC2EC60157
:101200000C2E02C0880F991F0A94E2F780239123C5
:10121000892B49F4219790F7B12C8B2DCDB7DEB7F0
:10122000E9E00C949424B7018C2F0E9453070E948C
:101230007207019779F3F1CFCF93DF93EC010E940E
:10124000E808BE010E9453070E947207DF91CF9108
:101250000895943078F58C3068F5E82FF0E08CE054
:10126000989FE00DF11D11249E2F977083E0F69555
:10127000E7958A95E1F7EE0FFF1FEE0FFF1FEA5D7E
:10128000FD4F50E040E080E0219130E0092E02C0A7
:10129000369527950A94E2F721703327042E01C072
:1012A000220F0A94EAF7822B4F5F5F4F44305105BB
:1012B00059F7089580E00895943098F58C3088F5BA
:1012C000E82FF0E08CE0989FE00DF11D11248E2FA7
:1012D000877041E001C0440F8A95EAF783E0F695F4
:1012E000E7958A95E1F7EE0FFF1FEE0FFF1FEA5D0E
:1012F000FD4F30E020E070E05191DF011197CB010C
:10130000022E02C0969587950A94E2F78170819526
:101310008527842385278C932F5F3F4F2430310509
:1013200059F7089590937F0280937E02089521E0FB
:1013300030E002C0220F331F8A95E2F720953095E6
:1013400080917E0290917F02822393230E949209D2
:101350000895909145028095892380934502282F16
:10136000277069F4891759F09091DB0292FF07C04A
:101370008695869586950E94970910924502089554
:1013800021E030E002C0220F331F8A95E2F78091FE
:101390007E0290917F02822B932B0E9492090895E6
:1013A00090937D0280937C020895FC012481222386
:1013B000C1F0808191810E941C0992959F709630A6
:1013C00091F058F4925F9F70923058F4803F19F07A
:1013D00030F4883E30F481E008959A5FF4CF843F82
:1013E000D1F380E00895883EB0F3813FD1F7F3CF89
:1013F000662309F45DC08D3C41F40E941706819577
:101400008093CE020E94CE0508958E3C19F40E946E
:101410001706F6CF8F3C31F40E9417068195809312
:10142000CD02F0CF803D19F40E941706F8CF893D18
:1014300029F40E94F5058093CF02E4CF8A3D21F480
:101440000E94F5058195F7CF8B3D31F40E94F5059B
:1014500081958093D002D6CF8C3D19F40E94F5057A
:10146000F8CF9FE2980F983070F4815D990B21E0DE
:1014700030E001C0220F8A95EAF78091CC02822BDE
:101480008093CC02BFCF8D3D31F48091C602816044
:101490008093C602B7CF8E3D21F48091C602826050
:1014A000F7CF8F3D09F0AECF8091C6028460F0CFB8
:1014B0004091CD028D3C59F48091CE0287FF0DC042
:1014C0001092CE0241110BC01092C50208C08E3C92
:1014D00081F48091CE0218169CF3442381F0809110
:1014E000CF029091D002892B09F08CCF10929C02F0
:1014F00089CF8F3C49F447FFF0CF1092CD02809105
:10150000CE028111ECCFE0CF803D19F41416ACF37C
:10151000E4CF9091CF02893D29F41916F4F6109288
:10152000CF02DBCF8A3D19F497FFD7CFF8CF909148
:10153000D0028B3D29F497FFD0CF1092D002CDCFAF
:101540008C3D19F41916CCF3C8CF9FE2980F983050
:1015500090F4815D990B21E030E0B90102C0660F83
:10156000771F8A95E2F7CB0180959091CC02892371
:101570008093CC02B2CF8D3D31F48091C6028E7F34
:101580008093C602AACF8E3D21F48091C6028D7F42
:10159000F7CF8F3D09F0A1CF8091C6028B7FF0CFAE
:1015A000A6E0B0E0E6EDFAE00C947E2426E0FC0133
:1015B000DE01119601900D922A95E1F7FC0125813B
:1015C00089819A81222399F0662389F00E94E80894
:1015D000182F682F89819A810E945C0969817A811C
:1015E000812F0E9453072696E3E00C949A240E94D0
:1015F0002909182FF3CF9C013A9521153F4150F549
:10160000FC01EE27F170BC0166277270AC01442723
:1016100054709C012227387094FF0EC080E1EF2B9C
:1016200009F480E0672B09F08062452B09F08064A3
:10163000232B89F08068089581E0EF2B09F480E086
:10164000672B09F08260452B09F08460232B19F089
:101650008860089580E00895FC018281813019F04E
:10166000823049F00895809320028091DB028360EC
:101670008093DB020895109220028091DB028C7F20
:10168000F7CFFC018281813029F481E090E00E9453
:10169000D00908958230E9F782E090E0F8CFFC01AC
:1016A0008281813029F480E091E00E94D009089580
:1016B0008230E9F780E290E0F8CFFC01828181304E
:1016C00029F480E890E00E94D00908958230E9F77B
:1016D00080E190E0F8CFFC018281813029F480E440
:1016E00090E00E94D00908958230E9F788E090E008
:1016F000F8CFFC018281813029F480E290E00E94E1
:10170000D00908958230E9F780E091E0F8CFFC013C
:101710008281813029F480E190E00E94D00908950F
:101720008230E9F780E890E0F8CFFC0182818130D7
:1017300029F488E090E00E94D00908958230E9F70A
:1017400080E490E0F8CF0F931F93CF93DF938B014A
:10175000EA019091EE02943061F58093E9008FEFF9
:101760009091E800815095FD06C095ED9A95F1F7AE
:1017700000008111F5CF8091E80085FF1AC00E941A
:10178000A503811111C08091E80085FD06C08091FC
:10179000E8008E778093E800F2CFF80181918F0105
:1017A0008093F100219779F78091E8008E778093FC
:1017B000E800DF91CF911F910F91089543E050E031
:1017C000BC0182E00E94A30B089546E050E0BC01FA
:1017D00082E00E94A30B089540E250E0BC0182E049
:1017E0000E94A30B0895CF93DF93EC0148E050E0F3
:1017F000BC0181E00E94A30B88E0FE01A4EEB2E0F0
:1018000001900D928A95E1F7DF91CF910895809331
:101810009E02682F8CE090E00E94D8240895909159
:10182000DB0292FB222720F9281779F080FB92F93E
:101830009093DB026091DA027091DB0284E090E029
:101840000E94F62482E00E94A90908958091AB01CC
:10185000882359F18091DA0287FF27C00E94B408DB
:101860008093010240E250E066E472E080E092E0A2
:101870000E940C25892BC1F080E2E0E0F2E0A6E4B2
:10188000B2E001900D928A95E1F7E091D602F091D5
:10189000D702309749F086E0809300020480F581FA
:1018A000E02D80E092E0099508950E94B4088093AD
:1018B000F80148E050E066E672E088EF91E00E94AF
:1018C0000C25892B89F388E0E8EFF1E0A6E6B2E089
:1018D00001900D928A95E1F7E091D602F091D7023E
:1018E000309711F30280F381E02D88EF91E0DBCF98
:1018F000CF93DF93EC014A855B856E857F850E94DF
:10190000C8058B810E94A0088C810E94A7080E94B4
:10191000260C86E0FE0111928A95E9F7DF91CF91BE
:101920000895CF93DF93EC018D8181FD14C0826017
:101930008D838091D1029B81892B8093D1028C81F0
:101940000E94AE080E94260C488559856E857F85C9
:10195000CE010E94C8051092D3021092D2028D814E
:1019600080FD03C0CE010E94780CDF91CF910895D5
:101970008091AA01877F8093AA018091C40281117E
:1019800003C082E00E94A0088091AA0184FF06C0E3
:101990008F7E8093AA0182E00E94AE088091AA0106
:1019A00085FF06C08F7D8093AA0180E20E94AE0869
:1019B0000E94260C089510929F028091AB0188230B
:1019C00039F18091DA0287FF23C0E2E0F2E08EE194
:1019D000DF011D928A95E9F790E080E00E9493056F
:1019E00090E080E00E946E051092D1020E94260CC9
:1019F00086E0EBECF2E0DF011D928A95E9F71092A8
:101A0000C50210929C021092C6020E94CE05089553
:101A1000EAEFF1E086E0DCCFAAE2B0E0E2E1FDE04F
:101A20000C947E2480EF92E02091F100FC01219340
:101A3000CF01F2E0883F9F07B9F78091F102833030
:101A400009F470C0B8F4813009F447C0823009F459
:101A5000B1C08091E80083FF7EC28091F002909136
:101A6000F1029A3008F077C2E92FF0E0E55EFA4D16
:101A70000C9469248A3009F48CC08B3009F46FC04F
:101A8000893039F78091F002813219F78091F402A0
:101A90009091F5020297E8F68091E800877F8093A5
:101AA000E8008091E80082FF38C09091F3008091B7
:101AB000F200029731F48091F100813011F086300C
:101AC00021F48091F1008093E3028091E8008B770C
:101AD0008093E8000E94D603BCCF8091F002813A47
:101AE00009F0B7CF8091E800877F8093E80080916C
:101AF000F4029091F502892B61F468E084EE92E0A3
:101B000070E00E9482048091E8008B778093E80067
:101B1000A0CF60E090E080E0F3CF8091EE028111F1
:101B2000C0CF97CF8091F002813A09F092CF809197
:101B3000F4029091F502892B09F08BCF8091E80097
:101B4000877F8093E8008091E80080FFFCCF809140
:101B5000AB018093F1008091E8008E77B9CF80913E
:101B6000F002813209F075CF8091F4029091F50274
:101B7000892B09F06ECF8091E800877F8093E80081
:101B80000E94D6038091F2028093AB010E94DB0C8D
:101B900060CF8091F002813209F05BCF8091E80044
:101BA000877F8093E8000E94D6038091F3028093A0
:101BB000E2024FCF8091F002813A09F04ACF809142
:101BC000E800877F8093E8008091E80080FFFCCFE9
:101BD0008091E202BECF803899F0823809F0BBC113
:101BE0008091F4028F70873008F0B5C18093E900CE
:101BF0008091EB0085FB882780F91092E90006C0F0
:101C00008091EC029091ED02911182609091E80038
:101C1000977F9093E8008093F1001092F1008091FB
:101C2000E8008E7794C1882309F482C1823009F0DC
:101C300092C18091F202811185C18091F4028F706E
:101C40002FEF280F263008F086C18093E9002091FD
:101C5000EB0020FF77C1933031F48091EB0080627C
:101C60008093EB006FC19091EB0090619093EB003B
:101C700021E030E001C0220F8A95EAF72093EA00C4
:101C80001092EA008091EB008860EACF811163C175
:101C90001091F2021F778091E3008078812B80936E
:101CA000E3008091E800877F8093E8000E94D603DC
:101CB0008091E80080FFFCCF8091E30080688093F2
:101CC000E30082E0111183E08093EE0244C180586A
:101CD000823008F040C18091F2029091F3028C3D75
:101CE00023E09207A1F583E08A838AE289834FB7D4
:101CF000F894DE01139620E03EE051E2E32FF0E09D
:101D000050935700E49120FF03C0E295EF703F5FCE
:101D1000EF708E2F90E0EA30C0F0C7968D939D93C0
:101D20002F5F243159F74FBF8091E800877F809360
:101D3000E8006AE270E0CE0101960E948204809180
:101D4000E8008B778093E80006C1C096E7CF40910A
:101D5000F4025091F502292F33272330310509F47D
:101D600044C078F52130310509F46FC08BE390E071
:101D7000E6E1F6E02230310509F0EDC02091E800FF
:101D8000277F2093E8002091F6023091F702821716
:101D9000930708F49C0140E02115310509F064C067
:101DA000411162C08091E80082FDC9CF8091EE02AE
:101DB000882329F2853019F28091E80083FFF2CF61
:101DC000BECF21323105A9F12232310509F0C3C05D
:101DD0004115510509F443C04130510509F0BBC01C
:101DE00086EB90E0ECE1F5E0C9CF992781309105D1
:101DF000C1F0009759F0029709F0ADC0E3E6F6E0B4
:101E0000E4918E2F90E0E3E6F6E007C0EBE8F6E021
:101E1000E4918E2F90E0EBE8F6E0009709F49BC088
:101E2000ADCFE3E7F6E0E4918E2F90E0E3E7F6E054
:101E3000F4CF4115510571F04130510509F08BC0C7
:101E400089E090E0E1E4F6E099CF82E190E0E1E51D
:101E5000F6E094CF89E090E0E8E2F6E08FCF84E40A
:101E600090E0E2EDF5E08ACF8091EE02882309F45C
:101E700066CF853009F463CF8091E80083FD5FCFA2
:101E80008091E80082FD8ECF8091E80080FF84CFB2
:101E90009091F3008091F2002115310519F08830FE
:101EA000910550F041E0089709F040E08091E8008A
:101EB0008E778093E80070CF44914093F100319683
:101EC000215031090196E8CF803809F044C0809153
:101ED000E800877F8093E8008091EF028093F10013
:101EE0009ECE811138C01091F2021230A0F580917F
:101EF000E800877F8093E8001093EF020E94D603EA
:101F0000112311F084E005C08091E30087FDFACF32
:101F100081E08093EE0242E061EC81E00E94F503F3
:101F200042E261EC82E00E94F5038091EE0213C070
:101F30008091F202813079F481E0933009F080E001
:101F40008093ED021092E9008091E800877F8093F2
:101F5000E8000E94D6038091E80083FF0AC08091C8
:101F6000E800877F8093E8008091EB008062809397
:101F7000EB00AA96E3E00C949A240E94DB0C2FEF6E
:101F800084E39CE0215080409040E1F700C00000D5
:101F900088E19AE00FB6F894A895809360000FBE90
:101FA00090936000FFCF882321F00E94A0080E9438
:101FB000260C08958091C402882329F082E20E94B1
:101FC000D30F1092C4020895882339F09091D10262
:101FD000982B9093D1020E94260C0895882321F01B
:101FE0000E94A7080E94260C0895882321F00E94D1
:101FF000AE080E94260C0895882309F456C0823842
:1020000079F40E94C50581FF50C089E30E943A051A
:102010000E94260C89E30E940F050E94260C089559
:10202000833859F40E94C50580FF3FC083E50E94B4
:102030003A050E94260C83E5EECF843859F40E94BD
:10204000C50582FF32C087E40E943A050E94260C33
:1020500087E4E1CF9CEF980F913AE8F290E2980F75
:10206000983050F4877091E001C0990F8A95EAF793
:10207000892F0E94A708D1CF9BE5980F933028F4B1
:1020800090E080E00E949305089598E5980F9B31B9
:1020900028F490E080E00E946E05089593E3980F85
:1020A000933118F460E00E94F8090895CF93DF930C
:1020B000EC010E94FC0FCE010E94FB0A9E01205EF3
:1020C00031092830310510F0CD2B29F40E94EE0F94
:1020D000DF91CF9108950E94D30FFACFCF93C82FED
:1020E0008823C9F08238C9F40E94C50581FD13C058
:1020F00089E30E943A050E94260C2FEF87EE93E0B9
:10210000215080409040E1F700C0000089E30E9428
:102110000F050E94260CCF9108958338A1F40E94E8
:10212000C50580FDF8CF83E50E943A050E94260C84
:102130002FEF81EE94E0215080409040E1F700C005
:10214000000083E5E4CF8438A1F40E94C50582FD38
:10215000E2CF87E40E943A050E94260C2FEF81EE21
:1021600094E0215080409040E1F700C0000087E4F7
:10217000CECF8CEF8C0F813A88F58091AB0188230C
:1021800001F18091DA0287FF1CC0EC2FE695E695FD
:10219000E695F0E0E050FE4F828190E04C2F4770D2
:1021A00021E030E002C0220F331F4A95E2F782237C
:1021B0009323892B79F08C2F0E940F050E94260C07
:1021C00009C0EAEFF1E08191C817A9F322E0E030FD
:1021D000F207C9F78C2F0E943A059BCF80E28C0F43
:1021E000883048F4C77081E001C0880FCA95EAF7CB
:1021F0000E94AE088ECFEBE5EC0FE33040F4F0E048
:10220000E455FE4F808190E00E94930584CFE8E57D
:10221000EC0FEB3150F4F0E0EE0FFF1FE155FE4FF5
:10222000808191810E946E0576CF83E38C0F83318C
:1022300008F071CF61E08C2F0E94F8096CCF1F93DA
:10224000CF93DF93182FEB010E946E10209739F483
:10225000812F0E94FC0FDF91CF911F9108958FE98C
:102260009FE00197F1F700C000002197EFCF70E0E9
:1022700060E0893311F460E570E00E941F11089559
:102280000F931F93CF93DF93C62FD42F022FFC0100
:1022900085818823A9F0609334030E9403059093FD
:1022A000330380933203C77081E001C0880FCA9561
:1022B000EAF70E94F50FDF91CF911F910F910895DA
:1022C00080913403681332C08091320390913303BC
:1022D0000E94F404883C910548F510E21D0FCD17CB
:1022E000B9F080E28C0F883040F4C77081E001C003
:1022F000880FCA95EAF70E94EE0F183048F481E083
:102300009D2F977001C0880F9A95EAF70E94F50FEC
:10231000802F0E943711183070F6D77081E001C00D
:10232000880FDA95EAF70E94EE0FC5CFC77081E0FB
:1023300001C0880FCA95EAF7F6CFB0E0A0E0E3EA63
:10234000F1E10C947A24E82FF0E0E456FB4FD490AE
:10235000282F26952695269530E0F901E457FB4F66
:102360000491877010E0082E02C0159507950A9415
:10237000E2F701701127F901E458FB4FE490F12CCA
:10238000082E02C0F594E7940A94E2F791E0E9225E
:10239000FF24F901E459FB4FC491D0E002C0D59568
:1023A000C7958A95E2F7C170DD270115110519F06F
:1023B00081EE0E946E10E114F10419F086EE0E9485
:1023C0006E1070E060E08D2D0E941F11E114F10489
:1023D00019F086EE0E94FC0F0115110519F081EE2F
:1023E0000E94FC0FCD2B19F08CE20E943711CDB763
:1023F000DEB7E7E00C94962490919E02923071F43F
:102400008A3050F490E009966AE070E00E9455240A
:10241000875A0E94371108958650FBCF96EF980F88
:10242000963020F0805D0E949D110895895AFBCF5F
:102430008F929F92AF92BF92EF92FF920F931F9352
:10244000CF93DF934B015C01D0919E028CE1E82E8B
:10245000F12C07E010E021E0D501C4010E2C04C0EE
:10246000B695A795979587950A94D2F7C82FCF7000
:10247000222339F0D43051F4CA3040F080E00E9479
:10248000FC118C2F0E94FC1120E005C0C111F9CF76
:1024900004301105B4F30150110984E0E81AF10881
:1024A0000F3F1007C9F6DF91CF911F910F91FF9059
:1024B000EF90BF90AF909F908F900895CF93DF9350
:1024C000EC010E94FB0A9E01205E31092830310593
:1024D00010F0209741F40E94F50F8C2F0E946E108F
:1024E000DF91CF9108950E94E40FF7CFB0E0A0E014
:1024F000ECE7F2E10C947A248C01EB018091AA01C3
:1025000082FF82C0E090C202F090C302E016F106A2
:1025100021F00115110509F077C08091AA018B7F88
:102520008093AA0181FD69C08091C0029091C1028F
:102530009E01281B390B81E0283C310508F480E01E
:102540008170D82E8091AA01D0FA81F98093AA01D6
:1025500087011127F80184E0F695E7958A95E1F760
:10256000EE0FFF1FE056FD4F20813181A7014F7014
:10257000552781E090E002C0880F991F4A95E2F745
:10258000DD20E9F1822B932B9183808380919F0240
:1025900081FF08C08091AA0180618093AA0182E036
:1025A0000E94A70880919F0285FF08C08091AA0120
:1025B00080628093AA0180E20E94A708DD2029F0B2
:1025C0008091D10282608093D102C701905281151F
:1025D000904308F47801C7010E945E128091C20204
:1025E0009091C3029C0130522115304308F4992781
:1025F0000E9456100E94B80C17C081E0A1CF8095B0
:10260000909582239323C0CFC801905281159043A7
:10261000A0F4C80199270E9456108091C20290919F
:10262000C3020817190731F3D093C102C093C00247
:10263000CDB7DEB7E7E00C949624C801ECCF0F933A
:102640001F93CF93DF938C01EB010E945E122097C2
:1026500041F4C8010E945610DF91CF911F910F9154
:1026600008958FE99FE00197F1F700C000002197DE
:10267000EECFFC018281813019F0823019F108958A
:1026800080912002882371F081EE0E946E1083EE0B
:102690000E946E1081E20E94371183EE0E94FC0FAF
:1026A00081EE0DC083EE0E946E1081EE0E946E10CE
:1026B00086E10E94371181EE0E94FC0F83EE0E949A
:1026C000FC0F089580912002882341F081EE0E9442
:1026D0006E1083EE0E946E1080E2DDCF86E40E94D1
:1026E00037110895CF93DF93EC0180912002882366
:1026F000F1F083EE0E946E108A81823031F481EE17
:102700000E946E1082EE0E946E1089E10E943711C5
:1027100083EE0E94FC0F8A81823031F482EE0E94A7
:10272000FC0F81EE0E94FC0FDF91CF91089580EEA7
:102730000E946E108A81823019F481EE0E946E1020
:1027400089E10E9437118A81823019F481EE0E945A
:10275000FC0F80EEE7CFA8E0B0E0E1EBF3E10C94F2
:1027600075248E010F5F1F4F88E0F80111928A9542
:10277000E9F795EEE92E91E0F92E6801AA24A394D9
:10278000B12CF70181917F018F3F09F446C0F89485
:10279000E82FE295EF70F0E021A18F70A50102C053
:1027A000440F551F8A95E2F7CA01922F982B91A3E7
:1027B00092A18095892382A3789400C0E9EEF1E08C
:1027C00021E030E0912C812C41914F3F09F44EC023
:1027D000A42FA295AF70B0E090968C9190E04F70CE
:1027E00002C0959587954A95E2F780FD3FC0C901E3
:1027F000882A992A220F331F51E0E53FF50721F778
:10280000F701319780818F3F11F00E944B0680EADB
:102810008A95F1F7F60191828082F2E0CF0ED11C09
:1028200049EEE41641E0F40609F0ABCF48E050E091
:10283000B80184E792E00E940C25892BE1F088E042
:10284000F801A4E7B2E001900D928A95E1F781E0EA
:10285000809373020E940305909372028093710229
:1028600010E0812F2896ECE00C94912490E080E019
:10287000BFCF10E01FC010917302112389F3809124
:102880007102909172020E94F404059748F348E0A7
:1028900050E064E772E080E892E00E940C25892B0A
:1028A00041F388E0E4E7F2E0A0E8B2E001900D92A5
:1028B0008A95E1F710927302D4CFB0E0A0E0E3E68E
:1028C000F4E10C9477248C01DC0114968C9188231C
:1028D00009F41AC161E0C8010E94D00AEC01F801B4
:1028E0008581882319F1E091D202F091D3023097CB
:1028F000E9F0CE17DF07D1F0FF27EA30F105E0F568
:10290000A4E0EE0FFF1FAA95E1F7E65FFE4F858179
:1029100084608583D183C083CF010E94910C109283
:10292000D10261E0C8010E94D00AEC01C534FEE783
:10293000DF0709F4C1C0F0F5C2343EE7D307F8F46D
:10294000C0348EE7D80708F086C0CC3191E0D907B3
:1029500009F468C0C337BCE7DB0709F062C1F801BE
:102960008581882309F4C0C08091C402882309F4BA
:1029700048C10E94DA0FB8C0F0E0E0E0C8CFD8014B
:1029800015969C91C434BEE7DB0708F089C09923F3
:1029900009F4AAC080912002882309F478C083EE4C
:1029A0000E946E1080E3C234DE4709F48FE20E9479
:1029B00037114FC0C934EEE7DE0709F4BFC0B8F4E1
:1029C000D80115968C91C734BEE7DB0709F4A5C082
:1029D00008F481C0882309F487C0809120028823ED
:1029E00009F4A7C083EE0E946E108CE2E0CFC035E0
:1029F000FEE7DF0708F4C8C0C0352EE7D20709F0AC
:102A0000A9CFD80115968C91882309F46DC00E9436
:102A1000C50580FD03C083E50E94371189E00E944F
:102A2000C00962C0D80115968C91882309F40EC1A3
:102A300080912002882309F409C183EE0E946E1060
:102A400081EE0E946E108DE10E94371181EE0E948E
:102A5000FC0F83EE19C0F8018581882309F444C076
:102A600080EE0E946E10C034FEE7DF0719F481EE9D
:102A70000E946E108BE20E943711C034DE4719F4B9
:102A800081EE0E94FC0F80EE0E94FC0F2DC0C2342C
:102A9000DE4721F087EB0E94371126C086EBFBCF83
:102AA00080912002992321F081113DC08BED1AC045
:102AB00081113DC08BEDE8CF80912002D8011596A1
:102AC0009C91992321F081110CC08AED0BC08111DA
:102AD00022C08AEDD9CF909120028823D1F09111A4
:102AE000F4CF89ED0E946E1080914502877061F0ED
:102AF000D80115968C91882339F08091DB0282FFF2
:102B000003C082E00E94A909CDB7DEB7EAE00C94C9
:102B100093249111DECF89EDB7CF909120028823C5
:102B200021F09111C3CF8CEDDDCF9111C3CF8CED8E
:102B3000ABCF83EE0E946E1086E139CFF80185811C
:102B4000882391F280912002882371F082EE0E9406
:102B50006E1081EE0E946E108DE20E94371181EEA0
:102B60000E94FC0F82EE90CF82EE0E946E1082E6F1
:102B70000E94371189E50E9437118DE50E943711B7
:102B800089E50E943711EECFD80115968C918823E4
:102B900009F4AACF82EE0E943711CD34BEE7DB07DD
:102BA00031F160F4CB34FEE7DF07A1F0CC34DE472F
:102BB000C9F08AE10E94371181E16DCFCE343EE742
:102BC000D307D1F0CF34DE47A1F78BE00E94371155
:102BD00086E261CF8AE10E94371189E00E943711B5
:102BE00089E059CF8BE00E94371183E254CF8BE00C
:102BF0000E94371182E24FCF8BE00E94371187E2AB
:102C00004ACF10929F020E9490080E9403058857A5
:102C10009C4E90939B0280939A0281E08093C40221
:102C200063CFC23AF2E5DF0709F48BC008F071C048
:102C3000CE0190528115904208F473C0C13ED10577
:102C400009F47FC0C53ED10509F468C08091C40273
:102C50008111A4C0CE0197558F3F910511F008F066
:102C600040C0FE01FF27EA30F1050CF03DCF64E0E3
:102C7000EE0FFF1F6A95E1F7DF01A65FBE4F7D01F2
:102C8000D80115968C91E15FFE4F908180FB90F901
:102C90009083882309F428C10E940305909392022F
:102CA00080939102F70182818F5F82838091D102AC
:102CB00090919F02892B838380916E028483468149
:102CC000578166857785C7010E94C805D70115968B
:102CD0008C9181FF06C190E080E09093D2028093B6
:102CE000D302F8018581882309F42BC1C433FCE7A2
:102CF000DF0709F4A7C108F014C1C2333CE7D307CA
:102D000009F41CC1C3338CE7D80709F01AC181E06C
:102D100016C1C23B82E5D80709F090CF25EE30E01E
:102D200012C0D80116968C91807F09F087CF8D2F25
:102D300099278F7199278230910519F0429771F385
:102D40007DCF21EE30E02770332781E090E001C095
:102D5000880F2A95EAF7209121023091C40233238B
:102D600059F0F8013581332321F0822B8093210221
:102D7000BBCE80958223FACF322F382309F46ACF55
:102D8000982F90952923209321020E94A708D8010B
:102D900015968C91882309F4A7CE5CCFE0909F0212
:102DA000F0906E020E94030588579C4E90939B0200
:102DB00080939A02F8018581882309F44BCF8F2DE7
:102DC0008E298D7909F07FC0C034F2E5DF0708F065
:102DD0004DC0C11522E5D20708F03CCFC11530E443
:102DE000D30758F4C11580E2D80708F05FC0C63E8B
:102DF000D10509F42FCF7E010BC0C11590E5D9078D
:102E0000D0F7F8018681807F09F424CF7E01FF246A
:102E10008091AA0180FD63C08FEF0E94A008F8E2B4
:102E2000EF16F10450F02AE2E216F10408F44BC068
:102E3000C7018B97029708F446C034E0E31AF10803
:102E40008AE1E816F10428F48091D102826080932F
:102E5000D10280912102882331F08091D10292E049
:102E600089278093D1020E94260CF4CEC03EA2E5B1
:102E7000DA07A8F4C03CB2E5DB0708F0EBCEC036B9
:102E8000E2E5DE0708F4B7CFC03AF2E5DF0708F461
:102E9000E1CEC43B22E5D20709F4DCCEACCFCE01B3
:102EA00087579C47029708F0A6CFD4CED801169634
:102EB0008C91807F09F0AACF8D2F8F71843109F416
:102EC000C9CE863139F00E94DA0F809121020E942A
:102ED000AE08C0CE76EEE72E72E1F72E99CF8DEFD9
:102EE0009CCF9C2F8D2FF9CEF701448555856685A3
:102EF0007785C7010E94C805D70115968C9181FF7F
:102F0000F0CEC7010E94780C8091D2029091D3023A
:102F1000C817D90709F0E5CE1092D3021092D20259
:102F2000E0CEC6339CE7D90709F490C008F48CC002
:102F3000C733BCE7DB0729F485E001C080E00E94CD
:102F4000070CF8018581882309F441C0D7FF3FC0F1
:102F50000E94C5058093230290919E02913029F42E
:102F600081FF03C089E30E94371180919F02809303
:102F7000220210929F021092D10280919E02823012
:102F800009F487C008F064C0882309F477C0813051
:102F900009F478C0AFE3BCE91197F1F700C0000075
:102FA000BE017F7790E080E00E94181280919E021F
:102FB000823009F4A2C008F085C0882309F48EC0CD
:102FC000813009F48FC08091220280939F020E9479
:102FD00003057C01F8018581882309F4A8C080914C
:102FE000AA0182FF07C043E952E0B70190E080E008
:102FF0000E947612C431FCE7DF0709F494C0C531A2
:103000002CE7D20709F484C0C3313CE7D30729F485
:103010008091AA0181608093AA01CE01905281150E
:10302000904308F092C01092C3021092C202FE01B7
:10303000E851FC47E730F10508F027C1EB5DFA4D98
:103040000C94692482E07BCF83E079CF84E077CF52
:10305000843099F1853009F09DCF70E060E08BE11C
:1030600091E00E941F1370E060E085E290E00E9412
:103070001F1370E060E088E290E008C082EE0E94DA
:103080006E1088CF70E060E088E193E00E941F132B
:1030900081CF8091230280FD03C083E50E94371118
:1030A00082EE0E946E108FE39CE90197F1F700C059
:1030B000000087E50E9437116DCF86EE0E94371120
:1030C00088E1F8CF843011F1853009F07CCF70E0D1
:1030D00060E088E290E00E941F1375CF82EE0E94AC
:1030E000FC0F71CF8CE20E9437118091230281FF87
:1030F0006ACF89E30E94371166CF82EE0E94FC0FEF
:103100008091230280FD5FCF83E5F4CF88E2F2CF88
:103110009091AA01892F8E7F90FF81608093AA01F0
:103120000E94B80C7ACF8091AA018E7FF7CF809150
:10313000AA018F7EC13ED10531F0C53ED105C1F453
:103140008091AA018F7D8093AA018091AA0180FFBE
:103150006ECFF8018581CB32D105C9F078F49E019C
:103160002E5131092A30310590F081115CCF5FCFAB
:10317000CE0190528115904340F759CFCD32D10501
:10318000A0F3C933D10518F0C436D10571F78823EF
:1031900009F457C080916E0290919F02982B292FBD
:1031A0002D7F61F11092C3021092C202FE0144E031
:1031B000F695E7954A95E1F7EE0FFF1FE056FD4FB4
:1031C0009E012F70332781E090E002C0880F991F85
:1031D0002A95E2F78095909520813181822393236F
:1031E00091838083CE010E945E1280916E028D7F5A
:1031F0000E94960882E00E94A90976CC27E0F80197
:10320000A3E9B2E001900D922A95E1F7109296029F
:10321000109295022091AA0191FB21F92093AA0115
:103220008D7F0E949608D093C302C093C202F09291
:10323000C102E092C0028091AA0184608093AA0139
:10324000D9CFA801B701CE010E9476124DCC26E25B
:1032500041EE61EEC8010E94401146CC27E245EEE6
:1032600065EEF8CF26E241EE60EEF4CF27E245EEC0
:1032700064EEF0CF26E241EE62EEECCF27E245EEBF
:1032800066EEE8CF28E241E0EBCFD80115968C91AD
:10329000882309F469C310923403CE0190578397B1
:1032A00008F04EC384E090E00E94C2249093DB02B9
:1032B0008093DA02FE01E150F047E232F10520F49A
:1032C000E45DFA4D0C9469248091DA028160809368
:1032D000DA0295C08091DB0288608093DB028FC0A8
:1032E0008091DA028260F3CF8091DA028460EFCFBE
:1032F0008091DA028860EBCF8091DB028160EDCFB4
:103300008091DB028260E9CF8091DA028061DFCFB9
:103310008091DA028062DBCF8091DA028064D7CFBD
:103320000E94DB0C8091DA028068D1CF8091DA02B2
:103330008C60CDCF8091DB028360CFCF8091DA02A9
:103340008E7FC5CF8091DB02877FC7CF8091DA0265
:103350008D7FBDCF8091DA028B7FB9CF8091DA0269
:10336000877FB5CF8091DB028E7FB7CF8091DB0264
:103370008D7FB3CF8091DA028F7EA9CF8091DA0260
:103380008F7DA5CF8091DA028F7BA1CF0E94DB0CCD
:103390008091DA028F779BCF8091DA02837F97CF7B
:1033A0008091DB028C7F99CF8091DA0282FB992792
:1033B00090F921E0922790FB82F990FB83F987CF67
:1033C0008091DB02982F909591708E7F892B90FBD6
:1033D00081F983CF9091DA02892F8F7B96FF8064E9
:1033E00076CF0E94DB0C9091DA02892F97FB87F948
:1033F00080586DCF61E08EE090E00E94D82460910B
:10340000DA027091DB0284E090E00E94F6240E94D0
:10341000DB0C6ACB60E0EFCF9091DA02892F8F7ED0
:1034200094FF806154CF9091DA02892F8E7F90FFB4
:1034300081604DCF9091DB02892F877F93FF886059
:103440004CCF85E38CC285E398C20E94DB0CBFEFB2
:10345000E4E3FCE0B150E040F040E1F700C00000E0
:103460000E94E3046FEF7FEF90E080E00E94F6247B
:103470000E94BD0F8091DB0282FB882780F991E0DA
:1034800089270E940F0CF8018581C081D181882392
:1034900009F450C0CE010E94E808F82E682FCE0132
:1034A0000E945C09BE018F2D0E9453070E94720783
:1034B000D82FC92FA82ED8011596CC9015971696FF
:1034C000BC90B2943FE0B32280914502877009F12D
:1034D000EC2CCC20F9F0892F807F803469F080E2D9
:1034E0008D0F8830B0F0892F807E803229F4B1E0D2
:1034F000BD1778F4BB2069F08091DB0282FF09C020
:1035000082E00E94A909809145028770EE24E3942D
:103510008111E12CDC2ED2942FE0D222EBE0ED15CC
:1035200008F465C0ED2DF0E0E25BFA4D0C946924DF
:1035300080E0A7CFCE010E942909F82EB3CFFC2F3F
:10354000FF70FF2EC07F19F0F29490EFF922CC208B
:10355000A9F0FF2059F080E28D0F883010F0A11003
:1035600007C08F2D0E94AE080E94260C8D2F3DC0F3
:103570008091D102F82AF092D102F6CF8D2F0E94CD
:10358000FC0FFF20A1F1D05E8F2DD83010F0A110DC
:1035900003C00E94A70802C00E94A0080E94260C37
:1035A00026C02C2F2F70F22EC07FC03219F0F2945B
:1035B00080EFF822AA2059F031E0A31609F472C076
:1035C000CC2009F47EC0BB2009F441C0CFCF80914C
:1035D000DB0282FD38C0CC2079F1FF2029F08F2D4D
:1035E0000E94AE080E94260C80E00E946E102D2DD5
:1035F0002850330B2430310510F40E94B805EE201A
:10360000B1F08091450280FD12C0D80115961C9240
:103610008695869586950E94C009C8010E945D1412
:10362000809145028695869586950E94970960E06F
:10363000C8010E94D00A68CA80E00E94FC0FFF20E7
:10364000B1F28F2DA6CFCC2099F0B11004C08F2DF0
:103650000E94F50FCCCF81E0B812C9CF80916E02E5
:103660009F2D9823F91619F2F82AF0926E02BFCF17
:10367000B110BDCF8F2D0E94EE0F90916E028F2D55
:10368000892329F08F2D8095892380936E02809164
:1036900025029F2D982309F4AACFF094F822F092E6
:1036A0002502A5CFCC2029F095E09B1508F49FCFEB
:1036B000CECFA4E0AB1508F49ACF8F2D0E94EE0F69
:1036C00096CFBB20D1F3B9E3AB1209C0EFEFF7EE11
:1036D00023E0E150F0402040E1F700C000008D2FD2
:1036E0000E94FC0F84CF8C2F86958695837069F09D
:1036F000813009F07CCF8D2F9C2F9370C11002C0B8
:1037000080E090E00E946E0572CF8D2F9C2F937009
:10371000C11002C080E090E00E94930568CF6C2D3C
:103720008D2F0E94F80963CF8C2F837009F03FC062
:10373000C1105DCF4D2F429546954770440F440F01
:103740002D2F2F7030E0042E02C0220F331F0A9459
:10375000E2F790E080E0D4FF09C08FE090E002C083
:10376000880F991F4A95E2F780959095C695C69562
:10377000C370C23099F078F440917C0250917D0280
:10378000C13039F0822B932B842395230E94D009DA
:103790002ECF242B352B822B932BF8CF822B932BE0
:1037A00020917C0230917D0282279327EFCF86956E
:1037B000CC2011F08C2F8170882309F418CF4D2F65
:1037C000429546954770440F440F2D2F2F7030E0DF
:1037D000042E02C0220F331F0A94E2F790E080E02B
:1037E000D4FF09C08FE090E002C0880F991F4A956E
:1037F000E2F780959095C695C695C370C23099F052
:1038000078F440917E0250917F02C13039F0822BD2
:10381000932B842395230E949209E9CE242B352BE8
:10382000822B932BF8CF822B932B20917E02309109
:103830007F0282279327EFCFCF70CC2029F08C2FE7
:103840000E94C0098D2F04CF8D2F0E94EE0F8C2F68
:103850000E949709CCCE8D2F32EFA31699F13A151D
:1038600070F090EFA916D1F0A1EFAA1691F0CC203C
:1038700009F456C0B1107ACE8C2F8F7127C0B3EFE8
:10388000AB1639F1E4EFAE12F2CF9091DB0292FD6C
:103890002EC08C2F8F71CC20D9F218C0CC2069F0AB
:1038A000F4E0FB1508F4A3CECF7181E090E002C0F4
:1038B000880F991FCA95E2F7B8CF25E02B1508F4B9
:1038C00096CEF2CF8C2F8F71C110C2CF0E94C0094B
:1038D0008ECE90E080E0CC2009F49DCFCF7181E0C6
:1038E00090E002C0880F991FCA95E2F794CFCC20D0
:1038F00061F08C2F8F7192FFE9CF98E0899F900142
:103900001124236020934502E1CF81E00E94A909A0
:10391000A1E0AB1508F06BCE82E00E94A90967CE4A
:10392000BB2059F0893309F0DACEBFEFE7EEF3E0C0
:10393000B150E040F040E1F7D0CE8C2F8F7188CFAE
:10394000C631BCE7DB07E1F480919F028A7A91E0FF
:1039500009F490E090932402811173CD89E20E94D2
:103960003A050E94260CC0C8C631DC4709F08BCD51
:1039700080912402811167CD89E20E940F05F1CF69
:10398000C330FCE7DF0709F46DCD50F4C1153CE707
:10399000D30709F45ACDC130DC4709F469CD73CDA2
:1039A000CB359CE7D90709F4C3CDCC35ACE7DA07B2
:1039B00009F460CDCA35DC4709F065CD81E061CD01
:1039C000CF93DF9380914402807F09F04DC08091B6
:1039D0004302882309F448C0E09131035091F80272
:1039E000C0913F02D0913E0260914002709141022D
:1039F00047E05E17C9F18E2F90E0E49FF00111249B
:103A0000E750FD4F2481222391F1489FF001499F07
:103A1000F00D1124DF01A750BD4F11962C91119785
:103A20002C1325C02C912D1322C015962C9115977F
:103A300021111DC012962D913C91261B370B283C5D
:103A40003105A8F4809144028F7080618093440214
:103A5000E150FD4F80818F70806180838EE392E022
:103A60000E945D140E94DE08DF91CF910895FC0151
:103A70003196E770BECFA4E1B0E0E1E4FDE10C9443
:103A800072248C0186E0F801DE011F9601900D92F0
:103A90008A95E1F7D8011496FC9014971596EC904E
:103AA0008EE3682E82E0782E8091420281112AC036
:103AB000F11003C0FF24F3941CC0EE20F9F0C801FC
:103AC0000E94D509F82E8823C9F087E0F801AEE3FB
:103AD000B2E001900D928A95E1F780914202813027
:103AE00031F480913E0290913F020E941C090E9495
:103AF000E01C8F2D6496EFE00C948E24C8010E9488
:103B00005D14D8CFF8015080A1808280938060E05E
:103B10008EE392E00E94D00A6C01B0904302809143
:103B2000400290914102BB2009F43EC19401281B40
:103B3000390B283C310508F0EDC0FF2009F4BACF5D
:103B400020913F02D80111969C91119780914402D7
:103B5000382F307F09F09DC0FE2C291314C020910E
:103B60003E029C9129130FC0E1108CC08F708061C0
:103B7000809344028EE392E00E945D14809144029F
:103B8000F8018683B6CFE1107DC06A2D852D0E9495
:103B90006703E82E882309F448C0FCE2CF16F3E45B
:103BA000DF0669F020F531E1C31632E3D30639F0C0
:103BB00090F4A7E1CA16A2E2DA0609F09ACF8EE3E2
:103BC00092E00E945D1487E0EEE3F2E0DF011D92D7
:103BD0008A95E9F78ECFBDE1CB16B2E4DB0679F327
:103BE000E8E3CE16E2E4DE0609F083CFE8CFFAE29E
:103BF000CF16F6E4DF0619F360F43BE2C31634E4B3
:103C0000D306E9F289E2C81685E4D80609F071CF37
:103C1000D6CFA8E2CA16A7E4DA0689F2BCE4CB162E
:103C2000B8E4DB0609F065CFCACF5F86A88A8F8526
:103C300098890E941C09292F22952F70243058F44E
:103C40009F70223088F0992399F0F8019681907F37
:103C500079F4FE2C4ECF2A5F2F70223068F0C80115
:103C60000E945D14EB2CF5CF992311F0882389F382
:103C7000805E883070F3F3CF803F58F3815F8330EC
:103C800070F7E7CF80914402816080934402F12C69
:103C900030CF291316C020913E029C91291311C0E8
:103CA000E1100FC016968C93C8010E945D1487E046
:103CB000F801AEE3B2E001900D928A95E1F7FB2C9A
:103CC00018CFC8010E94D509882309F417CFEE2028
:103CD00009F414CF80914402803288F020913E0292
:103CE00030913F02398728879B868A8690914202CD
:103CF0009C871D868E87CE0108960E945D1487E002
:103D0000F801AEE3B2E001900D928A95E1F70E94CE
:103D1000E01CD0CE80914402982F907F51F48EE326
:103D200092E00E945D1487E0F30111928A95E9F711
:103D3000AECFFF2009F4BECE20913F02D8011196EC
:103D40009C911197291312C020913E029C91291336
:103D50000DC0E1100BC016968C93C8010E945D1433
:103D600087E0F30111928A95E9F7A9CFC8010E9473
:103D7000D509882309F4C2CEEE2009F4BFCE809184
:103D80004402803208F4BBCF20913E0230913F02C2
:103D90003A8329839C828B82909142029D831E826A
:103DA0008F83CE010196A9CF881A990AF8EC8F1655
:103DB000910408F0B8CFFF2009F47CCEFE2CEE2051
:103DC00009F49CCE90913F02D80111968C911197E5
:103DD00098130EC090913E028C91981309C087E011
:103DE000F801AEE3B2E001900D928A95E1F781CE41
:103DF000C8010E94D509811182CF8091440281605F
:103E000080934402C8010E945D1473CEABE1B0E020
:103E1000ECE0FFE10C947E244E8B5F8B688F798FF2
:103E20008A8F9B8F91111092D1021D8A86E0FE012C
:103E30007696DE011F9601900D928A95E1F78B89A7
:103E4000882329F061E0CE010F960E94D00A87E016
:103E5000FE013F96DE01189601900D928A95E1F7DA
:103E6000CE0108960E943B1D81110CC087E0FE0127
:103E70003896DE01119601900D928A95E1F78C85B6
:103E800081110BC017E0809131039091F8028913E2
:103E900031C06B96E3E00C949A242091F80230E054
:103EA000C901019687709927409131034817190677
:103EB00099F097E0929FD001939FB00D1124A750E5
:103EC000BD4FFE01319601900D929A95E1F78093D6
:103ED000F8020E94DE08D6CF0E94DB0C1092F80296
:103EE0001092310387E0EEE3F2E0DF011D928A9544
:103EF000E9F7C8CF819FC001112487509D4F0E94D0
:103F00003B1D882331F28091310390E00196877048
:103F1000992780933103B7CFA6E0B0E0E2E9FFE153
:103F20000C947D240E9403058C0180916F02909176
:103F300070028017910781F019821A820E9403058E
:103F4000682F49815A81792F80E090E00E94061FF6
:103F50001093700200936F022696E4E00C9499246B
:103F60001F920F920FB60F9211242F933F934F93EE
:103F70005F936F937F938F939F93AF93BF93CF93F1
:103F8000DF93EF93FF93D091E900DF708091EC0015
:103F9000C82FC17080FDC0E81092E9008091F00048
:103FA000877F8093F00078940E940C0D1092E900B6
:103FB0008091F00088608093F000CD2BCF70C0938B
:103FC000E900FF91EF91DF91CF91BF91AF919F9168
:103FD0008F917F916F915F914F913F912F910F90B2
:103FE0000FBE0F901F9018951F920F920FB60F9251
:103FF00011242F933F934F935F936F937F938F93EE
:104000009F93AF93BF93EF93FF938091E10082FF63
:1040100009C08091E20082FF05C08091E1008B7FA2
:104020008093E1008091DA0080FF24C08091D80065
:1040300080FF20C08091DA008E7F8093DA0080912B
:10404000D90080FF9DC080E189BD82E189BD09B4AE
:1040500000FEFDCF81E08093EE028091E1028111AC
:1040600009C00E9486030E9427048091E2008460B8
:104070008093E2008091E10080FF17C08091E20010
:1040800080FF13C08091E2008E7F8093E2008091D8
:10409000E20080618093E2008091D800806280938A
:1040A000D80019BC85E08093EE028091E10084FF86
:1040B0002BC08091E20084FF27C080E189BD82E1AE
:1040C00089BD89B5982F917080FFFBCF8091D80072
:1040D0008F7D8093D8008091E1008F7E8093E100F6
:1040E0008091E2008F7E8093E2008091E200816007
:1040F0008093E2008091EF02882309F447C084E0B6
:104100008093EE028091EE028091E10083FF27C050
:104110008091E20083FF23C08091E100877F80933C
:10412000E10082E08093EE021092EF028091E100C4
:104130008E7F8093E1008091E2008E7F8093E20089
:104140008091E20080618093E20042E060E080E0E4
:104150000E94F5038091F00088608093F000FF9149
:10416000EF91BF91AF919F918F917F916F915F91EF
:104170004F913F912F910F900FBE0F901F90189568
:1041800019BC1092EE021092E10274CF8091E3000C
:1041900087FD93E09093EE02B5CF78941F921FB6FF
:1041A0001F9211248F939F93AF93BF938091DD0251
:1041B0009091DE02A091DF02B091E0020196A11D74
:1041C000B11D8093DD029093DE02A093DF02B093D5
:1041D000E002BF91AF919F918F911F901FBE1F90E2
:1041E00018951F921FB61F9211248F939F93AF9320
:1041F000BF938091DC02811113C08091DD02909108
:10420000DE02A091DF02B091E0024196A11DB11D36
:104210008093DD029093DE02A093DF02B093E00270
:10422000BF91AF919F918F911F901FBE1F901895C6
:10423000CDB7DEB72E970FB6F894DEBF0FBECDBF59
:1042400085B7806885BF85B7806885BF84B7877F5D
:1042500084BF0FB6F894A895809160008861809320
:104260006000109260000FBE80E890E00FB6F894F6
:1042700080936100909361000FBE89E496E0909373
:10428000F7018093F6010E9486030E942704809123
:10429000E20084608093E20078948091EE028823AB
:1042A000A1F01091E9001F709091EC00892F8170AE
:1042B00090FD80E8182B1092E9008091E80083FDC2
:1042C0000E940C0D1F701093E90082E084BD93E002
:1042D00095BD9AEF97BD80936E0086EF0E944B06C6
:1042E00085EF0E944B0684EF0E944B0681EF0E94EF
:1042F0004B0609EE11E065EFE62E61E0F62ED801DF
:104300008D918D018F3F11F00E944B06E016F10652
:10431000B1F788E0E0E8F2E0DF01282F1D922A954E
:10432000E9F7E4E7F2E0DF011D928A95E9F790E012
:1043300080E00E94C224853E9E4F09F461C065EE74
:104340007EEF90E080E00E94F62460E082E090E062
:104350000E94D82481E090E090937D0280937C02BB
:1043600061E083E090E00E94D82460E074E184E0A2
:1043700090E00E94F62460E086E090E00E94D8245D
:1043800060E087E090E00E94D82440E050E0BA016D
:1043900088E090E00E94EA2460E083E290E00E94DE
:1043A000D82460E08CE090E00E94D82460E08DE0AA
:1043B00090E00E94D82419821A821B821C821D82DE
:1043C0001E821F82188648E050E067E170E0CE014F
:1043D00001960E94C82440E050E0BA018FE190E0CD
:1043E0000E94EA2440E050E0BA018FE090E00E9491
:1043F000EA2440E050E0BA0183E190E00E94EA2420
:1044000082E090E00E94BA248093880284E090E0E9
:104410000E94C2249093DB028093DA020E94AB13C5
:10442000EFEFF6E721E0E150F0402040E1F700C077
:1044300000000E94AB138091800280FF08C06FEFE4
:104440007FEF90E080E00E94F6240E94E30483E086
:1044500090E00E94BA2490E00E94D0098CE090E0A5
:104460000E94BA2480939E0280E091E09093D7024C
:104470008093D60251E9652E52E0752E4424439470
:10448000222423948091EE02853049F48091EE023B
:10449000853009F462C00E94DB0C0E94B8050E94BE
:1044A000AB1339E8A32E32E0B32E40E8842E42E06D
:1044B000942ED401F501219131918D919D916E162B
:1044C0007F0609F480C028173907A9F3512CF4019D
:1044D000019111914F01D501CD90DD905D01C01684
:1044E000D10659F1C026D126312CEE24E394F12CCB
:1044F000C6018E219F21892BB1F039865A860E94F0
:1045000003059C878B872D8691E098012E213F2102
:10451000232B09F490E09E8749855A856B857C851D
:104520008D850E94061F3394EE0CFF1CBCE03B12ED
:10453000DFCFF5013297118300835394E4E05E12DC
:10454000C6CF8FB7F8944091DD025091DE026091A2
:10455000DF027091E0028FBF3CC08091EE02843098
:1045600021F11092DC0248E150E080E40FB6F894AB
:10457000A895409360000FBE8093600083B7817F51
:10458000846083BF83B7816083BF7894889583B745
:104590008E7F83BF0FB6F894A895809160008861E4
:1045A00080936000109260000FBE0E94AB13E0E8A1
:1045B000F2E081919191892B09F04DC192E0E838A8
:1045C000F907B9F763CF2817390709F07FCF0E94A1
:1045D0008C1F0091D2021091D30201151105E9F050
:1045E00080919102909192020E94F404893C91057D
:1045F000A0F0112790E080E00A30110540F484E03B
:10460000000F111F8A95E1F7C801865F9E4FDC01FC
:1046100015962C9122FF0E94910C8091AA0182FF95
:1046200015C00E9403052091C0023091C102FC0117
:10463000E21BF30BE83CF10548F043E952E0BC0112
:104640008091C2029091C3020E9476128091C402AE
:10465000882369F00E94030520919A0230919B0201
:10466000821B930B8F3F9F4710F40E94DA0F86E066
:10467000EBECF2E0DE01119601900D928A95E1F7E4
:10468000D090CC02F090CD021091CE02E090CF02FB
:104690000091D0021092CD021092CE021092CF0261
:1046A0001092D002812F8F2909F445C08091C90250
:1046B0009091CA020E94F4049C019091C502992332
:1046C00009F4EFC021313105B0F19F3F19F09F5F30
:1046D0009093C502FF2059F00E9417069FEF1F1408
:1046E0000CF491E0899F802D11248093CD02112339
:1046F00059F00E94170691E011160CF09FEF899F68
:10470000802D11248093CE028091CD02882399F0D0
:10471000C090CE02CC2079F00E943B06882309F499
:104720008EC08093CD028C2D0E943B06882309F415
:1047300089C08093CE02802F8E2909F445C08091D4
:10474000C7029091C8020E94F4049C0190919C02BF
:10475000992309F4A2C021353105B0F19F3F19F02A
:104760009F5F90939C02EE2059F00E94F5059FEF09
:104770001E140CF491E0899F802D11248093CF02A8
:10478000002359F00E94F50591E010160CF09FEF00
:10479000899F802D11248093D0028091CF0288239D
:1047A00099F0E090D002EE2079F00E943B06882339
:1047B00009F44BC08093CF028E2D0E943B068823C4
:1047C00009F446C08093D0028091CC02D81217C061
:1047D0008091CD02882311F08F1111C02091CE025B
:1047E000222311F012130BC09091D002992311F0E3
:1047F000901305C03091CF02332309F449C00E94C1
:10480000CE0586E0FE013196ABECB2E001900D9250
:104810008A95E1F70E94B80590919D02891709F4E5
:1048200031CE80939D028FB7F8944091DD02509174
:10483000DE026091DF027091E0028FBF23CE4092D2
:10484000CD0271CF4092CE0276CF4092CF02B4CF4C
:104850004092D002B9CF8091ED02882309F416CEA0
:10486000A0E1A9BDB2E1B9BD09B400FEFDCF8091C0
:10487000D8008F7D8093D8008091E0008260809383
:10488000E0008091E00081FDFCCF0E94DB0CFECDBA
:10489000822B892B09F4B5CFB2CF232B09F060CF3F
:1048A00093CF232B09F013CF46CF97FB072E16F497
:1048B000009407D077FD09D00E94A62407FC05D0FC
:1048C0003EF4909581959F4F0895709561957F4F27
:1048D0000895EE0FFF1F0590F491E02D09942F929B
:1048E0003F924F925F926F927F928F929F92AF9280
:1048F000BF92CF92DF92EF92FF920F931F93CF93CD
:10490000DF93CDB7DEB7CA1BDB0B0FB6F894DEBF63
:104910000FBECDBF09942A88398848885F846E8489
:104920007D848C849B84AA84B984C884DF80EE80D3
:10493000FD800C811B81AA81B981CE0FD11D0FB6DC
:10494000F894DEBF0FBECDBFED010895AA1BBB1BBF
:1049500051E107C0AA1FBB1FA617B70710F0A61B7F
:10496000B70B881F991F5A95A9F780959095BC01A0
:10497000CD010895F999FECF92BD81BDF89A99278E
:1049800080B50895A8E1B0E042E050E00C94FE2428
:10499000DC01A40FB51F4150504048F0CB01840FFB
:1049A000951F2E910E94D92441505040D0F7089570
:1049B000262FF999FECF92BD81BDF89A019700B4D8
:1049C000021639F01FBA20BD0FB6F894FA9AF99A78
:1049D0000FBE08950396272F0E94D9240E94D82441
:1049E000252F0E94D924242F0C94D9240196272FF7
:1049F0000E94D9240C94D824DC01CB01FC01F99944
:104A0000FECF06C0F2BDE1BDF89A319600B40D921A
:104A100041505040B8F70895FB01DC0104C08D916E
:104A20000190801921F441505040C8F7881B990B20
:104A30000895F894FFCFEB0D130EAB0F130EAB0FD1
:104A4000460E670EAB0F640F710F32193619271916
:104A50002E193A193E1942199E19131AA6197019DE
:104A60007419AA197819AE19BA1984190C1A881967
:104A7000BE198C19C219EA199019C619F11996199B
:104A8000CC19D4197C19B2198019B6199A19D019F0
:104A9000E019FA190A1A6A19A2191A1A9F1A9F1A02
:104AA000D11AD11A731B8F1BF71AF71A941B1C1CEF
:044AB0002B1C2B1C74
:104AB400E004F30BEC0BE50BDE0B00000000000040
:104AC4000000950B00000000000000000000000042
:104AD4000000870B00000000000000000000000040
:104AE4000000790B0000000000000000000000003E
:104AF40000006B0B0000000000000000000000003C
:104B040000005D0B00000000000000000000000039
:104B140000004F0B00000000000000000000000037
:104B24000000410B00000000000000000000000035
:104B340000002C0B0000000000000000000000003A
:104B440000007213000000000000000000000000DC
:104B5400000039130000000000000101818283E29B
:104B640000E900EA00B500B600B700CD008301CC2F
:104B7400008A0192019401210223022402250226C3
:104B84000227022A02B300B4006F0070009F01CB19
:104B9400019F02A002F6F5F4F1F7C2676636359775
:064BA40096949593920027
:00000001FF
