:100000000C9472030C948F030C948F030C948F0345
:100010000C948F030C948F030C948F030C948F0318
:100020000C948F030C948F030C94A1230C945D23E8
:100030000C949E240C948F030C948F030C948F03C8
:100040000C948F030C948F030C948F030C948F03E8
:100050000C948F030C947A240C948F030C948F03CC
:100060000C948F030C948F030C948F030C948F03C8
:100070000C948F030C948F030C948F030C948F03B8
:100080000C948F030C948F030C948F030C948F03A8
:100090000C948F030C948F030C948F030C948F0398
:1000A0000C948F030C948F030C948F033B003C0043
:1000B000680000001F022002310200001F00200023
:1000C000310000004B7E4D7E4F7E00004900447E93
:1000D000457E000049004A004E0000003C006800D8
:1000E00000002002310200002000310000004B7EA1
:1000F0004D7E00004900447E000049004A00000097
:1001000014381A34093113320500000000000D00C4
:100110000F2218211C3434280428152416211722F4
:100120000A00000000001000113208310C241238BF
:100130001D421B00060007001900000000000E0011
:100140000B0036003700384200000000000029454F
:100150002C432B4428472A464C480000000000004E
:1001600014001A00080015001700000000001C0011
:1001700018000C001200130004001600070009000C
:100180000A00000000000B000D000E000F003400FC
:100190001D001B00060019000500000000001100F2
:1001A000100036003700380000000000000029452C
:1001B0002C432B4428472A464C48000000000000EE
:1001C0001D011B01060108571C01000000001C0155
:1001D000085706011B011D01E300E200E000E100F9
:1001E0001D01000000001D01E100E000E200E3004D
:1001F0001D011B01060108571C01000000001C0125
:10020000085706011B011D01000000000000D3007B
:10021000D100D200D200D100D300000000000000C5
:10022000B852B452B152B2520000000000001C019A
:10023000085706011B011D01A852A452A152A25247
:10024000000000000000737C5000510052004F007D
:100250005300507E00570657000000000000490080
:100260004A004E004B004D0000000000000000005E
:100270000000000028002A004C00000000000000E0
:10028000B852B452B152B252DF00000000001C015B
:10029000085706011B011D01A852A452A152A252E7
:1002A000DE00000000003900CF00CE00CD00D000FD
:1002B0000000000001570657DD0000000000490063
:1002C000447E457E467E477E000000000000000020
:1002D00000000000D200D100D300000000000000A8
:1002E000B852B452B152B2520957000000004A7ECF
:1002F000427E407E417E437EA852A452A152A25229
:10030000470000000000487EAC00AA00A900AB0036
:10031000007C0757025706574800000000004B7E3C
:100320004D7E4F7E4E7E4C7E00000000000000009F
:1003300000000000AD00AE00A800000000000000BA
:100340002F002400250026003000000000000000DF
:10035000A252A152B452A85233002100220023001D
:100360002E00000000002C00B252B152A452B8522C
:1003700035001E001F0020003100000000000000BA
:100380000657035737003800000000000000370010
:1003900027002D0000000000000000000000000009
:1003A0002F02240225022602300200000000000075
:1003B000A252A152B452A8523302210222022302B5
:1003C0002E02000000002C00B252B152A452B852CA
:1003D00035021E021F022002310200000000000050
:1003E00006570457370038000000000000002602BE
:1003F0002702497E0000000000000000000000000D
:1004000045004000410042006A000000000009571A
:10041000A252A152B452A85244003D003E003F00F7
:100420006900000000004700B252B152A452B85215
:1004300043003A003B003C00680000000000480018
:10044000065705570757007C0000000000006500B4
:100450002C002B0000000000000000000000000045
:10046000B852B452B152B252000000000000550020
:100470005F00600061005600A852A452A152A2522F
:100480002A000000000067005C005D005E0057006D
:10049000530069520000695200000000000054003F
:1004A00059005A005B0058000000000000002900BD
:1004B0002C002B008500620063000000000000009B
:1004C000000000000000000000000000000000002C
:1004D000000000000000000000000000000000001C
:1004E000000000007E0F00D4FFFFFFC7000000786F
:1004F00000000000000000002A2B2800000000007F
:1005000000000000000000000000002900000000C2
:100510002C1E3420212224342627252E362D373830
:10052000271E1F202122232425263333362E373839
:100530001F0405060708090A0B0C0D0E0F101112F7
:10054000131415161718191A1B1C1D2F3130232DC3
:10055000350405060708090A0B0C0D0E0F101112C1
:10056000131415161718191A1B1C1D2F3130354C72
:1005700005010902A10185020901A100050919016E
:10058000290815002501950875018102050109302A
:1005900009311581257F9502750881060938158175
:1005A000257F950175088106050C0A3802158125FD
:1005B0007F950175088106C0C005010980A10185EC
:1005C0000319012AB700150126B70095017510819E
:1005D00000C0050C0901A101850419012AA002151A
:1005E0000126A002950175108100C005010906A130
:1005F000018506050719E029E7150025019508750D
:100600000181020507190029EF1500250195F075F4
:1006100001810205081901290595057501910295C9
:100620000175039101C005010906A101050719E043
:1006300029E71500250195087501810295017508C6
:1006400081010507190029FF150026FF0095067591
:100650000881000508190129051500250195057572
:10066000019102950175039101C009023B0002014D
:1006700000A0FA0904000001030101000921110191
:10068000000122440007058103080001090401005C
:10069000010300000009211101000122B600070535
:1006A0008203200001120100020000000809120369
:1006B000230100010200010E034100740072006575
:1006C0000075007300000016034B0065007900629E
:1006D000006F0061007200640069006F0000000498
:1006E0000309040011241FBECFEFDAE0DEBFCDBF47
:1006F00012E0A0E0B1E0E0E7F2E502C005900D9263
:10070000AA34B107D9F724E0AAE4B2E001C01D92EF
:10071000A531B207E1F70E94C5240C94F7280C9488
:100720000000843028E2920731F08231984319F0BA
:1007300088EC90E008958AEF90E00895482F20918A
:1007400014049091CB0359E0291302C080E008956E
:1007500030E0529FF001539FF00D1124E453FC4F01
:100760008181681306C08081481303C0858181118F
:10077000EECF2F5F3F4F2770E7CFE8EDF0E08081AD
:100780008E7F80831092E2001092DA001092E100D6
:10079000A0EEB0E08C9181608C9380818F77808314
:1007A00019BCA7EDB0E08C918E7F8C9380818F7EF9
:1007B00080831092B40308952091E4003091E50005
:1007C00095E6A9012091EC00822F817020FF06C0E0
:1007D0008091E80080FF06C080E008952091E80045
:1007E00022FD1AC08091C103882389F0853089F0E9
:1007F0008091EB0085FD0FC02091E4003091E50071
:1008000042175307F9F29150E1F684E0089582E02F
:10081000089583E0089581E008958091C30387FFE0
:1008200013C08091E80082FF06C08091E8008B77BA
:100830008093E80004C08091C1038111F2CF089534
:100840008091C1038823D9F38091E80080FFF8CF1D
:100850008091E8008E77ECCF982F9093E900242FB9
:10086000762F50E0891731F07091EC002091ED0067
:100870005091F00021FD07C09F5F973071F7809382
:10088000E90081E008953091EB003E7F3093EB006A
:100890003091ED003D7F3093ED003091EB00316001
:1008A0003093EB007093EC002093ED005093F00038
:1008B0002091EE0027FDE0CF80E00895B0E0A0E0B9
:1008C000E4E6F4E00C945728C8EDD0E088818F7EF0
:1008D0008883E7EDF0E080818160808384E082BFDF
:1008E00081E08093B40388818E7F888302EE10E0DC
:1008F000F80110821092DA0081EEC82ED12CF60198
:10090000108288818F778883888180688883888136
:100910008F7D888319BC1092C1031092C20310927C
:10092000C0031092BF0390EEE92EF12CF7018081F5
:100930008B7F808388818160888342E060E080E0F3
:100940000E942C04F60180818E7F8083F8018081D3
:1009500081608083808188608083F70180818E7FC1
:100960008083888180618883CDB7DEB7E8E00C940E
:100970007328FC018091C9039091CA0386179707D9
:10098000A0F06115710529F49091E8009E7790938D
:10099000E80090E06115710551F4911108C0809153
:1009A000E80082FF34C080E00895BC01F2CF80915E
:1009B000C1038823C1F18530C1F18091E80083FD36
:1009C00030C08091E80082FDEACF8091E80080FF8E
:1009D000E1CF8091F3002091F200382F611571056D
:1009E00019F02830310558F091E02830310509F030
:1009F00090E02091E8002E772093E800CBCF819102
:100A00008093F100615071092F5F3F4FE7CF8091D4
:100A1000C103882341F0853041F08091E80083FFD5
:100A2000BECF81E0089582E0089583E0089580912B
:100A3000B603089587E797E790930108809300082D
:100A400088E19AE00FB6F894A895809360000FBEF5
:100A500090936000FFCF9C014FB7F8948091B00352
:100A60009091B103A091B203B091B3034FBF821B29
:100A7000930B08952FB7F8948091B0039091B10330
:100A8000A091B203B091B3032FBF089590910002DB
:100A90009923D1F09091AD0397FF16C0E82FE6950A
:100AA000E695E695EE31E0F4F0E0EC5AFD4F282FA4
:100AB000277081E090E001C0880F2A95EAF78095C1
:100AC0009281892382830895EEE4F2E09191891363
:100AD00003C0DF0111971C9292E0E435F907B1F7EA
:100AE0000895909100029923C1F09091AD0397FF72
:100AF00014C0E82FE695E695E695EE31F8F4F0E0BF
:100B0000EC5AFD4F877021E030E001C0220F8A953A
:100B1000EAF78281822B82830895AEE4B2E0EFEFA0
:100B200090E02D91821751F0EF3F19F4211101C08F
:100B3000E92F9F5F9630A9F7EF3F09F408950E2E35
:100B4000000CFF0BE45BFD4FE6CFA3E0B0E0EBEA67
:100B5000F5E00C945D282091AB033091AC0328178D
:100B60003907A1F09093AC038093AB03E091A90304
:100B7000F091AA03309751F024E029839B838A8364
:100B80000084F185E02DCE01019609952396E2E0DF
:100B90000C947928A3E0B0E0E0EDF5E00C945D283A
:100BA0002091A7033091A80328173907A1F090934B
:100BB000A8038093A703E091A903F091AA033097BB
:100BC00051F023E029839B838A830084F185E02D03
:100BD000CE01019609952396E2E00C947928E091E4
:100BE000A903F091AA03309729F00190F081E02D3C
:100BF0000995089580E008950E94EF050895411534
:100C0000510511F0FA01099508950E943A059C01D9
:100C100090919D0380919E03982B21F030939A032D
:100C20002093990390919F038091A003982B21F02A
:100C30003093980320939703E091A903F091AA03BE
:100C4000309749F082E080939B030680F781E02D86
:100C50008BE993E0099508958091960380FD1CC06F
:100C600081FD14C082FD14C0809195038823A1F0FA
:100C7000883280F428E0829FC001112468E270E08D
:100C80000E943328862F672B39F0089584E0089559
:100C90008FE7089588E0089581E008958091960394
:100CA00080FD1EC081FD15C082FD15C020919503F9
:100CB000222399F080E3203490F4289F900111249E
:100CC00086E0359527958A95E1F7822F232B41F011
:100CD000089588E108958FE7089588E008950895BC
:100CE00081E00895282F35EB2303C001112497FFDD
:100CF00004C080589109892F089580589F4FFBCFD9
:100D0000AC018091910360919203982F691301C007
:100D10000895292F30E0F901EE0FFF1FE757FC4F30
:100D20000190F081E02DE417F507C1F4F0E0E0E078
:100D30004C30510540F467E0649FF001659FF00D71
:100D40001124E555FE4F41E044839813E1CF2F5F16
:100D50003F4F237033272093910308952F5F3F4F18
:100D6000922F9370D3CF10921D0310921C03EBEAC5
:100D7000F1E08FEF91E02581211102C014821682EB
:100D800037968E179F07B9F7089580E00895F89475
:100D9000E82FE295EF70F0E031A1282F2F7081E06D
:100DA00090E001C0880F2A95EAF7982F9095932339
:100DB00091A392A1892B82A3789408959091AD0379
:100DC00092FF10C041E0282F2471243009F040E048
:100DD00031E0282F2871283009F030E0431711F056
:100DE0002CE0822793FF10C041E0282F247124318A
:100DF00009F040E031E0282F2871283109F030E077
:100E0000431711F02CE082273091AE0330FF10C061
:100E100051E0282F2171213009F050E041E0282FC6
:100E20002871283009F040E0541711F029E082279A
:100E300031FF10C041E0282F2171213109F040E03D
:100E400031E0282F2871283109F030E0431711F0E4
:100E500029E0822794FD877E089582389105B9F1B3
:100E6000B0F48133910509F47DC048F489329105CD
:100E700009F46DC08A32910509F47BC00895853369
:100E8000910509F45FC08933910509F10895833E06
:100E90009105D9F138F4803E910529F1823E910502
:100EA00079F10895863E9105D9F1873E910509F4BF
:100EB0003EC0843E910541F52091AE0321FF24C040
:100EC0008091AD0384FD19C087EE90E008952091D4
:100ED000AD03237009F05AC02091AE0323FF14C064
:100EE00089E290E008952091AD0320FD38C0309153
:100EF000AE0330FF09C024FF43C090E080E00895B6
:100F00002091AD0322FDF7CF08952091AD0322FD7E
:100F10003AC03091AE0330FD39C024FFF5CFEDCF9C
:100F20002091AD0323FFF0CF24FDE7CFCDCF20915B
:100F3000AD0323FD2EC03091AE0331FFEECF84EE22
:100F400090E008952091AD0325FFDECFC9CF209119
:100F5000AD0325FD21C02091AE0323FFD5CF89E34A
:100F600090E0D2CF2091AD0326FFCECF8AE290E071
:100F700008952091AD0326FFC7CF81E390E0089547
:100F800083EE90E0089582EE90E0089580EE90E088
:100F9000089586EE90E0089585E390E00895972FF8
:100FA0007430B8F46C30A8F48A30B0F470E02CE0FF
:100FB000929F600D711D1124FB0190E3899FE00D4C
:100FC000F11D1124EE0FFF1FE050FF4F859194910A
:100FD000089580E090E0089581E0FCCF1F93CF93C7
:100FE000DF930E942D07EC01C11580E5D807F0F5CD
:100FF000C11580E4D80708F09CC0C03ED10520F59B
:10100000CD3CD10508F082C0C83AD10578F4C53A84
:10101000D10508F073C0C130D10519F1209709F14D
:10102000C430D105F0F4D0E0C0E01BC0C33CD10512
:10103000D0F7C85AD0E0CC0FDD1FCC5FDD4F099050
:10104000D881C02DD4640DC0C11580E2D80708F046
:10105000D1C0C11581E0D80708F05AC0C83ED105FB
:1010600010F7CE01DF91CF911F910895C03682E530
:10107000D80718F5C03482E5D80708F06BC0C03235
:1010800082E5D80708F05FC0C11582E5D80708F4EB
:1010900097C02C2F2695269580E2289F9001112439
:1010A0008C2F8370C1E0D0E002C0CC0FDD1F8A9589
:1010B000E2F7C22BD32BDD68D4CFC03A82E5D80744
:1010C00060F4C03882E5D80708F459C0CF71D0E089
:1010D000DC2FCC27C46FD06AC4CFC03C82E5D807D0
:1010E00008F462C0C03E82E5D80708F09CCFDC2F30
:1010F000CC27CC27DF71C06FD06AB3CFC55AD0E000
:10110000CF5FDD4FC881D0E0D064ABCFD065A9CF31
:101110008D2F0E94DE06182FCE0199270E942D07E1
:10112000C12FD0E0DC2FCC27CC27DF71C82BD92BE7
:1011300098CFCE0199270E942D07CC27DF70C82BAE
:10114000D92BD06A8ECFCF71D0E0DC2FCC27C16FE6
:10115000D06A87CF2C2F26952695277080E2289F6E
:10116000900111248C2F8370C1E0D0E002C0CC0F1D
:10117000DD1F8A95E2F7C22BD32BDC6872CF2C2FB0
:1011800026952695277080E2289F900111248C2FA8
:101190008370C1E0D0E002C0CC0FDD1F8A95E2F77A
:1011A000C22BD32BDA685DCF8C2F8F710E94DE06A5
:1011B000C82FD0E0DC2FCC27CC27DF71D06251CFF5
:1011C0008C2F8F710E94DE0655E0D695C7955A95F3
:1011D000E1F7CF70D0E0DC2FCC27282F30E084FF60
:1011E00005C044E0220F331F4A95E1F7C22BD32BF1
:1011F000D06937CF8D2F8F710E94DE06182FCE0158
:1012000099270E942D07C12FD0E0DC2FCC27CC27B7
:10121000DF71C82BD92BD2CF8091C40281111092DB
:10122000C40208959091AE0392FF05C09091C4024C
:1012300098138093C402089580959091A4039823F5
:101240009093A403089580959091F702982390932A
:10125000F70208959091F702892B8093F702089581
:10126000CF93C091F7028091A403C82B8091C40250
:10127000882391F0C82B80910002882381F080910F
:10128000AD0387FF0CC02EE186E592E030E02150EF
:1012900050F431110E940C098C2FCF91089526E053
:1012A0008EE492E0F3CFFC014191CF01442379F326
:1012B0003F5FEDCF809114049091CB03981301C050
:1012C00008958F5F8770FACFB0E0A0E0EAE6F9E01A
:1012D0000C9456287C010091D4021091D502809183
:1012E000D2029091D302082B192BCFE0D0E0CC246E
:1012F000C394D12CBC2EC6010C2E02C0880F991F9E
:101300000A94E2F780239123892B49F4219790F7DF
:10131000B12C8B2DCDB7DEB7E9E00C947228B70164
:101320008C2F0E94CF070E94EE07019779F3F1CF2F
:10133000CF93DF93EC010E946409BE010E94CF07A6
:101340000E94EE07DF91CF910895943078F58C30AC
:1013500068F5E82FF0E08CE0989FE00DF11D112476
:101360009E2F977083E0F695E7958A95E1F7EE0F4B
:10137000FF1FEE0FFF1FE658FD4F50E040E080E0FA
:10138000219130E0092E02C0369527950A94E2F7A4
:1013900021703327042E01C0220F0A94EAF7822B12
:1013A0004F5F5F4F4430510559F7089580E008952D
:1013B000943098F58C3088F5E82FF0E08CE0989F19
:1013C000E00DF11D11248E2F877041E001C0440F04
:1013D0008A95EAF783E0F695E7958A95E1F7EE0FAF
:1013E000FF1FEE0FFF1FE658FD4F30E020E070E0DA
:1013F0005191DF011197CB01022E02C0969587957E
:101400000A94E2F7817081958527842385278C9340
:101410002F5F3F4F2430310559F708959093D5023F
:101420008093D402089521E030E002C0220F331FE0
:101430008A95E2F7209530958091D4029091D5025B
:10144000822393230E940E0A089590919B02809517
:10145000892380939B02282F277069F4891759F0FC
:101460009091AE0392FF07C08695869586950E945F
:10147000130A10929B02089521E030E002C0220F6F
:10148000331F8A95E2F78091D4029091D502822B86
:10149000932B0E940E0A08959093D3028093D20258
:1014A0000895FC0184818823F9F087819085009755
:1014B00091F00E94EE0792959F709630B9F080F4FB
:1014C000925F9F70923080F4803F19F058F4883E0C
:1014D00058F481E00895808191810E949809EBCFB2
:1014E0009A5FEFCF843FA9F380E00895883E88F3A8
:1014F000813FD1F7EECF662309F45DC08D3C41F406
:101500000E944E06819580939E030E9405060895D1
:101510008E3C19F40E944E06F6CF8F3C31F40E94A7
:101520004E06819580939D03F0CF803D19F40E9473
:101530004E06F8CF893D29F40E942C0680939F0324
:10154000E4CF8A3D21F40E942C068195F7CF8B3D94
:1015500031F40E942C0681958093A003D6CF8C3D58
:1015600019F40E942C06F8CF9FE2980F983070F47F
:10157000815D990B21E030E001C0220F8A95EAF7E6
:1015800080919C03822B80939C03BFCF8D3D31F4CF
:1015900080919603816080939603B7CF8E3D21F4AE
:1015A000809196038260F7CF8F3D09F0AECF809196
:1015B00096038460F0CF40919D038D3C59F4809157
:1015C0009E0387FF0DC010929E0341110BC0109225
:1015D000950308C08E3C81F480919E0318169CF3FD
:1015E000442381F080919F039091A003892B09F0FF
:1015F0008CCF1092F40289CF8F3C49F447FFF0CF93
:1016000010929D0380919E038111ECCFE0CF803D2D
:1016100019F41416ACF3E4CF90919F03893D29F49B
:101620001916F4F610929F03DBCF8A3D19F497FF49
:10163000D7CFF8CF9091A0038B3D29F497FFD0CF5F
:101640001092A003CDCF8C3D19F41916CCF3C8CF5E
:101650009FE2980F983090F4815D990B21E030E083
:10166000B90102C0660F771F8A95E2F7CB0180951A
:1016700090919C03892380939C03B2CF8D3D31F4DC
:10168000809196038E7F80939603AACF8E3D21F49E
:10169000809196038D7FF7CF8F3D09F0A1CF809188
:1016A00096038B7FF0CFA6E0B0E0E9E5FBE00C9479
:1016B0005C289C01FC01878190850097E1F486E01D
:1016C000DE01119601900D928A95E1F7F9012581CD
:1016D00089819A81222399F0662389F00E94640906
:1016E000182F682F89819A810E94D80969817A818F
:1016F000812F0E94CF072696E3E00C9478280E9461
:10170000A509182FF3CF9C013A9521153F4150F5BB
:10171000FC01EE27F170BC0166277270AC01442712
:1017200054709C012227387094FF0EC080E1EF2B8B
:1017300009F480E0672B09F08062452B09F0806492
:10174000232B89F08068089581E0EF2B09F480E075
:10175000672B09F08260452B09F08460232B19F078
:101760008860089580E00895FC018281813019F03D
:10177000823049F00895809374028091AE038360B3
:101780008093AE030895109274028091AE038C7F13
:10179000F7CFFC018281813029F481E090E00E9442
:1017A0004C0A08958230E9F782E090E0F8CFFC011E
:1017B0008281813029F480E091E00E944C0A0895F2
:1017C0008230E9F780E290E0F8CFFC01828181303D
:1017D00029F480E890E00E944C0A08958230E9F7ED
:1017E00080E190E0F8CFFC018281813029F480E42F
:1017F00090E00E944C0A08958230E9F788E090E07A
:10180000F8CFFC018281813029F480E290E00E94CF
:101810004C0A08958230E9F780E091E0F8CFFC01AE
:101820008281813029F480E190E00E944C0A089581
:101830008230E9F780E890E0F8CFFC0182818130C6
:1018400029F488E090E00E944C0A08958230E9F77C
:1018500080E490E0F8CF0F931F93CF93DF938B0139
:10186000EA019091C103943061F58093E9008FEF14
:101870009091E800815095FD06C095ED9A95F1F79D
:1018800000008111F5CF8091E80085FF1AC00E9409
:10189000DC03811111C08091E80085FD06C08091B4
:1018A000E8008E778093E800F2CFF80181918F01F4
:1018B0008093F100219779F78091E8008E778093EB
:1018C000E800DF91CF911F910F91089543E050E020
:1018D000BC0182E00E942B0C089546E050E0BC0160
:1018E00082E00E942B0C089540E250E0BC0182E0AF
:1018F0000E942B0C0895CF93DF93EC0148E050E059
:10190000BC0181E00E942B0C88E0FE01A7EBB3E054
:1019100001900D928A95E1F7DF91CF910895809320
:10192000F602682F8CE090E00E94B628089590910E
:10193000AE0392FB222720F9281779F080FB92F959
:101940009093AE036091AD037091AE0384E090E09C
:101950000E94D42882E00E94250A08958091000206
:10196000882359F18091AD0387FF27C00E94300979
:101970008093550240E250E06CE972E084E592E029
:101980000E94EA28892BC1F080E2E4E5F2E0ACE9AC
:10199000B2E001900D928A95E1F7E091A903F091F0
:1019A000AA03309749F086E0809354020480F581C1
:1019B000E02D84E592E0099508950E943009809316
:1019C0004C0248E050E06CEB72E08CE492E00E9444
:1019D000EA28892B89F388E0ECE4F2E0ACEBB2E092
:1019E00001900D928A95E1F7E091A903F091AA0385
:1019F000309711F30280F381E02D8CE492E0DBCF8D
:101A0000CF93DF93EC014A855B856E857F850E94CD
:101A1000FF058B810E941C098C810E9423090E9472
:101A2000AE0C86E0FE0111928A95E9F7DF91CF9125
:101A30000895CF93DF93EC018D8181FD14C0826006
:101A40008D838091A4039B81892B8093A4038C8137
:101A50000E942A090E94AE0C488559856E857F85B3
:101A6000CE010E94FF051092A6031092A5038D815E
:101A700080FD03C0CE010E94000DDF91CF9108953B
:101A80008091AA01877F8093AA0180911E03811112
:101A900003C082E00E941C098091AA0184FF06C055
:101AA0008F7E8093AA0182E00E942A098091AA0178
:101AB00085FF06C08F7D8093AA0180E20E942A09DB
:101AC0000E94AE0C08951092F702809100028823C4
:101AD00039F18091AD0387FF23C0E6E5F2E08EE1A6
:101AE000DF011D928A95E9F790E080E00E94CA0527
:101AF00090E080E00E94A5051092A4030E94AE0C25
:101B000086E0EBE9F3E0DF011D928A95E9F7109298
:101B100095031092F402109296030E940506089510
:101B2000EEE4F2E086E0DCCFAAE2B0E0EAE9FDE034
:101B30000C945C2883EC93E02091F100FC0121934C
:101B4000CF01F3E08B3C9F07B9F78091C40383304A
:101B500009F470C0B8F4813009F447C0823009F448
:101B6000B1C08091E80083FF7EC28091C303909151
:101B7000C4039A3008F077C2E92FF0E0E750F74D40
:101B80000C9447288A3009F48CC08B3009F46FC05C
:101B9000893039F78091C303813219F78091C703E7
:101BA0009091C8030297E8F68091E800877F8093C0
:101BB000E8008091E80082FF38C09091F3008091A6
:101BC000F200029731F48091F100813011F08630FB
:101BD00021F48091F1008093B6038091E8008B7727
:101BE0008093E8000E940D04BCCF8091C303813A2A
:101BF00009F0B7CF8091E800877F8093E80080915B
:101C0000C7039091C803892B61F468E087EB93E0E8
:101C100070E00E94B9048091E8008B778093E8001F
:101C2000A0CF60E090E080E0F3CF8091C10381110C
:101C3000C0CF97CF8091C303813A09F092CF8091B2
:101C4000C7039091C803892B09F08BCF8091E800DE
:101C5000877F8093E8008091E80080FFFCCF80912F
:101C600000028093F1008091E8008E77B9CF8091D7
:101C7000C303813209F075CF8091C7039091C803E7
:101C8000892B09F06ECF8091E800877F8093E80070
:101C90000E940D048091C503809300020E94630D91
:101CA00060CF8091C303813209F05BCF8091E8005F
:101CB000877F8093E8000E940D048091C603809383
:101CC000B5034FCF8091C303813A09F04ACF809189
:101CD000E800877F8093E8008091E80080FFFCCFD8
:101CE0008091B503BECF803899F0823809F0BBC12E
:101CF0008091C7038F70873008F0B5C18093E900E9
:101D00008091EB0085FB882780F91092E90006C0DE
:101D10008091BF039091C003911182609091E8007F
:101D2000977F9093E8008093F1001092F1008091EA
:101D3000E8008E7794C1882309F482C1823009F0CB
:101D400092C18091C503811185C18091C7038F70B5
:101D50002FEF280F263008F086C18093E9002091EC
:101D6000EB0020FF77C1933031F48091EB0080626B
:101D70008093EB006FC19091EB0090619093EB002A
:101D800021E030E001C0220F8A95EAF72093EA00B3
:101D90001092EA008091EB008860EACF811163C164
:101DA0001091C5031F778091E3008078812B809389
:101DB000E3008091E800877F8093E8000E940D0493
:101DC0008091E80080FFFCCF8091E30080688093E1
:101DD000E30082E0111183E08093C10344C1805885
:101DE000823008F040C18091C5039091C6038C3DBC
:101DF00023E09207A1F583E08A838AE289834FB7C3
:101E0000F894DE01139620E03EE051E2E32FF0E08B
:101E100050935700E49120FF03C0E295EF703F5FBD
:101E2000EF708E2F90E0EA30C0F0C7968D939D93AF
:101E30002F5F243159F74FBF8091E800877F80934F
:101E4000E8006AE270E0CE0101960E94B904809138
:101E5000E8008B778093E80006C1C096E7CF4091F9
:101E6000C7035091C803292F33272330310509F4C4
:101E700044C078F52130310509F46FC08BE390E060
:101E8000EAE6F6E02230310509F0EDC02091E800E5
:101E9000277F2093E8002091C9033091CA0382175D
:101EA000930708F49C0140E02115310509F064C056
:101EB000411162C08091E80082FDC9CF8091C103C9
:101EC000882329F2853019F28091E80083FFF2CF50
:101ED000BECF21323105A9F12232310509F0C3C04C
:101EE0004115510509F443C04130510509F0BBC00B
:101EF00086EB90E0E0E7F5E0C9CF992781309105C6
:101F0000C1F0009759F0029709F0ADC0E7EBF6E099
:101F1000E4918E2F90E0E7EBF6E007C0EFEDF6E0FE
:101F2000E4918E2F90E0EFEDF6E0009709F49BC06E
:101F3000ADCFE7ECF6E0E4918E2F90E0E7ECF6E031
:101F4000F4CF4115510571F04130510509F08BC0B6
:101F500089E090E0E5E9F6E099CF82E190E0E5EAFA
:101F6000F6E094CF89E090E0ECE7F6E08FCF84E4F0
:101F700090E0E6E2F6E08ACF8091C103882309F47D
:101F800066CF853009F463CF8091E80083FD5FCF91
:101F90008091E80082FD8ECF8091E80080FF84CFA1
:101FA0009091F3008091F2002115310519F08830ED
:101FB000910550F041E0089709F040E08091E80079
:101FC0008E778093E80070CF44914093F100319672
:101FD000215031090196E8CF803809F044C0809142
:101FE000E800877F8093E8008091C2038093F1002E
:101FF0009ECE811138C01091C5031230A0F580919A
:10200000E800877F8093E8001093C2030E940D04CC
:10201000112311F084E005C08091E30087FDFACF21
:1020200081E08093C10342E061EC81E00E942C04D6
:1020300042E261EC82E00E942C048091C10313C053
:102040008091C503813079F481E0933009F080E01C
:102050008093C0031092E9008091E800877F80930D
:10206000E8000E940D048091E80083FF0AC080917F
:10207000E800877F8093E8008091EB008062809386
:10208000EB00AA96E3E00C9478280E94630D2FEFF2
:1020900084E39CE0215080409040E1F700C00000C4
:1020A00088E19AE00FB6F894A895809360000FBE7F
:1020B00090936000FFCF882321F00E941C090E94AA
:1020C000AE0C089580911E03882329F082E20E94BD
:1020D0005B1010921E030895882339F09091A40399
:1020E000982B9093A4030E94AE0C0895882321F0AE
:1020F0000E9423090E94AE0C0895882321F00E94BB
:102100002A090E94AE0C0895882309F456C082382B
:1021100079F40E94FC0581FF50C089E30E9471059B
:102120000E94AE0C89E30E9446050E94AE0C089501
:10213000833859F40E94FC0580FF3FC083E50E946C
:1021400071050E94AE0C83E5EECF843859F40E94ED
:10215000FC0582FF32C087E40E9471050E94AE0C2C
:1021600087E4E1CF9CEF980F913AE8F290E2980F64
:10217000983050F4877091E001C0990F8A95EAF782
:10218000892F0E942309D1CF9BE5980F933028F423
:1021900090E080E00E94CA05089598E5980F9B3171
:1021A00028F490E080E00E94A505089593E3980F3D
:1021B000933118F460E00E947B0A0895CF93DF9377
:1021C000EC010E948410CE010E94830B9E01205ED0
:1021D00031092830310510F0CD2B29F40E947610FA
:1021E000DF91CF9108950E945B10FACFCF93C82F53
:1021F0008823C9F08238C9F40E94FC0581FD13C010
:1022000089E30E9471050E94AE0C2FEF87EE93E0E8
:10221000215080409040E1F700C0000089E30E9417
:1022200046050E94AE0CCF9108958338A1F40E9418
:10223000FC0580FDF8CF83E50E9471050E94AE0C7D
:102240002FEF81EE94E0215080409040E1F700C0F4
:10225000000083E5E4CF8438A1F40E94FC0582FDF0
:10226000E2CF87E40E9471050E94AE0C2FEF81EE51
:1022700094E0215080409040E1F700C0000087E4E6
:10228000CECF8CEF8C0F813A88F5809100028823A5
:1022900001F18091AD0387FF1CC0EC2FE695E69518
:1022A000E695F0E0EC5AFD4F828190E04C2F4770AC
:1022B00021E030E002C0220F331F4A95E2F782236B
:1022C0009323892B79F08C2F0E9446050E94AE0C37
:1022D00009C0EEE4F2E08191C817A9F322E0E435E9
:1022E000F207C9F78C2F0E9471059BCF80E28C0FFB
:1022F000883048F4C77081E001C0880FCA95EAF7BA
:102300000E942A098ECFEBE5EC0FE33040F4F0E0B9
:10231000EF5FFD4F808190E00E94CA0584CFE8E521
:10232000EC0FEB3150F4F0E0EE0FFF1FEC5FFD4FD0
:10233000808191810E94A50576CF83E38C0F833144
:1023400008F071CF61E08C2F0E947B0A6CCF1F9345
:10235000CF93DF93182FEB010E94F610209739F4EA
:10236000812F0E948410DF91CF911F9108958FE9F2
:102370009FE00197F1F700C000002197EFCF70E0D8
:1023800060E0893311F460E570E00E94A7110895C0
:10239000B0E0A0E0EEECF1E10C9457286B01C42F03
:1023A000D22FFC0185818823A9F04093A3030E94CA
:1023B0003A059093A2038093A103C77081E001C006
:1023C000880FCA95EAF70E947D10CDB7DEB7E8E026
:1023D0000C9473281091A303141337C08091A103A8
:1023E0009091A2030E942B057C01C6010E949103DB
:1023F000E816F90650F5C0E2CD0F1D17C1F080E2D6
:10240000810F883048F4177081E0012E01C0880FD9
:102410000A94EAF70E947610C83048F481E09D2FB4
:10242000977001C0880F9A95EAF70E947D10802F5F
:102430000E94BF11C83048F6D77081E001C0880FF4
:10244000DA95EAF70E947610C0CFC77081E001C02C
:10245000880FCA95EAF7F6CFB0E0A0E0E2E3F2E138
:102460000C945828E82FF0E0E051FB4FD490282F2F
:1024700026952695269530E0F901E052FB4F049110
:10248000877010E0082E02C0159507950A94E2F7B0
:1024900001701127F901E053FB4FE490F12C082E55
:1024A00002C0F594E7940A94E2F791E0E922FF2450
:1024B000F901E054FB4FC491D0E002C0D595C79517
:1024C0008A95E2F7C170DD270115110519F081EE3B
:1024D0000E94F610E114F10419F086EE0E94F61045
:1024E00070E060E08D2D0E94A711E114F10419F055
:1024F00086EE0E9484100115110519F081EE0E94EC
:102500008410CD2B19F08CE20E94BF11CDB7DEB73D
:10251000E7E00C9474289091F602923071F48A30BE
:1025200050F490E009966AE070E00E943328875AE0
:102530000E94BF1108958650FBCF96EF980F9630FA
:1025400020F0805D0E942C120895895AFBCF8F9253
:102550009F92AF92BF92EF92FF920F931F93CF93F0
:10256000DF934B015C01D091F6028CE1E82EF12C57
:1025700007E010E021E0D501C4010E2C04C0B6959F
:10258000A795979587950A94D2F7C82FCF702223E5
:1025900039F0D43051F4CA3040F080E00E948B1200
:1025A0008C2F0E948B1220E005C0C111F9CF04309E
:1025B0001105B4F30150110984E0E81AF1080F3F46
:1025C0001007C9F6DF91CF911F910F91FF90EF9007
:1025D000BF90AF909F908F900895CF93DF93EC01C1
:1025E0000E94830B9E01205E31092830310510F0D6
:1025F000209741F40E947D108C2F0E94F610DF91ED
:10260000CF9108950E946C10F7CFB0E0A0E0EBE00E
:10261000F3E10C9458288C01EB018091AA0182FF10
:1026200082C0E0901A03F0901B03E016F10621F03F
:102630000115110509F077C08091AA018B7F809365
:10264000AA0181FD69C080911803909119039E0130
:10265000281B390B81E0283C310508F480E08170AB
:10266000D82E8091AA01D0FA81F98093AA0187011E
:102670001127F80184E0F695E7958A95E1F7EE0FCA
:10268000FF1FE850FD4F20813181A7014F70552772
:1026900081E090E002C0880F991F4A95E2F7DD20A3
:1026A000E9F1822B932B918380838091F70281FF44
:1026B00008C08091AA0180618093AA0182E00E94F3
:1026C00023098091F70285FF08C08091AA018062EA
:1026D0008093AA0180E20E942309DD2029F08091E5
:1026E000A40382608093A403C70190528115904394
:1026F00008F47801C7010E94ED1280911A039091AD
:102700001B039C0130522115304308F499270E9485
:10271000DE100E94400D17C081E0A1CF80959095FA
:1027200082239323C0CFC801905281159043A0F417
:10273000C80199270E94DE1080911A0390911B0313
:102740000817190731F3D0931903C0931803CDB7B5
:10275000DEB7E7E00C947428C801ECCF0F931F9309
:10276000CF93DF938C01EB010E94ED12209741F48F
:10277000C8010E94DE10DF91CF911F910F91089543
:102780008FE99FE00197F1F700C000002197EECF9D
:10279000FC018281813019F0823019F10895809115
:1027A0007402882371F081EE0E94F61083EE0E947D
:1027B000F61081E20E94BF1183EE0E94841081EE28
:1027C0000DC083EE0E94F61081EE0E94F61086E1A5
:1027D0000E94BF1181EE0E94841083EE0E9484103B
:1027E000089580917402882341F081EE0E94F610D2
:1027F00083EE0E94F61080E2DDCF86E40E94BF11D6
:102800000895CF93DF93EC01809174028823F1F057
:1028100083EE0E94F6108A81823031F481EE0E94AC
:10282000F61082EE0E94F61089E10E94BF1183EE3D
:102830000E9484108A81823031F482EE0E948410DA
:1028400081EE0E948410DF91CF91089580EE0E9466
:10285000F6108A81823019F481EE0E94F61089E127
:102860000E94BF118A81823019F481EE0E94841087
:1028700080EEE7CFA8E0B0E0E0E4F4E10C94532868
:102880008E010F5F1F4F88E0F80111928A95E9F7DA
:102890009AE3E92E92E0F92E6801AA24A394B12CC0
:1028A000F70181917F018F3F09F446C0F894E82F2A
:1028B000E295EF70F0E021A18F70A50102C0440FF6
:1028C000551F8A95E2F7CA01922F982B91A392A1E6
:1028D0008095892382A3789400C0EEE3F2E021E0A2
:1028E00030E0912C812C41914F3F09F44EC0A42F30
:1028F000A295AF70B0E090968C9190E04F7002C0BE
:10290000959587954A95E2F780FD3FC0C901882AD1
:10291000992A220F331F52E0EA34F50721F7F70115
:10292000319780818F3F11F00E94C70680EA8A9517
:10293000F1F7F60191828082F2E0CF0ED11C4EE3D6
:10294000E41642E0F40609F0ABCF48E050E0B801ED
:102950008AEC92E00E94EA28892BE1F088E0F801F5
:10296000AAECB2E001900D928A95E1F781E08093A4
:10297000C9020E943A059093C8028093C70210E0F2
:10298000812F2896ECE00C946F2890E080E0BFCF78
:1029900010E01FC01091C902112389F38091C70272
:1029A0009091C8020E942B05059748F348E050E03B
:1029B0006AEC72E086ED92E00E94EA28892B41F3EE
:1029C00088E0EAECF2E0A6EDB2E001900D928A9583
:1029D000E1F71092C902D4CFB0E0A0E0E2EFF4E159
:1029E0000C9456287C01DC0114968C91882309F400
:1029F0001AC161E0C7010E94530BEC01F701858108
:102A0000882319F1E091A503F091A6033097E9F02E
:102A1000CE17DF07D1F0FF27EA30F105E0F564E0DB
:102A2000EE0FFF1F6A95E1F7E65FFE4F8581846038
:102A30008583D183C083CF010E94190D1092A40316
:102A400061E0C7010E94530BEC01C534FEE7DF07CC
:102A500009F4C1C0F0F5C2343EE7D307F8F4C0343E
:102A60008EE7D80708F086C0CC3191E0D90709F489
:102A700068C0C337BCE7DB0709F062C1F701858195
:102A8000882309F4C0C080911E03882309F448C13B
:102A90000E946210B8C0F0E0E0E0C8CFD701159600
:102AA0009C91C434BEE7DB0708F089C0992309F480
:102AB000AAC080917402882309F478C083EE0E9432
:102AC000F61080E3C234DE4709F48FE20E94BF11A2
:102AD0004FC0C934EEE7DE0709F4BFC0B8F4D70130
:102AE00015968C91C734BEE7DB0709F4A5C008F43E
:102AF00081C0882309F487C080917402882309F477
:102B0000A7C083EE0E94F6108CE2E0CFC035FEE74E
:102B1000DF0708F4C8C0C0352EE7D20709F0A9CFF7
:102B2000D70115968C91882309F46DC00E94FC058D
:102B300080FD03C083E50E94BF1189E00E943C0A2A
:102B400062C0D70115968C91882309F40EC180913B
:102B50007402882309F409C183EE0E94F61081EE05
:102B60000E94F6108DE10E94BF1181EE0E94841038
:102B700083EE19C0F7018581882309F444C080EEF3
:102B80000E94F610C034FEE7DF0719F481EE0E94C0
:102B9000F6108BE20E94BF11C034DE4719F481EEBB
:102BA0000E94841080EE0E9484102DC0C234DE4743
:102BB00021F087EB0E94BF1126C086EBFBCF8091EE
:102BC0007402992321F081113DC08BED1AC081114F
:102BD0003DC08BEDE8CF80917402D70115969C9192
:102BE000992321F081110CC08AED0BC0811122C004
:102BF0008AEDD9CF909174028823D1F09111F4CF4E
:102C000089ED0E94F61080919B02877061F0D701D8
:102C100015968C91882339F08091AE0382FF03C012
:102C200082E00E94250ACDB7DEB7E9E00C94722855
:102C30009111DECF89EDB7CF90917402882321F0F6
:102C40009111C3CF8CEDDDCF9111C3CF8CEDABCF04
:102C500083EE0E94F61086E139CFF7018581882343
:102C600091F280917402882371F082EE0E94F61036
:102C700081EE0E94F6108DE20E94BF1181EE0E944B
:102C8000841082EE90CF82EE0E94F61082E60E94BF
:102C9000BF1189E50E94BF118DE50E94BF1189E532
:102CA0000E94BF11EECFD70115968C91882309F4AD
:102CB000AACF82EE0E94BF11CD34BEE7DB0731F10F
:102CC00060F4CB34FEE7DF07A1F0CC34DE47C9F077
:102CD0008AE10E94BF1181E16DCFCE343EE7D30778
:102CE000D1F0CF34DE47A1F78BE00E94BF1186E21E
:102CF00061CF8AE10E94BF1189E00E94BF1189E083
:102D000059CF8BE00E94BF1183E254CF8BE00E9429
:102D1000BF1182E24FCF8BE00E94BF1187E24ACF02
:102D20001092F7020E940C090E943A0588579C4EA7
:102D30009093F3028093F20281E080931E0363CFAD
:102D4000C23AF2E5DF0709F48AC008F070C0CE018C
:102D500090528115904208F472C0C13ED10509F429
:102D60007EC0C53ED10509F467C080911E03811164
:102D7000A3C0CE0197558F3F910511F008F03FC0D9
:102D8000FE01FF27EA30F1050CF03DCF44E0EE0FE5
:102D9000FF1F4A95E1F78F01065F1E4FD701159679
:102DA0008C91E15FFE4F908180FB90F990838823A6
:102DB00009F421C10E943A059093E8028093E7024A
:102DC000F80182818F5F82838091A4039091F70242
:102DD000892B83838091C4028483468157816685D1
:102DE0007785C8010E94FF05D80115968C9181FF57
:102DF000FFC090E080E09093A5038093A603F701C5
:102E00008581882309F424C1C433FCE7DF0709F472
:102E1000A0C108F00DC1C2333CE7D30709F415C1C6
:102E2000C3338CE7D80709F013C181E00FC1C23B5F
:102E300082E5D80709F091CF25EE30E012C0D70126
:102E400016968C91807F09F088CF8D2F99278F71EE
:102E500099278230910519F0429771F37ECF21EEC8
:102E600030E02770332781E090E001C0880F2A9579
:102E7000EAF72091750230911E03332359F0F701D0
:102E80003581332321F0822B80937502BCCE80954F
:102E90008223FACF322F382309F46BCF982F9095E5
:102EA0002923209375020E942309D70115968C913E
:102EB000882309F4A8CE5DCF0091F7021091C402D7
:102EC0000E943A0588579C4E9093F3028093F20239
:102ED000F7018581882309F44CCF102B1D7909F067
:102EE0007BC0C034F2E5DF0708F049C0C11522E518
:102EF000D20708F03ECFC11530E4D30758F4C1150E
:102F000080E2D80708F05BC0C63ED10509F431CF96
:102F10008E010BC0C11590E5D907D0F7F701868166
:102F2000807F09F426CF8E0111278091AA0180FDB0
:102F30005DC08FEF0E941C090832110548F00A326B
:102F4000110508F449C0C8018B97029708F444C0E2
:102F5000045011090A31110528F48091A4038260FC
:102F60008093A40380917502882331F08091A4039B
:102F700092E089278093A4030E94AE0CFACEC03E53
:102F8000A2E5DA07A8F4C03CB2E5DB0708F0F1CE11
:102F9000C036E2E5DE0708F4BBCFC03AF2E5DF0752
:102FA00008F4E7CEC43B22E5D20709F4E2CEB0CF65
:102FB000CE0187579C47029708F0AACFDACED701F7
:102FC00016968C91807F09F0AECF8D2F8F71843152
:102FD00009F4CFCE863139F00E94621080917502DB
:102FE0000E942A09C6CE06EE12E19FCF8DEFA2CF36
:102FF0009C2F8D2F00CFF8014485558566857785F8
:10300000C8010E94FF05D80115968C9181FFF7CE6B
:10301000C8010E94000D8091A5039091A603C817D6
:10302000D90709F0ECCE1092A6031092A503E7CEC3
:10303000C6339CE7D90709F490C008F48CC0C733A5
:10304000BCE7DB0729F485E001C080E00E948F0C1B
:10305000F7018581882309F441C0D7FF3FC00E9452
:10306000FC05809377029091F602913029F481FF5C
:1030700003C089E30E94BF118091F702809376021A
:103080001092F7021092A4038091F602823009F4A4
:1030900087C008F064C0882309F477C0813009F440
:1030A00078C0AFE3BCE91197F1F700C00000BE01A2
:1030B0007F7790E080E00E94A7128091F602823034
:1030C00009F4A2C008F085C0882309F48EC08130BD
:1030D00009F48FC0809176028093F7020E943A052E
:1030E0008C01F7018581882309F4A8C08091AA0189
:1030F00082FF07C049EE52E0B80190E080E00E94F4
:103100000513C431FCE7DF0709F494C0C5312CE78F
:10311000D20709F484C0C3313CE7D30729F4809176
:10312000AA0181608093AA01CE019052811590433B
:1031300008F092C010921B0310921A03FE01E8518E
:10314000FC47E730F10508F036C1ED5FF64D0C9411
:10315000472882E07BCF83E079CF84E077CF84304B
:1031600099F1853009F09DCF70E060E08BE191E04E
:103170000E94AE1370E060E085E290E00E94AE1322
:1031800070E060E088E290E008C082EE0E94F610F5
:1031900088CF70E060E088E193E00E94AE1381CFB9
:1031A0008091770280FD03C083E50E94BF1182EE0B
:1031B0000E94F6108FE39CE90197F1F700C0000030
:1031C00087E50E94BF116DCF86EE0E94BF1188E196
:1031D000F8CF843011F1853009F07CCF70E060E0E9
:1031E00088E290E00E94AE1375CF82EE0E948410B8
:1031F00071CF8CE20E94BF118091770281FF6ACF6C
:1032000089E30E94BF1166CF82EE0E9484108091F4
:10321000770280FD5FCF83E5F4CF88E2F2CF909113
:10322000AA01892F8E7F90FF81608093AA010E945E
:10323000400D7ACF8091AA018E7FF7CF8091AA01AD
:103240008F7EC13ED10531F0C53ED105C1F48091DC
:10325000AA018F7D8093AA018091AA0180FF6ECF81
:10326000F7018581CB32D105C9F078F49E012E514A
:1032700031092A30310590F081115CCF5FCFCE014A
:1032800090528115904340F759CFCD32D105A0F32C
:10329000C933D10518F0C436D10571F7882309F474
:1032A00057C08091C4029091F702982B292F2D7F4F
:1032B00061F110921B0310921A03FE0124E0F695AF
:1032C000E7952A95E1F7EE0FFF1FE850FD4F9E01AD
:1032D0002F70332781E090E002C0880F991F2A9554
:1032E000E2F7809590952081318182239323918309
:1032F0008083CE010E94ED128091C4028D7F0E94D6
:10330000120982E00E94250A7ECC29E0F701A9EE8D
:10331000B2E001900D922A95E1F71092EC02109222
:10332000EB022091AA0191FB21F92093AA018D7F44
:103330000E941209D0931B03C0931A031093190320
:10334000009318038091AA0184608093AA01D9CFC9
:10335000A701B801CE010E94051355CC06E221EE6B
:1033600041EE6AE17CE7C7010E94C8114CCC07E23C
:1033700025EE45EE6BE17CE7F6CF06E221EE40EE6E
:1033800068E17CE7F0CF07E225EE44EE69E17CE7F7
:10339000EACF06E221EE42EE6CE17CE7E4CF07E201
:1033A00025EE46EE6DE17CE7DECF08E221E045EE5A
:1033B0006EE17CE7D8CFD70115968C91882309F46C
:1033C0005CC31092A303CE019057839708F041C3CA
:1033D00084E090E00E94A0289093AE038093AD0318
:1033E000FE01E150F047E232F10520F4E65FF64DD0
:1033F0000C9447288091AD0381608093AD0395C004
:103400008091AE0388608093AE038FC08091AD033E
:103410008260F3CF8091AD038460EFCF8091AD03E4
:103420008860EBCF8091AE038160EDCF8091AE03D9
:103430008260E9CF8091AD038061DFCF8091AD03E1
:103440008062DBCF8091AD038064D7CF0E94630D93
:103450008091AD038068D1CF8091AD038C60CDCFDA
:103460008091AE038360CFCF8091AD038E7FC5CFB7
:103470008091AE03877FC7CF8091AD038D7FBDCF95
:103480008091AD038B7FB9CF8091AD03877FB5CF9E
:103490008091AE038E7FB7CF8091AE038D7FB3CF87
:1034A0008091AD038F7EA9CF8091AD038F7DA5CF95
:1034B0008091AD038F7BA1CF0E94630D8091AD03FE
:1034C0008F779BCF8091AD03837F97CF8091AE03A1
:1034D0008C7F99CF8091AD0382FB992790F921E0F1
:1034E000922790FB82F990FB83F987CF8091AE03FE
:1034F000982F909591708E7F892B90FB81F983CFC7
:103500009091AD03892F8F7B96FF806476CF0E94C8
:10351000630D9091AD03892F97FB87F980586DCF8C
:1035200061E08EE090E00E94B6286091AD0370915A
:10353000AE0384E090E00E94D4280E94630D63CB28
:1035400060E0EFCF9091AD03892F8F7E94FF806173
:1035500054CF9091AD03892F8E7F90FF81604DCF26
:103560009091AE03892F877F93FF88604CCF85E3CE
:103570007FC285E38BC20E94630DBFEFE4E3FCE0F2
:10358000B150E040F040E1F700C000000E941A0591
:103590006FEF7FEF90E080E00E94D4280E944510FA
:1035A0008091AE0382FB882780F991E089270E94F1
:1035B000970CF70187819085009709F43EC00E941F
:1035C000EE07D82FC92FF701C580B680B2949FE0CF
:1035D000B92280919B028770F9F00C2DCC20E9F084
:1035E0008C2F807F803461F080E28D0F8830A0F0D6
:1035F0008C2F807E803221F4D23070F0BB2061F0BD
:103600008091AE0382FF08C082E00E94250A80916B
:103610009B02877001E009F000E0DC2ED2948FE07D
:10362000D822FBE0FD1508F474C0ED2DF0E0E45D58
:10363000F64D0C94472880E0BACF8581C081D181B6
:10364000882369F0CE010E946409182F682FCE01EB
:103650000E94D809BE01812F0E94CF07B0CFCE01B2
:103660000E94A509182FF6CF1C2F1F70C07F11F0E4
:103670001295107FCC20A9F0112359F080E28D0F14
:10368000883010F0D11107C0812F0E942A090E94B2
:10369000AE0C8D2F3CC08091A403182B1093A40373
:1036A000F6CF8D2F0E948410112399F180E28D0FA7
:1036B000883010F0D11104C0812F0E94230903C06B
:1036C000812F0E941C090E94AE0C23C01C2F1F706A
:1036D000C07FC03211F01295107FDD2351F0D13040
:1036E00009F471C0CC2009F47DC0BB2009F440C0AE
:1036F000D0CF8091AE0382FD37C0CC2079F1112369
:1037000029F0812F0E942A090E94AE0C80E00E94BD
:10371000F6102D2D2850330B2430310510F40E9463
:10372000EF050023B1F080919B0280FD12C0D7010C
:1037300015961C928695869586950E943C0AC7012F
:103740000E94EC1480919B028695869586950E9436
:10375000130A60E0C7010E94530B65CA80E00E9413
:1037600084101123B1F2A8CFCC2099F0B11004C07D
:10377000812F0E947D10CDCF21E0B212CACF80915F
:10378000C402912F9823191721F2182B1093C40209
:10379000C0CFB110BECF812F0E9476109091C4028D
:1037A000812F892329F0812F809589238093C4025A
:1037B00080917902912F982309F4ABCF10951823AB
:1037C00010937902A6CFCC2029F035E03B1508F400
:1037D000A0CFCECF84E08B1508F49BCF812F0E9421
:1037E000761097CFBB20D1F3D93349F49FEFA7EEE2
:1037F000B3E09150A040B040E1F700C000008D2F31
:103800000E94841086CF8C2F86958695837069F0F0
:10381000813009F07ECF8D2F9C2F9370C11002C094
:1038200080E090E00E94A50574CF8D2F9C2F9370AF
:10383000C11002C080E090E00E94CA056ACF6C2DE2
:103840008D2F0E947B0A65CF8C2F837009F03FC0BB
:10385000C1105FCF4D2F429546954770440F440FDE
:103860002D2F2F7030E0042E02C0220F331F0A9438
:10387000E2F790E080E0D4FF09C08FE090E002C062
:10388000880F991F4A95E2F780959095C695C69541
:10389000C370C23099F078F44091D2025091D302B3
:1038A000C13039F0822B932B842395230E944C0A3C
:1038B00030CF242B352B822B932BF8CF822B932BBD
:1038C0002091D2023091D30282279327EFCF8695A1
:1038D000CC2011F08C2F8170882309F41ACF4D2F42
:1038E000429546954770440F440F2D2F2F7030E0BE
:1038F000042E02C0220F331F0A94E2F790E080E00A
:10390000D4FF09C08FE090E002C0880F991F4A954C
:10391000E2F780959095C695C695C370C23099F030
:1039200078F44091D4025091D502C13039F0822B05
:10393000932B842395230E940E0AEBCE242B352B48
:10394000822B932BF8CF822B932B2091D402309192
:10395000D50282279327EFCFCF70CC2029F08C2F70
:103960000E943C0A8D2F05CF8D2F0E9476108C2F40
:103970000E94130ACECED23F71F160F4D03FB9F06D
:10398000D13F81F0CC2009F454C0B11082CE8C2FED
:103990008F7125C0D33F31F1D43FA1F79091AE0391
:1039A00092FD2EC08C2F8F71CC2011F318C0CC202B
:1039B00069F0E4E0EB1508F4ACCECF7181E090E063
:1039C00002C0880F991FCA95E2F7BFCFF5E0FB153B
:1039D00008F49FCEF2CF8C2F8F71C110C9CF0E94F7
:1039E0003C0A97CE90E080E0CC2009F4A4CFCF71C0
:1039F00081E090E002C0880F991FCA95E2F79BCF43
:103A0000CC2061F08C2F8F7192FFE9CF98E0899FD5
:103A100090011124236020939B02E1CF81E00E945A
:103A2000250AA1E0AB1508F074CE82E00E94250AB9
:103A300070CEBB2059F0D93309F0E1CEBFEFE7EEED
:103A4000F3E0B150E040F040E1F7D7CE8C2F8F711A
:103A50008FCFC631BCE7DB07E1F48091F7028A7AA9
:103A600091E009F490E090937802811180CD89E291
:103A70000E9471050E94AE0CC6C8C631DC4709F031
:103A800098CD80917802811174CD89E20E9446051B
:103A9000F1CFC330FCE7DF0709F47ACD50F4C1154C
:103AA0003CE7D30709F467CDC130DC4709F476CD94
:103AB00080CDCB359CE7D90709F4BDCDCC35ACE73B
:103AC000DA0709F46DCDCA35DC4709F072CD81E023
:103AD0006ECDB0E0A0E0EFE6FDE10C9458288091B7
:103AE0009802807F09F051C080919702882309F4E1
:103AF0004CC0E091140489E0D82E8091CB038E173E
:103B000009F443C00E2F10E0ED9DF0011124E453A1
:103B1000FC4F84818823F1F1D09EE001D19ED00D2D
:103B20001124FE01E453FC4F91818091930298137C
:103B300031C090818091920298132CC085818111AF
:103B400029C0E280F3808091940290919502E81A56
:103B5000F90A60E082E992E00E94530B0E9491030F
:103B6000E816F906B8F4809198028F70806180930E
:103B70009802CE52DC4F88818F708061888382E901
:103B800092E00E94EC140E945A09CDB7DEB7E7E03C
:103B90000C947428F8013196E770AFCFA8E1B0E03B
:103BA000E4EDFDE10C944E288C0186E0F801DE0185
:103BB000539601900D928A95E1F7D80114963C90A6
:103BC000149715966C9082E9A82E82E0B82E809109
:103BD000960281112AC0311003C0FF24F3941CC047
:103BE0006620F9F0C8010E94510AF82E8823C9F016
:103BF00089E0F801A2E9B2E001900D928A95E1F71F
:103C000080919602813031F48091920290919302DA
:103C10000E9498090E94691D8F2D6896E1E10C941D
:103C20006A28C8010E94EC14D8CFF8014080518066
:103C3000E280F38060E082E992E00E94530B6C0125
:103C4000709097028091940290919502772009F4E8
:103C500071C14701881A990A60E082E992E00E94E6
:103C6000530B0E9491038816990608F008C133206F
:103C700009F4B3CF80919802382F307F20919302BE
:103C8000D80111969C9111973111A7C0F62C2913D8
:103C90001EC0209192029C91291319C04091990253
:103CA00050919A0217962D913C914217530779F43F
:103CB00061108CC08F7080618093980282E992E0DD
:103CC0000E94EC1480919802F8018683A5CF6110C0
:103CD0007DC0652D842D0E949E03E82E882309F463
:103CE00048C0FCE2CF16F3E4DF0669F020F5A1E15D
:103CF000CA16A2E3DA0639F090F4E7E1CE16E2E262
:103D0000DE0609F089CF82E992E00E94EC1489E096
:103D1000E2E9F2E0DF011D928A95E9F77DCFFDE14E
:103D2000CF16F2E4DF0679F388E3C81682E4D806FA
:103D300009F072CFE8CFAAE2CA16A6E4DA0619F3B0
:103D400060F4EBE2CE16E4E4DE06E9F2F9E2CF1627
:103D5000F5E4DF0609F060CFD6CF88E2C81687E425
:103D6000D80689F2ACE4CA16A8E4DA0609F054CF02
:103D7000CACF4B8A5C8A8B899C890E949809292F1B
:103D800022952F70243058F49F70223088F09923A8
:103D900099F0F8019681907F79F4FE2C3DCF2A5F4F
:103DA0002F70223068F0C8010E94EC14E72CF5CF88
:103DB000992311F0882389F3805E883070F3F3CF64
:103DC000803F58F3815F833070F7E7CF809198028E
:103DD000816080939802F12C1FCF291321C020917C
:103DE00092029C9129131CC04091990250919A0211
:103DF00017962D913C9118974217530789F461103B
:103E00000FC016968C93C8010E94EC1489E0F8014B
:103E1000A2E9B2E001900D928A95E1F7F72CFCCE71
:103E2000C8010E94510A882309F4FBCE662009F4D8
:103E3000F8CE809198028032B8F0209192023091B1
:103E400093023B872A87FD86EC86909196029E8797
:103E50001F86888B8091990290919A029A8B898B08
:103E6000CE010A960E94EC1489E0F801A2E9B2E0C2
:103E700001900D928A95E1F70E94691DAECE809166
:103E80009802982F907F51F482E992E00E94EC14FE
:103E900089E0F50111928A95E9F79DCF332009F465
:103EA0009CCE20919302D80111969C9111972913D1
:103EB0001DC0209192029C91291318C04091990233
:103EC00050919A0217962D913C91189742175307DB
:103ED00069F461100BC016968C93C8010E94EC1413
:103EE00089E0F50111928A95E9F798CFC8010E94FF
:103EF000510A882309F495CE662009F492CE809168
:103F00009802803208F4B0CF20919202309193024F
:103F10003A832983FC82EB82909196029D831E82D4
:103F20008F838091990290919A0299878887CE0118
:103F3000019698CFE81AF90A60E082E992E00E94BF
:103F4000530B0E949103E816F90608F0A1CF332025
:103F500009F443CEF62C662009F463CE90919302C7
:103F6000D80111968C911197981318C090919202D4
:103F70008C91981313C02091990230919A02179650
:103F80008D919C912817390749F489E0F801A2E93D
:103F9000B2E001900D928A95E1F73ECEC8010E94F1
:103FA000510A811161CF80919802816080939802BB
:103FB000C8010E94EC1430CEA2E1B0E0E2EEFFE1D5
:103FC0000C945B280A871B872C873D874E875F8769
:103FD000688B798B8A8BCE010A960E94CE1D811147
:103FE0000CC089E0FE013A96DE01119601900D9217
:103FF0008A95E1F78E8581110BC019E08091140438
:104000009091CB03891331C06296E4E00C94772839
:104010002091CB0330E0C901019687709927409128
:1040200014044817190699F099E0929FD001939FC4
:10403000B00D1124A453BC4FFE01319601900D9296
:104040009A95E1F78093CB030E945A09D6CF0E943C
:10405000630D1092CB031092140489E0E2E9F2E0C0
:10406000DF011D928A95E9F7C8CF819FC001112415
:1040700084539C4F0E94CE1D882331F280911404FA
:1040800090E001968770992780931404B7CFEF9240
:10409000FF920F931F93CF93DF9380912003882388
:1040A00061F0E0911F038DE0F82E80912003E81766
:1040B00048F01092200310921F03CDB7DEB7E6E060
:1040C0000C947528EE24E394EE0EE0921F03CE2F9D
:1040D000D0E0EF9DF0011124EF5DFC4F8481882337
:1040E00031F187819085892B21F481859285019614
:1040F00059F4008111812281338144815581668187
:10410000778180850E94DC1FFC9EF001FD9EF00DF2
:104110001124EF5DFC4F148280911E03882349F027
:104120008091AA0180FF05C08DEF0E941C09EE2D31
:10413000BCCF8FEFFACF109294031092930310929A
:10414000FF0180919203809391030E94B3060E9425
:1041500047200895B0E0A0E0E0EBF0E20C944D2899
:10416000C091910397E0892E01E010E02DE0922E9E
:1041700034E0232E809192038C1309C00E944720C3
:104180000E94B306CDB7DEB7E2E10C946928D0E017
:10419000FE01EE0FFF1FE757FC4F80819181B0E0D9
:1041A000A0E08C30910538F4889ED001899EB00D36
:1041B0001124A555BE4F14962C911497211152C06D
:1041C0003090200341E253E030E020E0412C231501
:1041D00008F046C0FA01C384D4846D907C90119796
:1041E0006FEF7FEF512CA52CB12CF501EE0FFF1FC7
:1041F000E60DF71DE590F490CE14DF0409F4B50147
:10420000E114F10411F05394EECF6F3F760779F18A
:10421000F80102C0EE0FFF1F6A95E2F74E2AB801BF
:10422000052C02C0660F771F0A94E2F761507109EE
:1042300046161706D1F412964D915C911397929EF3
:10424000F001939EF00D1124EF5DFC4F50874783E2
:1042500024821082118292878187F1E01596FC9367
:104260000E9480062196C37085CFFA0114822F5FC9
:104270003F4F435F5F4FABCFAEE1B0E0E2E4F1E22E
:104280000C944D284B8B5C8B6D8B7E8B8F8B988F1A
:1042900091111092A403188A198A1A8A86E0FE01E5
:1042A0007396DE011A9601900D928A95E1F78E853C
:1042B000882389F061E0CE010A960E94530B6C01BD
:1042C0008F8520E5C2162CE7D20689F4882329F1D0
:1042D00081E08093FF010A851B852C853D854E85F5
:1042E0005F85688979898A890E94DC1FC8C031E5A9
:1042F000C3163CE7D30629F4882379F00E949B205B
:10430000EACF42E5C4164CE7D40639F4882329F0F5
:104310008091FF018111F2CFDBCFFBEAEF2EF1E0BC
:10432000FF2E512CB12CA12C88248394912CB7E022
:104330004B2ECE0101969A8F898F33243394F70147
:104340004081518166246A94762C60E0262F30E00B
:10435000F901EE0FFF1FE40FF51F85919491C81628
:10436000D90609F43901892B11F06F5FEFCF10E006
:10437000FFEF6F167F0609F443C0F70144811091E7
:10438000FF01812F411180E0182F1170F701258066
:1043900086819F85992309F4F9C0112309F4F6C099
:1043A000211014C09401062C01C0220F0A94EAF7D0
:1043B000822B868380911C0390911D03C29730F459
:1043C00022E330E030931D0320931C03C40102C09C
:1043D000880F991F6A95E2F70197F7012681281740
:1043E000190671F48091930390919403009709F456
:1043F0004AC00E942B05C39708F445C0F7013482D8
:10440000512AFFEFAF1ABF0A27E0E20EF11C3CE091
:10441000A316B10409F093CF8F85882309F415C141
:10442000552009F412C10E943A0590939403809399
:10443000930380912003883010F591E0980F9093BA
:10444000200399E0FE013A96DE01119601900D924B
:104450009A95E1F74DE0849FC00111248F5D9C4F38
:1044600029E0FE013196DC0101900D922A95E1F7D9
:104470002FEF3FEFFC0132872187D486C3866E96EB
:10448000E2E10C9469288091910360919203982F46
:10449000F0E0E0E0861314C090939103EE15FF0561
:1044A00009F4AECF90E0FC01EE0FFF1FE757FC4F81
:1044B000B182A08201968370992780939203A0CF46
:1044C000682E712CF301EE0FFF1FE757FC4F208180
:1044D0003181B0E0A0E02C30310538F4429ED001AB
:1044E000439EB00D1124A555BE4F2D913C911197BF
:1044F0003E8F2D8F00E070E0212CE22DF0E0EE0FDA
:10450000FF1F2D8D3E8DE20FF31F25913491211554
:104510003105E1F0F7010190F081E02DFC8FEB8F88
:1045200070E005C02417350709F4012F7F5FE72FDE
:10453000F0E0EE0FFF1F4B8D5C8DE40FF51F4591F2
:1045400054914115510571F72394D7CF002329F0D9
:10455000721530F0FD01109721F4F0E0E0E010C09A
:10456000F7013482EE16FF0621F490939103102F89
:1045700047CF981305C0AE17BF0711F49F5F937024
:1045800093012F5F3F4F822F837084CF90E02110E3
:104590001FC0940102C0220F331F6A95E2F7215019
:1045A00031092817390731F4442309F44CC0C501F7
:1045B0000E948006C401062C01C0880F0A94EAF705
:1045C000982F9095F701868189238683122D18CF25
:1045D000AC01062C02C0559547950A94E2F7BA0142
:1045E000617077279C012150310982239323892B05
:1045F00031F5672B21F1F70182819381892BE1F05D
:10460000E98DFA8D242D11922A95E9F70E943A0539
:10461000282F8B839C8334E03D83F7018281938133
:10462000782F8887998709811A813C8144E05E81CF
:104630006F81892F0E94DC1FF7011582BBCFF42FF9
:10464000F1702F2EB7CF212EB5CF9091910380918D
:104650009203981729F00E94AA20511010CF3BCE48
:104660000E94472010929403109293030E94B30675
:10467000F4CFA6E0B0E0EFE3F3E20C945B280E94F5
:104680003A058C018091C5029091C602801791076E
:1046900081F019821A820E943A05682F49815A8155
:1046A000792F80E090E00E943C211093C602009395
:1046B000C5022696E4E00C9477281F920F920FB65D
:1046C0000F9211242F933F934F935F936F937F9398
:1046D0008F939F93AF93BF93CF93DF93EF93FF930A
:1046E000D091E900DF708091EC00C82FC17080FD8F
:1046F000C0E81092E9008091F000877F8093F0007D
:1047000078940E94940D1092E9008091F0008860E6
:104710008093F000CD2BCF70C093E900FF91EF9113
:10472000DF91CF91BF91AF919F918F917F916F91C9
:104730005F914F913F912F910F900FBE0F901F905F
:1047400018951F920F920FB60F9211242F933F933B
:104750004F935F936F937F938F939F93AF93BF9389
:10476000EF93FF938091E10082FF09C08091E20006
:1047700082FF05C08091E1008B7F8093E1008091F2
:10478000DA0080FF24C08091D80080FF20C0809193
:10479000DA008E7F8093DA008091D90080FF9DC07F
:1047A00080E189BD82E189BD09B400FEFDCF81E0D1
:1047B0008093C1038091B403811109C00E94BD039D
:1047C0000E945E048091E20084608093E200809108
:1047D000E10080FF17C08091E20080FF13C080914C
:1047E000E2008E7F8093E2008091E20080618093FE
:1047F000E2008091D80080628093D80019BC85E0E7
:104800008093C1038091E10084FF2BC08091E2007E
:1048100084FF27C080E189BD82E189BD89B5982FD9
:10482000917080FFFBCF8091D8008F7D8093D8005E
:104830008091E1008F7E8093E1008091E2008F7E85
:104840008093E2008091E20081608093E200809199
:10485000C203882309F447C084E08093C103809198
:10486000C1038091E10083FF27C08091E20083FFB4
:1048700023C08091E100877F8093E10082E08093F4
:10488000C1031092C2038091E1008E7F8093E1000A
:104890008091E2008E7F8093E2008091E20080614F
:1048A0008093E20042E060E080E00E942C0480916E
:1048B000F00088608093F000FF91EF91BF91AF917D
:1048C0009F918F917F916F915F914F913F912F9128
:1048D0000F900FBE0F901F90189519BC1092C10336
:1048E0001092B40374CF8091E30087FD93E090931E
:1048F000C103B5CF78941F921FB61F9211248F93D6
:104900009F93AF93BF938091B0039091B103A09117
:10491000B203B091B3030196A11DB11D8093B00302
:104920009093B103A093B203B093B303BF91AF913F
:104930009F918F911F901FBE1F9018951F921FB6B9
:104940001F9211248F939F93AF93BF938091AF03D6
:10495000811113C08091B0039091B103A091B20373
:10496000B091B3034196A11DB11D8093B003909304
:10497000B103A093B203B093B303BF91AF919F91E2
:104980008F911F901FBE1F901895CDB7DEB72E9741
:104990000FB6F894DEBF0FBECDBF85B7806885BF68
:1049A00085B7806885BF84B7877F84BF0FB6F894CA
:1049B000A8958091600088618093600010926000EB
:1049C0000FBE80E890E00FB6F8948093610090935A
:1049D00061000FBE85EC96E090934B0280934A02F3
:1049E0000E94BD030E945E048091E2008460809377
:1049F000E20078948091C1038823A1F01091E9002E
:104A00001F709091EC00892F817090FD80E8182B29
:104A10001092E9008091E80083FD0E94940D1F70C0
:104A20001093E90082E084BD93E095BD9AEF97BDB5
:104A300080936E0086EF0E94C70685EF0E94C7062E
:104A400084EF0E94C70681EF0E94C7060EE312E0C2
:104A50006AE4E62E62E0F62ED8018D918D018F3F3B
:104A600011F00E94C706E016F106B1F788E0E6ED06
:104A7000F2E0DF01282F1D922A95E9F7EAECF2E037
:104A8000DF011D928A95E9F790E080E00E94A0285E
:104A9000853E9E4F09F461C065EE7EEF90E080E0B8
:104AA0000E94D42860E082E090E00E94B62881E075
:104AB00090E09093D3028093D20261E083E090E093
:104AC0000E94B62860E074E184E090E00E94D4285F
:104AD00060E086E090E00E94B62860E087E090E029
:104AE0000E94B62840E050E0BA0188E090E00E94C1
:104AF000C82860E083E290E00E94B62860E08CE085
:104B000090E00E94B62860E08DE090E00E94B62818
:104B100019821A821B821C821D821E821F821886A5
:104B200048E050E067E170E0CE0101960E94A628BF
:104B300040E050E0BA018FE190E00E94C82840E0D8
:104B400050E0BA018FE090E00E94C82840E050E0B9
:104B5000BA0183E190E00E94C82882E090E00E94C0
:104B600098288093DE0284E090E00E94A028909331
:104B7000AE038093AD030E943A14EFEFF6E721E015
:104B8000E150F0402040E1F700C000000E943A14DC
:104B90008091D60280FF08C06FEF7FEF90E080E049
:104BA0000E94D4280E941A0583E090E00E94982871
:104BB00090E00E944C0A8CE090E00E94982880933C
:104BC000F60280E091E09093AA038093A90357EE48
:104BD000652E52E0752E4424439422242394809120
:104BE000C103853049F48091C103853009F462C066
:104BF0000E94630D0E94EF050E943A143FEDA32E20
:104C000032E0B32E46ED842E42E0942ED401F5011D
:104C1000219131918D919D916E167F0609F480C08E
:104C200028173907A9F3512CF401019111914F0173
:104C3000D501CD90DD905D01C016D10659F1C02699
:104C4000D126312CEE24E394F12CC6018E219F2134
:104C5000892BB1F039865A860E943A059C878B874A
:104C60002D8691E098012E213F21232B09F490E01D
:104C70009E8749855A856B857C858D850E943C2160
:104C80003394EE0CFF1CBCE03B12DFCFF5013297F2
:104C9000118300835394E4E05E12C6CF8FB7F8947B
:104CA0004091B0035091B1036091B2037091B3038E
:104CB0008FBF3CC08091C103843021F11092AF03BB
:104CC00048E150E080E40FB6F894A8954093600066
:104CD0000FBE8093600083B7817F846083BF83B7FA
:104CE000816083BF7894889583B78E7F83BF0FB62A
:104CF000F894A8958091600088618093600010927C
:104D000060000FBE0E943A14E6EDF2E081919191AD
:104D1000892B09F07EC192E0EE3DF907B9F763CF28
:104D20002817390709F07FCF0E9439230091A50386
:104D30001091A6030115110509F18091E7029091E8
:104D4000E8020E942B057C01C8010E9491038E1588
:104D50009F05A0F4112790E080E00A30110540F48F
:104D600084E0000F111F8A95E1F7C801865F9E4F0E
:104D7000DC0115962C9122FF0E94190D8091FF01F4
:104D8000882301F180919303909194030097D1F0CF
:104D90000E942B0520911C0330911D032817390711
:104DA00088F49091910380919203981709F41CC1A3
:104DB0000E94AA2010921D0310921C0310929403CB
:104DC000109293038091AA0182FF15C00E943A05B8
:104DD0002091180330911903FC01E21BF30BE83C0E
:104DE000F10548F049EE52E0BC0180911A03909120
:104DF0001B030E94051380911E03882369F00E9403
:104E00003A052091F2023091F302821B930B8F3FFF
:104E10009F4710F40E94621086E0EBE9F3E0DE01A8
:104E2000119601900D928A95E1F7D0909C03F09035
:104E30009D0310919E03E0909F030091A0031092A8
:104E40009D0310929E0310929F031092A003812F46
:104E50008F2909F445C08091990390919A030E948B
:104E60002B059C0190919503992309F4F8C02131F9
:104E70003105B0F19F3F19F09F5F90939503FF209C
:104E800059F00E944E069FEF1F140CF491E0899F89
:104E9000802D112480939D03112359F00E944E060A
:104EA00091E011160CF09FEF899F802D11248093C3
:104EB0009E0380919D03882399F0C0909E03CC208F
:104EC00079F00E947206882309F497C080939D03AD
:104ED0008C2D0E947206882309F492C080939E0351
:104EE000802F8E2909F445C08091970390919803F3
:104EF0000E942B059C019091F402992309F4ABC008
:104F000021353105B0F19F3F19F09F5F9093F40276
:104F1000EE2059F00E942C069FEF1E140CF491E035
:104F2000899F802D112480939F03002359F00E94B4
:104F30002C0691E010160CF09FEF899F802D112414
:104F40008093A00380919F03882399F0E090A003B1
:104F5000EE2079F00E947206882309F454C08093F1
:104F60009F038E2D0E947206882309F44FC0809300
:104F7000A00380919C03D81217C080919D038823C1
:104F800011F08F1111C020919E03222311F01213F2
:104F90000BC09091A003992311F0901305C030919C
:104FA0009F03332309F452C00E94050686E0FE01E8
:104FB0003196ABE9B3E001900D928A95E1F70E943A
:104FC000EF059091F502891709F409CE8093F50257
:104FD0008FB7F8944091B0035091B1036091B20340
:104FE0007091B3038FBFFBCD0E94472010929403B2
:104FF000109293030E94B306E5CE40929D0368CFC2
:1050000040929E036DCF40929F03ABCF4092A0038E
:10501000B0CF8091C003882309F4E5CDA0E1A9BDFC
:10502000B2E1B9BD09B400FEFDCF8091D8008F7DFB
:105030008093D8008091E00082608093E0008091AE
:10504000E00081FDFCCF0E94630DCDCD822B892B2A
:1050500009F4ACCFA9CF232B09F057CF8ACF232B4C
:1050600009F00ACF3DCF97FB072E16F4009407D026
:1050700077FD09D00E94842807FC05D03EF4909566
:1050800081959F4F0895709561957F4F0895EE0F1C
:10509000FF1F0590F491E02D09942F923F924F92BB
:1050A0005F926F927F928F929F92AF92BF92CF92B8
:1050B000DF92EF92FF920F931F93CF93DF93CDB7C1
:1050C000DEB7CA1BDB0B0FB6F894DEBF0FBECDBF39
:1050D00009942A88398848885F846E847D848C840A
:1050E0009B84AA84B984C884DF80EE80FD800C8113
:1050F0001B81AA81B981CE0FD11D0FB6F894DEBFF6
:105100000FBECDBFED010895AA1BBB1B51E107C027
:10511000AA1FBB1FA617B70710F0A61BB70B881F47
:10512000991F5A95A9F780959095BC01CD010895D6
:10513000F999FECF92BD81BDF89A992780B508955F
:10514000A8E1B0E042E050E00C94DC28DC01A40FC0
:10515000B51F4150504048F0CB01840F951F2E9150
:105160000E94B72841505040D0F70895262FF99952
:10517000FECF92BD81BDF89A019700B4021639F0B6
:105180001FBA20BD0FB6F894FA9AF99A0FBE089587
:105190000396272F0E94B7280E94B628252F0E9429
:1051A000B728242F0C94B7280196272F0E94B728E0
:1051B0000C94B628DC01CB01FC01F999FECF06C0A6
:1051C000F2BDE1BDF89A319600B40D9241505040C5
:1051D000B8F70895FB01DC0104C08D91019080199E
:1051E00021F441505040C8F7881B990B0895F8945A
:1051F000FFCF730E9B0E33109B0E3310CE0EEF0EAF
:105200003310EC0FF90FBD19C319AE19B719C9192D
:10521000CF19D519341AA91A3C1A061A0A1A401AB3
:105220000E1A441A501A1A1AA21A1E1A541A221ABC
:10523000581A801A261A5C1A871A2C1A621A6A1AC5
:10524000121A481A161A4C1A301A661A761A901A36
:10525000A01A001A381AB01A341B341B661B661BBE
:10526000031C1F1C891B891B241CAC1CBB1CBB1CE6
:1052700017057B0C740C6D0C660C00000000000020
:1052800000001D0C000000000000000000000000F5
:1052900000000F0C000000000000000000000000F3
:1052A0000000010C000000000000000000000000F1
:1052B0000000F30B000000000000000000000000F0
:1052C0000000E50B000000000000000000000000EE
:1052D0000000D70B000000000000000000000000EC
:1052E0000000C90B000000000000000000000000EA
:1052F0000000B40B000000000000000000000000EF
:105300000000011400000000000000000000000088
:105310000000C81300000000000001FA0040520025
:105320000000F4004052000000EE00405200000077
:10533000E8004052000000E2004052000000DC00A3
:105340004052000000D4004152000000CC00415205
:10535000000000C4004152000000BC0041520000A7
:1053600000B4004152000000AC00415200000001B6
:1053700001818283E200E900EA00B500B600B700CF
:10538000CD008301CC008A01920194012102230205
:1053900024022502260227022A02B300B4006F006D
:1053A00070009F01CB019F02A002F6F5F4F1F7C255
:0A53B0006766363597969495939240
:00000001FF
